S00E00006E6F64655F312E73726563E0
S11300000C94B4010C94D1010C94D1010C94D10141
S11300100C94D1010C94D1010C94D1010C94D10114
S11300200C94D1010C94D1010C94D1010C94D10104
S11300300C94D1010C94D1010C94D1010C94D101F4
S11300400C94D1010C94D1010C94D1010C94D101E4
S11300500C94D1010C94D1010C94D1010C94D101D4
S11300600C94D1010C94D1010C94D1010C94D101C4
S1130070000000000000000000065F5F06000000B2
S11300800007070007070000147F7F147F7F140018
S1130090242E6B6B3A120000466630180C66620020
S11300A0307A4F5D377A48000407030000000000EF
S11300B0001C3E63410000000041633E1C00000040
S11300C0082A3E1C1C3E2A0808083E3E0808000078
S11300D000A0E0600000000008080808080800000C
S11300E000006060000000006030180C060301008E
S11300F03E7F594D7F3E000042427F7F40400000DA
S1130100627359496F660000226349497F360000D3
S1130110181C16137F7F1000276745457D390000A2
S11301203C7E4B4979300000036371190F070000CE
S1130130367F49497F360000064F49693F1E00005B
S113014000006C6C0000000000A0EC6C00000000DB
S1130150081C366341000000141414141414000025
S1130160004163361C080000020351590F060000C9
S11301703E7F415D5D1F1E007C7E13137E7C00006C
S1130180417F7F49497F36001C3E63414163220021
S1130190417F7F41637F1C00417F7F495D41630054
S11301A0417F7F491D0103001C3E6341517372006E
S11301B07F7F08087F7F000000417F7F41000000AF
S11301C0307040417F3F0100417F7F081C7763000E
S11301D0417F7F41406070007F7F060C067F7F0077
S11301E07F7F060C187F7F001C3E6341633E1C002A
S11301F0417F7F49090F06001E3F21717F5E000089
S1130200417F7F19396F460026674D597B320000C4
S113021003417F7F410300007F7F40407F7F0000D8
S11302201F3F60603F1F00007F7F3018307F7F00DA
S113023063771C081C776300074F78784F0700002A
S11302406773594D47637100007F7F41410000008F
S11302500103060C183060000041417F7F0000005C
S1130260080C0603060C0800808080808080808053
S11302700000030704000000207454543C7840003C
S1130280413F7F44447C3800387C44446C2800005F
S1130290307848493F7F4000387C54545C18000053
S11302A0487E7F490302000098BCA4A4F87C0400A3
S11302B0417F7F08047C780000447D7D400000007D
S11302C040C484FD7D000000417F7F10386C4400F1
S11302D000417F7F400000007C7C0C180C7C78007F
S11302E07C7C04047C780000387C44447C38000026
S11302F084FCF8A4243C1800183C24A4F8FC8400D2
S1130300447C78441C180000485C54547424000055
S113031000043E7F442400003C7C40403C7C400080
S11303201C3C60603C1C00003C7C6030607C3C00F9
S1130330446C3810386C44009CBCA0A0FC7C0000C9
S11303404C64745C4C64000008083E774141000032
S113035000000077770000004141773E0808000064
S1130360020301030203010011241FBECFEFD4E0F6
S1130370DEBFCDBF12E0A0E0B1E0E2EEF7E102C0E3
S113038005900D92AA38B107D9F722E0AAE8B2E0A5
S113039001C01D92AC39B207E1F70E9483030C94AB
S11303A0EF0B0C9400008C5F8093001481E48A9519
S11303B0F1F700C080910014089580918A02909111
S11303C08B02892B89F483E090E00E94D301853667
S11303D0A8F080E191E00E94A70381E090E090936F
S11303E08B0280938A02089583E090E00E94D301F7
S11303F0843620F410928B0210928A020895EF92B0
S1130400FF920F931F93CF93DF930E94D70660E070
S113041080E00E94CA0685E292E00E948A06C0E05B
S1130420D0E00F2EF0E3EF2EF2E0FF2EF02D07E3E5
S113043012E068E08C2F8E5F0E94CA06CE01880FFE
S1130440991F0E94A00921969F938F93DF93CF93C6
S1130450FF92EF921F930F930E94AC07C8010E9472
S11304608A068DB79EB708960FB6F8949EBF0FBE46
S11304708DBFC330D105E9F6DF91CF911F910F9164
S1130480FF90EF9008950F931F93CF93DF93082F5E
S1130490192FEB01282F392F48815981421753070F
S11304A098F46A817B8184E090E00E94A6096881C7
S11304B0798182E090E00E94A609602F712F80E08C
S11304C090E00E94A6091BC06A817B8162177307B2
S11304D058F484E090E00E94A609602F712F82E016
S11304E090E00E94A6090BC04C815D81421753071E
S11304F030F4682F792F84E090E00E94A609DF9100
S1130500CF911F910F9108954F925F926F927F92B6
S11305108F929F92AF92BF92CF92DF92EF92FF920F
S11305200F931F93CF93DF93CDB7DEB760970FB6CA
S1130530F894DEBF0FBECDBF8AE0EBE1F2E0DE014E
S1130540179601900D928A95E1F780E090E00E9461
S1130550A0099A83898382E090E00E94A0099C8389
S11305608B8384E090E00E94A0099E838D83809118
S113057024018987CE0107960E94A7030E94D7060B
S113058060E080E00E94CA0689E492E00E948A0644
S113059060E083E00E94CA0683E592E00E948A0636
S11305A0C12CD12C00E010E00F2EFCE18F2EF1E0E5
S11305B09F2EF02D0F2EFDE16F2EF1E07F2EF02DFA
S11305C00F2EF8E04F2EF1E05F2EF02D0F2EFFE5F9
S11305D0AF2EF2E0BF2EF02D0F2EFEE3EF2EF2E051
S11305E0FF2EF02D03C08FEFC81AD80A0E94BE0454
S11305F0F4016083F30180838AE191E00E94A70300
S11306008091240190912501019751F482E090E0BA
S11306100E94D301F201808386E091E00E94A70347
S1130620CE0107960E94FF03019719F48F81873644
S1130630D1F10E94DD0182E090E00E94D301853B6C
S113064030F08091240190912501892B61F180E0A3
S113065090E00E94D301893C30F080912401909174
S11306602501019701F160E084E00E94CA061F930E
S11306700F93BF92AF92FF92EF920E94AC07C70113
S11306800E948A060F900F900F900F900F900F907A
S1130690FDEBCF16F2E0DF060CF4A5CF0F5F1F4F82
S11306A0C12CD12CA3CFBE016F5F7F4FC8010E9424
S11306B0430260960FB6F894DEBF0FBECDBFDF9144
S11306C0CF911F910F91FF90EF90DF90CF90BF904B
S11306D0AF909F908F907F906F905F904F90089510
S11306E060E070E080E090E00E94A60960E070E0C5
S11306F082E090E00E94A60960E070E084E090E06F
S11307000E94A60908958FE190E00E94FF0685B734
S1130710806885BF0E94BB040E949D060E949503C9
S11307200E94440680E090E008950E947D0440E029
S11307306FEF80E00E944A0440E060EE81E00E9496
S11307404A0440E060EE8FE00E944A0408951F933B
S1130750CF93DF93EC01688181E30E942B0460E076
S113076082E30E942B04698185E30E942B04898122
S1130770882369F010E0FE01E10FF11D628186E338
S1130780810F0E942B041F5F89811817A0F381E851
S113079090E00E943F04DF91CF911F910895EF9262
S11307A0FF920F931F93CF93DF938C01E62E81E684
S11307B0860F0E941904F801808385E68E0D0E943D
S11307C01904F8018183882399F0C0E0D0E0F6E6AB
S11307D0EF0EFC2E8C2F8E0D0E941904F801EC0FE5
S11307E0F11D8283F3942196F8018181F81688F330
S11307F0DF91CF911F910F91FF90EF900895CF93C8
S1130800DF93EC018CE20E94190480FF0DC060E0CC
S113081070E0CE010E94CF0340E061E08CE20E94D0
S11308204A0481E090E002C080E090E0DF91CF9143
S11308300895CF93C82F0E94E40683E00E94E8063F
S11308408C2F0E94E8060E94EC06C82F0E94E60640
S11308508C2FCF910895CF93DF93D82FC62F0E946A
S1130860E40682E00E94E8068D2F0E94E8068C2FA1
S11308700E94E8060E94E606DF91CF910895CF9387
S1130880C82F0E94E4068C2F0E94E8060E94E60608
S1130890CF9108951F93CF93DF93182FD62FC42F92
S11308A00E94E40685E00E94E806812F0E94E80683
S11308B08D2F0E94E8068C2F0E94E8060E94E6060F
S11308C0DF91CF911F9108950E94E40680EC0E946D
S11308D0E8060E94E6060895CF930E94E40683E0AA
S11308E00E94E8068EE00E94E8060E94EC06C82FEB
S11308F00E94E6068C2FCF9108950E94F1060E9473
S113090064040E946C04807E803821F089E692E0C1
S11309100E947F070895EF92FF920F931F93CF9346
S1130920DF93CAE0D0E000E010E0E12CF12C81E09C
S113093090E00E94D301E80EF11C80E090E00E9458
S1130940D301080F111D2197209789F72AE030E081
S1130950C701B9010E940C0760938D02C801B90157
S11309600E940C0760938C02DF91CF911F910F912D
S1130970FF90EF9008950E948B040895CF93DF9326
S113098081E090E00E94D30190E020918D02821BCF
S1130990910944E6489F9001499F300D1124332367
S11309A014F421583F4FE901CC0FCD2FCC1FDD0BA0
S11309B080E090E00E94D30190E020918C02821BA1
S11309C0910944E6489F9001499F300D1124332337
S11309D014F421583F4FBE01C901880F892F881F85
S11309E0990BDF91CF9108950E94BE04673471057D
S11309F064F46A3B4FEF740754F0873491054CF468
S1130A008A3B9F4F44F483E0089581E0089580E099
S1130A10089582E0089584E00895833041F580913B
S1130A20900290919102AC014F5F5F4FE0918E0272
S1130A30F0918F022785308924173507B4F160E0DF
S1130A400E94CA068DE592E00E948A068091900277
S1130A50909191020196909391028093900260E0AC
S1130A600E94CA0688E892E00E948A06089580914E
S1130A7090029091910282309105BCF060E00E9456
S1130A80CA068DE592E00E948A06809190029091B8
S1130A9091020197909391028093900260E00E94EA
S1130AA0CA0688E892E00E948A060895EF92FF92AF
S1130AB00F931F93CF93DF937C0181E090E0909399
S1130AC09102809390020E94D70660E080E00E9429
S1130AD0CA06C7010E948A0660E0809190020E94C3
S1130AE0CA0688E892E00E948A06F7018785908901
S1130AF001960297C4F087010B5E1F4FC1E0D0E05E
S1130B0068E08C2F0E94CA06F801819191918F01AF
S1130B100E948A062196F701278530892F5F3F4F6F
S1130B20C217D3076CF3DF91CF911F910F91FF9000
S1130B30EF9008950F931F93CF93DF938C01EB01F4
S1130B400E94F404F80180839881891709F47FC016
S1130B50813049F008F465C0823009F471C08330F3
S1130B6009F472C074C080918E0290918F02E0915A
S1130B709002F09191023197EE0FFF1FE80FF91FD9
S1130B800588F689E02D8081803559F028F4833476
S1130B90C9F18834C9F05BC0823529F18335D9F0B5
S1130BA056C0F0938F02E0938E020E948402E0917B
S1130BB08E02F0918F028389948990938F0280939F
S1130BC08E020E94560543C0F0938F02E0938E027A
S1130BD00E94FF013CC0F0938F02E0938E02CF018C
S1130BE00E94560534C00E947003E0918E02F09179
S1130BF08F028389948990938F0280938E020E943E
S1130C00560525C00E948B04E0918E02F0918F025C
S1130C108389948990938F0280938E020E94560553
S1130C2016C0E0918E02F0918F0283899489009717
S1130C3071F090938F0280938E020E94560507C034
S1130C4082E00E940D0503C083E00E940D05F801B7
S1130C5080818883DF91CF911F910F910895CF9365
S1130C60DF9300D0CDB7DEB784E08A83BE016E5F28
S1130C707F4FCE0101960E949A058FEF9FE2019764
S1130C80F1F700C00000F2CF8CE691E090930C02E3
S1130C9080930B029093E9018093E80186E291E04E
S1130CA09093C6018093C5019093A3018093A20100
S1130CB09093800180937F0190938F0280938E02A2
S1130CC081E090E0909391028093900286E291E01B
S1130CD00E9456050E942F06CF93DF93EC0120E07B
S1130CE030E0A0E0B2E1E881F0E0B097EE0FFF1F42
S1130CF0EE0FFF1FEE0FFF1FE20FF31FE059FF4F30
S1130D00E491EC932F5F3F4F2830310561F7DF9179
S1130D10CF910895CF93DF93FC012081222351F0DA
S1130D20EC0121960E946C06CE012196FC012081E3
S1130D302111F8CFDF91CF910895E0E0F0E18EEA40
S1130D40808381EA80838AED808382E1808388ECDA
S1130D50808388EA80838FE3808385ED808380E8C5
S1130D60808381E8808380E5808389ED808381E2CC
S1130D70808380E2808310828BED808380E3808394
S1130D808DEA8083108284EA808386EA80838FEAF6
S1130D9080830895E0E0F0E191E2908360839FE72F
S1130DA0908392E29083808387E08083089560E05B
S1130DB080E00E94CA0680E094E0E0E0F2E1108264
S1130DC001970097E1F70895C4980895C49A089587
S1130DD08FB9779BFECF089580E00E94E8068FB11B
S1130DE0089587B3806B87BB81E58DB908955D9BBA
S1130DF0FECF8CB908955F9BFECF8CB1089590BD52
S1130E0089B988E18AB98EE880BD6BEF76E087EF17
S1130E1096E00E943407089597FB072E16F4009479
S1130E2007D077FD09D00E94200707FC05D03EF4C7
S1130E30909581959F4F0895709561957F4F089582
S1130E40AA1BBB1B51E107C0AA1FBB1FA617B707EC
S1130E5010F0A61BB70B881F991F5A95A9F7809508
S1130E609095BC01CD0108950F931F93CF93DF9309
S1130E70EC018B01009731F46115710519F480E0E0
S1130E8090E038C06EE070E081E090E00E94AB0931
S1130E90FC010097A1F380E883830115110571F02B
S1130EA01387028781E88383809192029091930251
S1130EB0892B21F4F0939302E09392022097C9F0D6
S1130EC0D187C087838182608383809194029091CB
S1130ED09502892B71F4F0939502E093940280912A
S1130EE0960290919702892B21F4F0939702E09354
S1130EF09602CF01DF91CF911F910F9108950F9327
S1130F001F93CF93DF93E0919402F0919502238194
S1130F1021FF1BC0EC0100E010E089916091940274
S1130F2070919502DB011896ED91FC911997882335
S1130F3031F00995892B89F30FEF1FEFEECF8AE08B
S1130F400995892B11F4C80102C08FEF9FEFDF913F
S1130F50CF911F910F910895AEE0B0E0E2EBF7E07E
S1130F600C94C60B0D891E8986E08C831A83098331
S1130F708FEF9FE79E838D83AE01475E5F4F6F893E
S1130F80788DCE0101960E94CE07EF81F885E00F9F
S1130F90F11F10822E96E4E00C94E20BACE0B0E07A
S1130FA0E4EDF7E00C94B80B7C016B018A01FC01C1
S1130FB017821682838181FFBDC1CE0101964C0147
S1130FC0F7019381F60193FD859193FF81916F0160
S1130FD0882309F4ABC1853239F493FD859193FFDD
S1130FE081916F01853229F4B70190E00E940B0BC7
S1130FF0E7CF512C312C20E02032A0F48B3269F061
S113100030F4803259F0833269F420612CC08D327F
S113101039F0803339F4216026C02260246023C073
S1131020286021C027FD27C030ED380F3A3078F40E
S113103026FF06C0FAE05F9E300D1124532E13C024
S11310408AE0389E300D1124332E20620CC08E327B
S113105021F426FD6BC1206406C08C3611F420688F
S113106002C0883641F4F60193FD859193FF819186
S11310706F018111C1CF982F9F7D9554933028F42F
S11310800C5F1F4FFFE3F9830DC0833631F08337C4
S113109071F0833509F05BC022C0F8018081898337
S11310A00E5F1F4F44244394512C540115C0380142
S11310B0F2E06F0E711CF801A080B18026FF03C01E
S11310C0652D70E002C06FEF7FEFC5012C870E9491
S11310D0000B2C0183012C852F77222E17C0380199
S11310E0F2E06F0E711CF801A080B18026FF03C0EE
S11310F0652D70E002C06FEF7FEFC5012C870E9461
S1131100EE0A2C012C852068222E830123FC1BC0AF
S1131110832D90E048165906B0F4B70180E290E0C0
S11311200E940B0B3A94F4CFF50127FC859127FE1E
S113113081915F01B70190E00E940B0B31103A944A
S1131140F1E04F1A51084114510471F7E5C0843697
S113115011F0893639F5F80127FF07C060817181E4
S1131160828193810C5F1F4F08C060817181882741
S113117077FD8095982F0E5F1F4F2F76B22E97FF25
S113118009C090958095709561957F4F8F4F9F4FC3
S11311902068B22E2AE030E0A4010E943D0BA82E64
S11311A0A81844C0853729F42F7EB22E2AE030E0F7
S11311B025C0F22FF97FBF2E8F36C1F018F4883581
S11311C079F0B4C0803719F0883721F0AFC02F2FE1
S11311D02061B22EB4FE0DC08B2D8460B82E09C0E0
S11311E024FF0AC09F2F9660B92E06C028E030E085
S11311F005C020E130E002C020E132E0F801B7FE92
S113120007C060817181828193810C5F1F4F06C08A
S11312106081718180E090E00E5F1F4FA4010E9405
S11312203D0BA82EA818FB2DFF77BF2EB6FE0BC0D2
S11312302B2D2E7FA51450F4B4FE0AC0B2FC08C0B6
S11312402B2D2E7E05C07A2C2B2D03C07A2C01C0A9
S1131250752C24FF0DC0FE01EA0DF11D8081803341
S113126011F4297E09C022FF06C07394739404C04C
S1131270822F867809F0739423FD13C020FF06C0E3
S11312805A2C731418F4530C5718732C731468F4F1
S1131290B70180E290E02C870E940B0B73942C859D
S11312A0F5CF731410F4371801C0312C24FF12C089
S11312B0B70180E390E02C870E940B0B2C8522FF62
S11312C017C021FF03C088E590E002C088E790E0E2
S11312D0B7010CC0822F867859F021FD02C080E24C
S11312E001C08BE227FD8DE2B70190E00E940B0B59
S11312F0A51438F4B70180E390E00E940B0B5A94D4
S1131300F7CFAA94F401EA0DF11D8081B70190E0B2
S11313100E940B0BA110F5CF332009F451CEB70175
S113132080E290E00E940B0B3A94F6CFF70186819D
S1131330978102C08FEF9FEF2C96E2E10C94D40BBF
S1131340A8E1B0E042E050E00C949D0B0E94AB0B8E
S1131350272F0C94AC0B0F931F93CF93DF93869F8F
S11313608001879F100D969F100D1124C8010E94C3
S1131370C709EC01009729F0A80160E070E00E9421
S1131380F90ACE01DF91CF911F910F910895CF9368
S1131390DF938230910510F482E090E0E0919A02AC
S11313A0F0919B0220E030E0A0E0B0E0309739F10A
S11313B04081518148175907B8F04817590771F40B
S11313C082819381109729F013969C938E931297A0
S11313D02CC090939B0280939A0227C0211531055B
S11313E031F04217530718F0A901DB0101C0EF01E6
S11313F09A01BD01DF010280F381E02DD7CF2115D1
S11314003105F9F0281B390B2430310580F48A8129
S11314109B816115710521F0FB019383828304C0D4
S113142090939B0280939A02FE01329644C0FE017F
S1131430E20FF31F8193919322503109398328835A
S11314403AC02091980230919902232B41F42091C3
S11314500201309103013093990220939802209164
S11314600001309101012115310541F42DB73EB73A
S11314704091040150910501241B350BE091980221
S1131480F0919902E217F307A0F42E1B3F0B2817E3
S1131490390778F0AC014E5F5F4F2417350748F0E9
S11314A04E0F5F1F5093990240939802819391933A
S11314B002C0E0E0F0E0CF01DF91CF910895CF9337
S11314C0DF93009709F487C0FC01329713821282DC
S11314D0C0919A02D0919B02209781F4208131819E
S11314E0280F391F809198029091990282179307CF
S11314F079F5F0939902E09398026DC0DE0120E043
S113150030E0AE17BF0750F412964D915C911397DB
S11315109D014115510509F1DA01F3CFB383A2838B
S113152040815181840F951F8A179B0771F48D9117
S11315309C911197840F951F029691838083129634
S11315408D919C911397938382832115310529F4FE
S1131550F0939B02E0939A023EC0D9011396FC9348
S1131560EE9312974D915D91A40FB51FEA17FB07F7
S113157079F480819181840F951F0296D901119687
S11315809C938E938281938113969C938E9312974E
S1131590E0E0F0E08A819B81009719F0FE01EC0104
S11315A0F9CFCE01029628813981820F931F2091B1
S11315B09802309199022817390769F4309729F471
S11315C010929B0210929A0202C013821282D0934C
S11315D09902C0939802DF91CF910895FC01059080
S11315E0615070400110D8F7809590958E0F9F1F21
S11315F00895DC0101C06D9341505040E0F7089517
S1131600FC016150704001900110D8F780959095CD
S11316108E0F9F1F08950F931F93CF93DF93182F5F
S1131620092FEB018B8181FD03C08FEF9FEF20C059
S113163082FF10C04E815F812C813D814217530788
S11316407CF4E881F9819F012F5F3F4F3983288320
S1131650108306C0E885F985812F0995892B29F720
S11316602E813F812F5F3F4F3F832E83812F902F09
S1131670DF91CF911F910F910895FA01AA27283085
S113168051F1203181F1E8946F936E7F6E5F7F4F4B
S11316908F4F9F4FAF4FB1E03ED0B4E03CD0670FC7
S11316A0781F891F9A1FA11D680F791F8A1F911D1A
S11316B0A11D6A0F711D811D911DA11D20D009F46A
S11316C068943F912AE0269F11243019305D3193AC
S11316D0DEF6CF010895462F4770405D4193B3E095
S11316E00FD0C9F7F6CF462F4F70405D4A3318F03C
S11316F0495D31FD4052419302D0A9F7EACFB4E0ED
S1131700A6959795879577956795BA95C9F70097A4
S11317106105710508959B01AC010A2E0694579545
S1131720479537952795BA95C9F7620F731F841F9C
S1131730951FA01D0895DC01CB01FC01E199FECFAA
S113174006C0FFBBEEBBE09A31960DB20D9241503C
S11317505040B8F70895262FE199FECF9FBB8EBB6A
S11317602DBB0FB6F894E29AE19A0FBE0196089544
S11317702F923F924F925F926F927F928F929F929D
S1131780AF92BF92CF92DF92EF92FF920F931F938B
S1131790CF93DF93CDB7DEB7CA1BDB0B0FB6F8943C
S11317A0DEBF0FBECDBF09942A88398848885F847C
S11317B06E847D848C849B84AA84B984C884DF80ED
S11317C0EE80FD800C811B81AA81B981CE0FD11DD1
S11317D00FB6F894DEBF0FBECDBFED010895F894A7
S10517E0FFCF35
S11317E200009C0220007401303030303030300070
S11317F2730100000000000000006A023030303043
S11318023030303001004D61696E204D656E7500D7
S11318120000000000040000000000B2018F016C0F
S11318220149010000000000004465627567000080
S113183200000000000000000000000000000000A2
S113184200000000000000000000000053657474F2
S1131852696E6773000000000000000200000000CF
S113186200F801D50100000000000000000000485B
S113187269676873636F726573000000000000009B
S11318820000000000000000000000000000000052
S11318920000506C61792067616D650000000000F2
S11318A20000000000000000000000000000000032
S11318B2000000000052657365742053636F726503
S11318C2730000000000000000000000000000009F
S11318D2000000000000000043616C6962726174E0
S11318E2650000000000000000000000000000008D
S11318F200000000000000000000006D0130300014
S113190200000000004869676873636F72657300C2
S113191225642E20256400303030303030303030B1
S11319223030303030303030002020202020474109
S11319324D45002020202053636F72653A20002019
S11319422020202020202564004D4350323531359B
S1131952206973206E6F7420696E20636F6E6669EE
S10D196267206D6F646521002D00FD
S9030000FC
