:100000000C94B4010C94D1010C94D1010C94D10145
:100010000C94D1010C94D1010C94D1010C94D10118
:100020000C94D1010C94D1010C94D1010C94D10108
:100030000C94D1010C94D1010C94D1010C94D101F8
:100040000C94D1010C94D1010C94D1010C94D101E8
:100050000C94D1010C94D1010C94D1010C94D101D8
:100060000C94D1010C94D1010C94D1010C94D101C8
:10007000000000000000000000065F5F06000000B6
:100080000007070007070000147F7F147F7F14001C
:10009000242E6B6B3A120000466630180C66620024
:1000A000307A4F5D377A48000407030000000000F3
:1000B000001C3E63410000000041633E1C00000044
:1000C000082A3E1C1C3E2A0808083E3E080800007C
:1000D00000A0E06000000000080808080808000010
:1000E00000006060000000006030180C0603010092
:1000F0003E7F594D7F3E000042427F7F40400000DE
:10010000627359496F660000226349497F360000D7
:10011000181C16137F7F1000276745457D390000A6
:100120003C7E4B4979300000036371190F070000D2
:10013000367F49497F360000064F49693F1E00005F
:1001400000006C6C0000000000A0EC6C00000000DF
:10015000081C366341000000141414141414000029
:10016000004163361C080000020351590F060000CD
:100170003E7F415D5D1F1E007C7E13137E7C000070
:10018000417F7F49497F36001C3E63414163220025
:10019000417F7F41637F1C00417F7F495D41630058
:1001A000417F7F491D0103001C3E63415173720072
:1001B0007F7F08087F7F000000417F7F41000000B3
:1001C000307040417F3F0100417F7F081C77630012
:1001D000417F7F41406070007F7F060C067F7F007B
:1001E0007F7F060C187F7F001C3E6341633E1C002E
:1001F000417F7F49090F06001E3F21717F5E00008D
:10020000417F7F19396F460026674D597B320000C8
:1002100003417F7F410300007F7F40407F7F0000DC
:100220001F3F60603F1F00007F7F3018307F7F00DE
:1002300063771C081C776300074F78784F0700002E
:100240006773594D47637100007F7F414100000093
:100250000103060C183060000041417F7F00000060
:10026000080C0603060C0800808080808080808057
:100270000000030704000000207454543C78400040
:10028000413F7F44447C3800387C44446C28000063
:10029000307848493F7F4000387C54545C18000057
:1002A000487E7F490302000098BCA4A4F87C0400A7
:1002B000417F7F08047C780000447D7D4000000081
:1002C00040C484FD7D000000417F7F10386C4400F5
:1002D00000417F7F400000007C7C0C180C7C780083
:1002E0007C7C04047C780000387C44447C3800002A
:1002F00084FCF8A4243C1800183C24A4F8FC8400D6
:10030000447C78441C180000485C54547424000059
:1003100000043E7F442400003C7C40403C7C400084
:100320001C3C60603C1C00003C7C6030607C3C00FD
:10033000446C3810386C44009CBCA0A0FC7C0000CD
:100340004C64745C4C64000008083E774141000036
:1003500000000077770000004141773E0808000068
:10036000020301030203010011241FBECFEFD4E0FA
:10037000DEBFCDBF12E0A0E0B1E0E8EDF4E102C0E5
:1003800005900D92A431B107D9F722E0A4E1B2E0C3
:1003900001C01D92A832B207E1F70E9460020C94DE
:1003A0006A0A0C9400008C5F8093001481E48A95A3
:1003B000F1F700C080910014089580911602909189
:1003C0001702892BC9F483E090E00E94D30185369F
:1003D00070F186E091E00E94840281E090E09093C9
:1003E0001702809316028CEE91E09F938F930E94E8
:1003F00030060F900F90089580911402909115028D
:1004000001968A3191052CF4909315028093140281
:100410000895109215021092140283E090E00E9459
:10042000D301843620F41092170210921602089518
:10043000CF92DF92EF92FF920F931F93CF93DF93B0
:10044000CDB7DEB72A970FB6F894DEBF0FBECDBF8B
:10045000C12CD12C0F2EF2E1EF2EF1E0FF2EF02D6A
:1004600003E111E00E949B03F7016083F8018083A0
:1004700080E191E00E948402CE0101960E94DC029C
:10048000019731F48981873619F4FFEFCF1ADF0A1B
:100490000E94DD0182E090E00E94D301853610F3D6
:1004A000C6012A960FB6F894DEBF0FBECDBFDF910E
:1004B000CF911F910F91FF90EF90DF90CF90089513
:1004C0008FE190E00E94B00585B7806885BF0E94EB
:1004D00098030E944E050E9472020E94F90480E077
:1004E00090E008950E945A0340E06FEF80E00E9480
:1004F000270340E060EE81E00E94270340E060EEC9
:100500008FE00E94270308951F93CF93DF93EC01A0
:10051000688181E30E94080360E082E30E9408038F
:10052000698185E30E9408038981882369F010E0CE
:10053000FE01E10FF11D628186E3810F0E94080335
:100540001F5F89811817A0F381E890E00E941C03C7
:10055000DF91CF911F910895EF92FF920F931F9318
:10056000CF93DF938C01E62E81E6860F0E94F60280
:10057000F801808385E68E0D0E94F602F8018183E2
:10058000882399F0C0E0D0E0F6E6EF0EFC2E8C2F29
:100590008E0D0E94F602F801EC0FF11D8283F39498
:1005A0002196F8018181F81688F3DF91CF911F9190
:1005B0000F91FF90EF900895CF93DF93EC018CE2C1
:1005C0000E94F60280FF0DC060E070E0CE010E9444
:1005D000AC0240E061E08CE20E94270381E090E001
:1005E00002C080E090E0DF91CF910895CF93C82FB3
:1005F0000E94950583E00E9499058C2F0E94990521
:100600000E949D05C82F0E9497058C2FCF910895B9
:10061000CF93DF93D82FC62F0E94950582E00E94CA
:1006200099058D2F0E9499058C2F0E9499050E9493
:100630009705DF91CF910895CF93C82F0E9495051C
:100640008C2F0E9499050E949705CF9108951F93C2
:10065000CF93DF93182FD62FC42F0E94950585E0E6
:100660000E949905812F0E9499058D2F0E9499055E
:100670008C2F0E9499050E949705DF91CF911F91C1
:1006800008950E94950580EC0E9499050E949705A7
:100690000895CF930E94950583E00E9499058EE00E
:1006A0000E9499050E949D05C82F0E9497058C2FD6
:1006B000CF9108950E94A2050E9441030E94490320
:1006C000807E803821F081EF91E00E9444060895F9
:1006D000EF92FF920F931F93CF93DF93CAE0D0E086
:1006E00000E010E0E12CF12C81E090E00E94D301C9
:1006F000E80EF11C80E090E00E94D301080F111D6C
:100700002197209789F72AE030E0C701B9010E94BC
:10071000BD0560931902C801B9010E94BD0560932F
:100720001802DF91CF911F910F91FF90EF900895E4
:100730000E9468030895CF93DF9381E090E00E94C8
:10074000D30190E020911902821B910944E6489F51
:100750009001499F300D1124332314F421583F4F49
:10076000E901CC0FCD2FCC1FDD0B80E090E00E9483
:10077000D30190E020911802821B910944E6489F22
:100780009001499F300D1124332314F421583F4F19
:10079000BE01C901880F892F881F990BDF91CF9166
:1007A00008950E949B036734710564F46A3B4FEF20
:1007B000740754F0873491054CF48A3B9F4F44F4FE
:1007C00083E0089581E0089580E0089582E008952F
:1007D00084E00895833041F580911C0290911D02C0
:1007E000AC014F5F5F4FE0911A02F0911B02278529
:1007F000308924173507B4F160E00E947B0580E161
:1008000092E00E943B0580911C0290911D0201968E
:1008100090931D0280931C0260E00E947B0582E1A0
:1008200092E00E943B05089580911C0290911D0268
:1008300082309105BCF060E00E947B0580E192E08F
:100840000E943B0580911C0290911D02019790939C
:100850001D0280931C0260E00E947B0582E192E011
:100860000E943B050895EF92FF920F931F93CF9341
:10087000DF937C0181E090E090931D0280931C0245
:100880000E94880560E080E00E947B05C7010E940D
:100890003B0560E080911C020E947B0582E192E0B2
:1008A0000E943B05F7018785908901960297C4F065
:1008B00087010B5E1F4FC1E0D0E068E08C2F0E94E3
:1008C0007B05F801819191918F010E943B05219652
:1008D000F701278530892F5F3F4FC217D3076CF38D
:1008E000DF91CF911F910F91FF90EF9008950F939B
:1008F0001F93CF93DF938C01EB010E94D103F8018A
:1009000080839881891709F457C0813041F0F0F154
:10091000823009F44AC0833009F44BC04DC0809145
:100920001A0290911B02E0911C02F0911D02319776
:10093000EE0FFF1FE80FF91F85899689FC012081C2
:10094000203529F02335C1F02334B1F51CC0909334
:100950001B0280931A020E9433040E941802E09145
:100960001A02F0911B028389948990931B02809351
:100970001A020E94330420C090931B0280931A0233
:100980000E94330419C00E94680316C0E0911A0245
:10099000F0911B0283899489009771F090931B0258
:1009A00080931A020E94330407C082E00E94EA0387
:1009B00003C083E00E94EA03F80180818883DF910D
:1009C000CF911F910F910895CF93DF9300D0CDB7B2
:1009D000DEB784E08A83BE016E5F7F4FCE01019651
:1009E0000E9477048FEF9FE20197F1F700C00000AB
:1009F000F2CF80E691E09093DD018093DC018AE103
:100A000091E09093BA018093B901909397018093FC
:100A10009601909374018093730190931B028093CD
:100A20001A0281E090E090931D0280931C028AE1FB
:100A300091E00E9433040E94E404CF93DF93EC0121
:100A400020E030E0A0E0B2E1E881F0E0B097EE0F06
:100A5000FF1FEE0FFF1FEE0FFF1FE20FF31FE05906
:100A6000FF4FE491EC932F5F3F4F2830310561F742
:100A7000DF91CF910895CF93DF93FC012081222352
:100A800051F0EC0121960E941D05CE012196FC013A
:100A900020812111F8CFDF91CF910895E0E0F0E1BE
:100AA0008EEA808381EA80838AED808382E180837D
:100AB00088EC808388EA80838FE3808385ED808360
:100AC00080E8808381E8808380E5808389ED80836E
:100AD00081E2808380E2808310828BED808380E3DB
:100AE00080838DEA8083108284EA808386EA808313
:100AF0008FEA80830895E0E0F0E191E290836083E3
:100B00009FE7908392E29083808387E080830895BB
:100B100060E080E00E947B0580E094E0E0E0F2E1AC
:100B2000108201970097E1F70895C4980895C49A38
:100B300008958FB9779BFECF089580E00E949905B4
:100B40008FB1089587B3806B87BB81E58DB9089518
:100B50005D9BFECF8CB908955F9BFECF8CB108954D
:100B600090BD89B988E18AB98EE880BD6CEA75E0EC
:100B700088EA95E00E94E505089597FB072E16F494
:100B8000009407D077FD09D00E94D10507FC05D05D
:100B90003EF4909581959F4F0895709561957F4F94
:100BA0000895AA1BBB1B51E107C0AA1FBB1FA617B4
:100BB000B70710F0A61BB70B881F991F5A95A9F706
:100BC00080959095BC01CD0108950F931F93CF930D
:100BD000DF93EC018B01009731F46115710519F475
:100BE00080E090E038C06EE070E081E090E00E942C
:100BF0004308FC010097A1F380E8838301151105E8
:100C000071F01387028781E8838380911E0290919F
:100C10001F02892B21F4F0931F02E0931E022097FC
:100C2000C9F0D187C087838182608383809120024D
:100C300090912102892B71F4F0932102E09320021C
:100C40008091220290912302892B21F4F0932302B8
:100C5000E0932202CF01DF91CF911F910F91089570
:100C6000A0E0B0E0E6E3F6E00C94430AFE0135961E
:100C700061917191AF0180912002909121020E94B7
:100C80007106E2E00C945F0A0F931F93CF93DF93FA
:100C9000E0912002F0912102238121FF1BC0EC0191
:100CA00000E010E089916091200270912102DB0147
:100CB0001896ED91FC911997882331F00995892BAD
:100CC00089F30FEF1FEFEECF8AE00995892B11F41E
:100CD000C80102C08FEF9FEFDF91CF911F910F915D
:100CE0000895ACE0B0E0E7E7F6E00C94330A7C014D
:100CF0006B018A01FC0117821682838181FFBDC1CD
:100D0000CE0101964C01F7019381F60193FD859187
:100D100093FF81916F01882309F4ABC1853239F4C7
:100D200093FD859193FF81916F01853229F4B7017D
:100D300090E00E94A309E7CF512C312C20E0203213
:100D4000A0F48B3269F030F4803259F0833269F4C8
:100D500020612CC08D3239F0803339F4216026C0F7
:100D60002260246023C0286021C027FD27C030ED09
:100D7000380F3A3078F426FF06C0FAE05F9E300D57
:100D80001124532E13C08AE0389E300D1124332EC7
:100D900020620CC08E3221F426FD6BC1206406C097
:100DA0008C3611F4206802C0883641F4F60193FDB8
:100DB000859193FF81916F018111C1CF982F9F7D04
:100DC0009554933028F40C5F1F4FFFE3F9830DC057
:100DD000833631F0833771F0833509F05BC022C070
:100DE000F801808189830E5F1F4F44244394512C66
:100DF000540115C03801F2E06F0E711CF801A0809B
:100E0000B18026FF03C0652D70E002C06FEF7FEF59
:100E1000C5012C870E9498092C0183012C852F770E
:100E2000222E17C03801F2E06F0E711CF801A0806D
:100E3000B18026FF03C0652D70E002C06FEF7FEF29
:100E4000C5012C870E9486092C012C852068222E42
:100E5000830123FC1BC0832D90E048165906B0F493
:100E6000B70180E290E00E94A3093A94F4CFF50123
:100E700027FC859127FE81915F01B70190E00E94D8
:100E8000A30931103A94F1E04F1A5108411451046A
:100E900071F7E5C0843611F0893639F5F80127FF7E
:100EA00007C060817181828193810C5F1F4F08C0F0
:100EB00060817181882777FD8095982F0E5F1F4F85
:100EC0002F76B22E97FF09C0909580957095619509
:100ED0007F4F8F4F9F4F2068B22E2AE030E0A40151
:100EE0000E94D509A82EA81844C0853729F42F7E62
:100EF000B22E2AE030E025C0F22FF97FBF2E8F36C8
:100F0000C1F018F4883579F0B4C0803719F088370B
:100F100021F0AFC02F2F2061B22EB4FE0DC08B2D5B
:100F20008460B82E09C024FF0AC09F2F9660B92E96
:100F300006C028E030E005C020E130E002C020E13A
:100F400032E0F801B7FE07C0608171818281938130
:100F50000C5F1F4F06C06081718180E090E00E5FE2
:100F60001F4FA4010E94D509A82EA818FB2DFF77BA
:100F7000BF2EB6FE0BC02B2D2E7FA51450F4B4FE51
:100F80000AC0B2FC08C02B2D2E7E05C07A2C2B2D5A
:100F900003C07A2C01C0752C24FF0DC0FE01EA0DA0
:100FA000F11D8081803311F4297E09C022FF06C023
:100FB0007394739404C0822F867809F0739423FD90
:100FC00013C020FF06C05A2C731418F4530C571882
:100FD000732C731468F4B70180E290E02C870E94B0
:100FE000A30973942C85F5CF731410F4371801C03E
:100FF000312C24FF12C0B70180E390E02C870E94BF
:10100000A3092C8522FF17C021FF03C088E590E0CB
:1010100002C088E790E0B7010CC0822F867859F0B3
:1010200021FD02C080E201C08BE227FD8DE2B70105
:1010300090E00E94A309A51438F4B70180E390E082
:101040000E94A3095A94F7CFAA94F401EA0DF11D66
:101050008081B70190E00E94A309A110F5CF332051
:1010600009F451CEB70180E290E00E94A3093A94BE
:10107000F6CFF7018681978102C08FEF9FEF2C9604
:10108000E2E10C944F0A0F931F93CF93DF93869F57
:101090008001879F100D969F100D1124C8010E949A
:1010A0005F08EC01009729F0A80160E070E00E9461
:1010B0009109CE01DF91CF911F910F910895CF93A8
:1010C000DF938230910510F482E090E0E0912602F7
:1010D000F091270220E030E0A0E0B0E0309739F155
:1010E0004081518148175907B8F04817590771F4E2
:1010F00082819381109729F013969C938E93129777
:101100002CC0909327028093260227C02115310519
:1011100031F04217530718F0A901DB0101C0EF01BC
:101120009A01BD01DF010280F381E02DD7CF2115A7
:101130003105F9F0281B390B2430310580F48A8100
:101140009B816115710521F0FB019383828304C0AB
:101150009093270280932602FE01329644C0FE013E
:10116000E20FF31F81939193225031093983288331
:101170003AC02091240230912502232B41F4209182
:101180000201309103013093250220932402209123
:101190000001309101012115310541F42DB73EB711
:1011A0004091040150910501241B350BE09124026C
:1011B000F0912502E217F307A0F42E1B3F0B28172E
:1011C000390778F0AC014E5F5F4F2417350748F0C0
:1011D0004E0F5F1F509325024093240281939193F9
:1011E00002C0E0E0F0E0CF01DF91CF910895CF930E
:1011F000DF93009709F487C0FC01329713821282B3
:10120000C0912602D0912702209781F4208131815C
:10121000280F391F8091240290912502821793078D
:1012200079F5F0932502E09324026DC0DE0120E001
:1012300030E0AE17BF0750F412964D915C911397B2
:101240009D014115510509F1DA01F3CFB383A28362
:1012500040815181840F951F8A179B0771F48D91EE
:101260009C911197840F951F02969183808312960B
:101270008D919C911397938382832115310529F4D5
:10128000F0932702E09326023EC0D9011396FC9307
:10129000EE9312974D915D91A40FB51FEA17FB07CE
:1012A00079F480819181840F951F0296D90111965E
:1012B0009C938E938281938113969C938E93129725
:1012C000E0E0F0E08A819B81009719F0FE01EC01DB
:1012D000F9CFCE01029628813981820F931F209188
:1012E0002402309125022817390769F4309729F430
:1012F000109227021092260202C013821282D0930B
:101300002502C0932402DF91CF910895FC0105903E
:10131000615070400110D8F7809590958E0F9F1FF7
:101320000895DC0101C06D9341505040E0F70895ED
:10133000FC016150704001900110D8F780959095A4
:101340008E0F9F1F08950F931F93CF93DF93182F36
:10135000092FEB018B8181FD03C08FEF9FEF20C030
:1013600082FF10C04E815F812C813D81421753075F
:101370007CF4E881F9819F012F5F3F4F39832883F7
:10138000108306C0E885F985812F0995892B29F7F7
:101390002E813F812F5F3F4F3F832E83812F902FE0
:1013A000DF91CF911F910F910895FA01AA2728305C
:1013B00051F1203181F1E8946F936E7F6E5F7F4F22
:1013C0008F4F9F4FAF4FB1E03ED0B4E03CD0670F9E
:1013D000781F891F9A1FA11D680F791F8A1F911DF1
:1013E000A11D6A0F711D811D911DA11D20D009F441
:1013F00068943F912AE0269F11243019305D319383
:10140000DEF6CF010895462F4770405D4193B3E06B
:101410000FD0C9F7F6CF462F4F70405D4A3318F012
:10142000495D31FD4052419302D0A9F7EACFB4E0C3
:10143000A6959795879577956795BA95C9F700977B
:101440006105710508959B01AC010A2E069457951C
:10145000479537952795BA95C9F7620F731F841F73
:10146000951FA01D08952F923F924F925F926F9209
:101470007F928F929F92AF92BF92CF92DF92EF9224
:10148000FF920F931F93CF93DF93CDB7DEB7CA1BA5
:10149000DB0B0FB6F894DEBF0FBECDBF09942A88D0
:1014A000398848885F846E847D848C849B84AA8478
:1014B000B984C884DF80EE80FD800C811B81AA8105
:1014C000B981CE0FD11D0FB6F894DEBF0FBECDBFD0
:0814D000ED010895F894FFCF2F
:1014D8000000280220007301000000000000000046
:1014E8006A0230303030303030304D61696E204D16
:1014F800656E75000000000000040000000000A6F2
:1015080001830160013D01000000000000446562A4
:1015180075670000000000000000000000000000E7
:1015280000000000000000000000000000000000B3
:1015380053657474696E6773000000000000000151
:101548000000000000C901000000000000000000C9
:101558000000004869676873636F72657300000074
:101568000000000000000000000000000000000073
:10157800000000000000506C61792067616D650013
:101588000000000000000000000000000000000053
:1015980000000000000000000043616C6962726195
:1015A800746500000000000000000000000000005A
:1015B80000000000000000000000000053484F54E5
:1015C800004D435032353135206973206E6F7420D9
:1015D800696E20636F6E666967206D6F64652100B0
:0415E80020002D00B2
:00000001FF
