S00E00006E6F64655F312E73726563E0
S11300000C94B4010C94D1010C94D1010C94D10141
S11300100C94D1010C94D1010C94D1010C94D10114
S11300200C94D1010C94D1010C94D1010C94D10104
S11300300C94D1010C94D1010C94D1010C94D101F4
S11300400C94D1010C94D1010C94D1010C94D101E4
S11300500C94D1010C94D1010C94D1010C94D101D4
S11300600C94D1010C94D1010C94D1010C94D101C4
S1130070000000000000000000065F5F06000000B2
S11300800007070007070000147F7F147F7F140018
S1130090242E6B6B3A120000466630180C66620020
S11300A0307A4F5D377A48000407030000000000EF
S11300B0001C3E63410000000041633E1C00000040
S11300C0082A3E1C1C3E2A0808083E3E0808000078
S11300D000A0E0600000000008080808080800000C
S11300E000006060000000006030180C060301008E
S11300F03E7F594D7F3E000042427F7F40400000DA
S1130100627359496F660000226349497F360000D3
S1130110181C16137F7F1000276745457D390000A2
S11301203C7E4B4979300000036371190F070000CE
S1130130367F49497F360000064F49693F1E00005B
S113014000006C6C0000000000A0EC6C00000000DB
S1130150081C366341000000141414141414000025
S1130160004163361C080000020351590F060000C9
S11301703E7F415D5D1F1E007C7E13137E7C00006C
S1130180417F7F49497F36001C3E63414163220021
S1130190417F7F41637F1C00417F7F495D41630054
S11301A0417F7F491D0103001C3E6341517372006E
S11301B07F7F08087F7F000000417F7F41000000AF
S11301C0307040417F3F0100417F7F081C7763000E
S11301D0417F7F41406070007F7F060C067F7F0077
S11301E07F7F060C187F7F001C3E6341633E1C002A
S11301F0417F7F49090F06001E3F21717F5E000089
S1130200417F7F19396F460026674D597B320000C4
S113021003417F7F410300007F7F40407F7F0000D8
S11302201F3F60603F1F00007F7F3018307F7F00DA
S113023063771C081C776300074F78784F0700002A
S11302406773594D47637100007F7F41410000008F
S11302500103060C183060000041417F7F0000005C
S1130260080C0603060C0800808080808080808053
S11302700000030704000000207454543C7840003C
S1130280413F7F44447C3800387C44446C2800005F
S1130290307848493F7F4000387C54545C18000053
S11302A0487E7F490302000098BCA4A4F87C0400A3
S11302B0417F7F08047C780000447D7D400000007D
S11302C040C484FD7D000000417F7F10386C4400F1
S11302D000417F7F400000007C7C0C180C7C78007F
S11302E07C7C04047C780000387C44447C38000026
S11302F084FCF8A4243C1800183C24A4F8FC8400D2
S1130300447C78441C180000485C54547424000055
S113031000043E7F442400003C7C40403C7C400080
S11303201C3C60603C1C00003C7C6030607C3C00F9
S1130330446C3810386C44009CBCA0A0FC7C0000C9
S11303404C64745C4C64000008083E774141000032
S113035000000077770000004141773E0808000064
S1130360020301030203010011241FBECFEFD4E0F6
S1130370DEBFCDBF12E0A0E0B1E0ECE7FDE002C0DB
S113038005900D92A630B107D9F722E0A6E0B2E0BD
S113039001C01D92A631B207E1F70E94DD010C9461
S11303A0BC060C9400008C5F8093001481E48A9551
S11303B0F1F700C08091001408958FE190E00E944D
S11303C0C50485B7806885BF0E94B9020E94630492
S11303D00E94EF010E940E0480E090E008950E94C4
S11303E07B0240E06FEF80E00E94480240E060EE54
S11303F081E00E94480240E060EE8FE00E944802E3
S113040008951F93CF93DF93EC01688181E30E94E9
S1130410290260E082E30E942902698185E30E9447
S113042029028981882369F010E0FE01E10FF11DA2
S1130430628186E3810F0E9429021F5F8981181758
S1130440A0F381E890E00E943D02DF91CF911F91DB
S11304500895CF93DF93D82FC62F0E94AA0482E079
S11304600E94AE048D2F0E94AE048C2F0E94AE0415
S11304700E94AC04DF91CF910895CF93C82F0E94BE
S1130480AA048C2F0E94AE040E94AC04CF9108955C
S11304901F93CF93DF93182FD62FC42F0E94AA0443
S11304A085E00E94AE04812F0E94AE048D2F0E942D
S11304B0AE048C2F0E94AE040E94AC04DF91CF9155
S11304C01F9108950E94AA0480EC0E94AE040E9429
S11304D0AC040895CF930E94AA0483E00E94AE0462
S11304E08EE00E94AE040E94B204C82F0E94AC04A5
S11304F08C2FCF9108950E94B7040E9462020E943B
S11305006A02807E803821F082EE91E00E944505E7
S11305100895EF92FF920F931F93CF93DF93CAE056
S1130520D0E000E010E0E12CF12C81E090E00E94AA
S1130530D301E80EF11C80E090E00E94D301080F83
S1130540111D2197209789F72AE030E0C701B901EE
S11305500E94D20460930702C801B9010E94D20428
S113056060930602DF91CF911F910F91FF90EF905E
S113057008950E9489020895CF93DF9381E090E06B
S11305800E94D30190E020910702821B910944E666
S1130590489F9001499F300D1124332314F42158AE
S11305A03F4FE901CC0FCD2FCC1FDD0B80E090E055
S11305B00E94D30190E020910602821B910944E637
S11305C0489F9001499F300D1124332314F421587E
S11305D03F4FBE01C901880F892F881F990BDF91F6
S11305E0CF9108950E94BC026734710564F46A3B9C
S11305F04FEF740754F0873491054CF48A3B9F4FB6
S113060044F483E0089581E0089580E0089582E051
S1130610089584E00895833041F580910A02909111
S11306200B02AC014F5F5F4FE0910802F0910902A9
S11306302785308924173507B4F160E00E949004BF
S113064081E092E00E94500480910A0290910B0292
S1130650019690930B0280930A0260E00E9490043A
S113066083E092E00E945004089580910A029091E0
S11306700B0282309105BCF060E00E94900481E09E
S113068092E00E94500480910A0290910B0201971B
S113069090930B0280930A0260E00E94900483E02E
S11306A092E00E9450040895EF92FF920F931F93DB
S11306B0CF93DF937C010E949D0460E080E00E9460
S11306C09004C7010E94500460E080910A020E94D5
S11306D0900483E092E00E945004F701878590899A
S11306E001960297C4F087010B5E1F4FC1E0D0E072
S11306F068E08C2F0E949004F801819191918F0100
S11307000E9450042196F701278530892F5F3F4FBF
S1130710C217D3076CF3DF91CF911F910F91FF9014
S1130720EF9008950F931F93CF93DF938C01EB0108
S11307300E94F202F801808398818917E9F18130DF
S113074031F0F0F0823089F1833099F135C0809135
S11307500A0290910B02039779F5E0910802F09157
S11307600902818D928D909309028093080221E001
S113077030E030930B0220930A020E9454031CC001
S1130780E0910802F0910902838994890097A1F00D
S1130790909309028093080221E030E030930B0229
S11307A020930A020E94540307C082E00E940B03B4
S11307B003C083E00E940B03F80180818883DF91EA
S11307C0CF911F910F910895CF93DF93CDB7DEB7EB
S11307D02C970FB6F894DEBF0FBECDBF84E08A839A
S11307E08AE0E8EDF1E0DE01139601900D928A951E
S11307F0E1F7BE016E5F7F4FCE0101960E94920326
S11308000E94BC026D83CE0103960E9401028FEF09
S11308109FE20197F1F700C00000EBCF8CE491E078
S11308209093C9018093C80186E091E09093A6015A
S11308308093A5019093830180938201909360013A
S113084080935F01909309028093080281E090E015
S113085090930B0280930A0286E091E00E94540375
S11308600E94E403CF93DF93EC0120E030E0A0E0AA
S1130870B2E1E881F0E0B097EE0FFF1FEE0FFF1F2B
S1130880EE0FFF1FE20FF31FE059FF4FE491EC93CB
S11308902F5F3F4F2830310561F7DF91CF910895E5
S11308A0CF93DF93FC012081222351F0EC012196A8
S11308B00E943204CE012196FC0120812111F8CF3F
S11308C0DF91CF910895E0E0F0E18EEA808381EA40
S11308D080838AED808382E1808388EC808388EA48
S11308E080838FE3808385ED808380E8808381E843
S11308F0808380E5808389ED808381E2808380E248
S1130900808310828BED808380E380838DEA8083F3
S1130910108284EA808386EA80838FEA8083089544
S1130920E0E0F0E191E2908360839FE7908392E2BC
S11309309083808387E08083089560E080E00E9454
S1130940900480E094E0E0E0F2E1108201970097E7
S1130950E1F70895C4980895C49A08958FB9779BD0
S1130960FECF089580E00E94AE048FB1089587B34E
S1130970806B87BB81E58DB908955D9BFECF8CB9F3
S113098008955F9BFECF8CB1089590BD89B988E12D
S11309908AB98EE880BD61EC74E08DEB94E00E942E
S11309A0FA04089597FB072E16F4009407D077FDF8
S11309B009D00E94E60407FC05D03EF49095819589
S11309C09F4F0895709561957F4F0895AA1BBB1B97
S11309D051E107C0AA1FBB1FA617B70710F0A61B3B
S11309E0B70B881F991F5A95A9F780959095BC015C
S11309F0CD0108950F931F93CF93DF93EC018B01E7
S1130A00009731F46115710519F480E090E038C065
S1130A106EE070E081E090E00E947205FC010097B6
S1130A20A1F380E883830115110571F01387028710
S1130A3081E8838380910C0290910D02892B21F42B
S1130A40F0930D02E0930C022097C9F0D187C08780
S1130A5083818260838380910E0290910F02892B9F
S1130A6071F4F0930F02E0930E02809110029091C2
S1130A701102892B21F4F0931102E0931002CF01AB
S1130A80DF91CF911F910F9108950F931F93CF93EF
S1130A90DF93E0910E02F0910F02238121FF1BC02E
S1130AA0EC0100E010E0899160910E0270910F0258
S1130AB0DB011896ED91FC911997882331F0099583
S1130AC0892B89F30FEF1FEFEECF8AE00995892B6D
S1130AD011F4C80102C08FEF9FEFDF91CF911F91F6
S1130AE00F9108950F931F93CF93DF93869F8001F7
S1130AF0879F100D969F100D1124C8010E948E052A
S1130B00EC01009729F0A80160E070E00E94B506AE
S1130B10CE01DF91CF911F910F910895CF93DF9371
S1130B208230910510F482E090E0E0911402F0919B
S1130B30150220E030E0A0E0B0E0309739F14081C8
S1130B40518148175907B8F04817590771F4828141
S1130B509381109729F013969C938E9312972CC02F
S1130B60909315028093140227C02115310531F0AA
S1130B704217530718F0A901DB0101C0EF019A01E4
S1130B80BD01DF010280F381E02DD7CF21153105AE
S1130B90F9F0281B390B2430310580F48A819B81BC
S1130BA06115710521F0FB019383828304C0909346
S1130BB0150280931402FE01329644C0FE01E20F36
S1130BC0F31F8193919322503109398328833AC0CA
S1130BD02091120230911302232B41F4209102013F
S1130BE030910301309313022093120220910001EB
S1130BF0309101012115310541F42DB73EB74091E3
S1130C00040150910501241B350BE0911202F0916F
S1130C101302E217F307A0F42E1B3F0B2817390722
S1130C2078F0AC014E5F5F4F2417350748F04E0F44
S1130C305F1F50931302409312028193919302C059
S1130C40E0E0F0E0CF01DF91CF910895CF93DF93FF
S1130C50009709F487C0FC01329713821282C09175
S1130C601402D0911502209781F420813181280F3C
S1130C70391F80911202909113028217930779F51C
S1130C80F0931302E09312026DC0DE0120E030E025
S1130C90AE17BF0750F412964D915C9113979D01C6
S1130CA04115510509F1DA01F3CFB383A2834081E1
S1130CB05181840F951F8A179B0771F48D919C9124
S1130CC01197840F951F02969183808312968D91BC
S1130CD09C911397938382832115310529F4F09312
S1130CE01502E09314023EC0D9011396FC93EE93CF
S1130CF012974D915D91A40FB51FEA17FB0779F484
S1130D0080819181840F951F0296D90111969C933D
S1130D108E938281938113969C938E931297E0E035
S1130D20F0E08A819B81009719F0FE01EC01F9CF74
S1130D30CE01029628813981820F931F20911202DD
S1130D40309113022817390769F4309729F4109267
S1130D5015021092140202C013821282D09313025D
S1130D60C0931202DF91CF910895DC0101C06D930D
S10F0D7041505040E0F70895F894FFCF84
S1130D7C0000160220004D61696E204D656E7500F1
S1130D8C000000000004000000000092016F014C00
S1130D9C0129010000000000004465627567000031
S1130DAC0000000000000000000000000000000033
S1130DBC0000000000000000000000005365747483
S1130DCC696E677300000000000000010000000061
S1130DDC00B5010000000000000000000000004805
S1130DEC69676873636F726573000000000000002C
S1130DFC00000000000000000000000000000000E3
S1130E0C0000506C61792067616D65000000000082
S1130E1C00000000000000000000000000000000C2
S1130E2C000000000043616C69627261746500002B
S1130E3C00000000000000000000000000000000A2
S1130E4C00000000000000006A016A6F7973746985
S1130E5C636B4D435032353135206973206E6F749A
S1130E6C20696E20636F6E666967206D6F646521FF
S1090E7C0020002D00001F
S9030000FC
