:100000000C94B4010C94D1010C94D1010C94D10145
:100010000C94D1010C94D1010C94D1010C94D10118
:100020000C94D1010C94D1010C94D1010C94D10108
:100030000C94D1010C94D1010C94D1010C94D101F8
:100040000C94D1010C94D1010C94D1010C94D101E8
:100050000C94D1010C94D1010C94D1010C94D101D8
:100060000C94D1010C94D1010C94D1010C94D101C8
:10007000000000000000000000065F5F06000000B6
:100080000007070007070000147F7F147F7F14001C
:10009000242E6B6B3A120000466630180C66620024
:1000A000307A4F5D377A48000407030000000000F3
:1000B000001C3E63410000000041633E1C00000044
:1000C000082A3E1C1C3E2A0808083E3E080800007C
:1000D00000A0E06000000000080808080808000010
:1000E00000006060000000006030180C0603010092
:1000F0003E7F594D7F3E000042427F7F40400000DE
:10010000627359496F660000226349497F360000D7
:10011000181C16137F7F1000276745457D390000A6
:100120003C7E4B4979300000036371190F070000D2
:10013000367F49497F360000064F49693F1E00005F
:1001400000006C6C0000000000A0EC6C00000000DF
:10015000081C366341000000141414141414000029
:10016000004163361C080000020351590F060000CD
:100170003E7F415D5D1F1E007C7E13137E7C000070
:10018000417F7F49497F36001C3E63414163220025
:10019000417F7F41637F1C00417F7F495D41630058
:1001A000417F7F491D0103001C3E63415173720072
:1001B0007F7F08087F7F000000417F7F41000000B3
:1001C000307040417F3F0100417F7F081C77630012
:1001D000417F7F41406070007F7F060C067F7F007B
:1001E0007F7F060C187F7F001C3E6341633E1C002E
:1001F000417F7F49090F06001E3F21717F5E00008D
:10020000417F7F19396F460026674D597B320000C8
:1002100003417F7F410300007F7F40407F7F0000DC
:100220001F3F60603F1F00007F7F3018307F7F00DE
:1002300063771C081C776300074F78784F0700002E
:100240006773594D47637100007F7F414100000093
:100250000103060C183060000041417F7F00000060
:10026000080C0603060C0800808080808080808057
:100270000000030704000000207454543C78400040
:10028000413F7F44447C3800387C44446C28000063
:10029000307848493F7F4000387C54545C18000057
:1002A000487E7F490302000098BCA4A4F87C0400A7
:1002B000417F7F08047C780000447D7D4000000081
:1002C00040C484FD7D000000417F7F10386C4400F5
:1002D00000417F7F400000007C7C0C180C7C780083
:1002E0007C7C04047C780000387C44447C3800002A
:1002F00084FCF8A4243C1800183C24A4F8FC8400D6
:10030000447C78441C180000485C54547424000059
:1003100000043E7F442400003C7C40403C7C400084
:100320001C3C60603C1C00003C7C6030607C3C00FD
:10033000446C3810386C44009CBCA0A0FC7C0000CD
:100340004C64745C4C64000008083E774141000036
:1003500000000077770000004141773E0808000068
:10036000020301030203010011241FBECFEFD4E0FA
:10037000DEBFCDBF12E0A0E0B1E0EEEAF7E102C0DF
:1003800005900D92A433B107D9F722E0A4E3B2E0BF
:1003900001C01D92A734B207E1F70E94B4040C9487
:1003A000D50B0C9400008C5F8093001481E48A9537
:1003B000F1F700C0809100140895CF93C82F0E94D8
:1003C000C70283E00E94CB028C2F0E94CB020E94C6
:1003D000CF02C82F0E94C9028C2FCF910895CF93CE
:1003E000DF93D82FC62F0E94C70282E00E94CB0263
:1003F0008D2F0E94CB028C2F0E94CB020E94C9023B
:10040000DF91CF910895CF93C82F0E94C7028C2F00
:100410000E94CB020E94C902CF9108951F93CF93EF
:10042000DF93182FD62FC42F0E94C70285E00E94A9
:10043000CB02812F0E94CB028D2F0E94CB028C2FEA
:100440000E94CB020E94C902DF91CF911F910895B3
:100450000E94C70280EC0E94CB020E94C90208954C
:10046000CF930E94C70283E00E94CB028EE00E94DD
:10047000CB020E94CF02C82F0E94C9028C2FCF91BD
:1004800008950E94D4020E9428020E943002807EB9
:10049000803821F08CEC91E00E9465070895E0E03F
:1004A000F0E18EEA808381EA80838AED808382E1B5
:1004B000808388EC808388EA80838FE3808385ED66
:1004C000808380E8808381E8808380E5808389ED74
:1004D000808381E2808380E2808310828BED808341
:1004E00080E380838DEA8083108284EA808386EAB9
:1004F00080838FEA80830895CF93DF93EC0120E01F
:1005000030E0A0E0B2E1E881F0E0B097EE0FFF1F2D
:10051000EE0FFF1FEE0FFF1FE20FF31FE059FF4F1B
:10052000E491EC932F5F3F4F2830310561F7DF9165
:10053000CF910895CF93DF93FC012081222351F0C6
:10054000EC0121960E947C02CE012196FC012081C3
:100550002111F8CFDF91CF910895E0E0F0E191E231
:10056000908360839FE7908392E29083808387E00B
:100570008083089560E080E00E94AD0280E094E016
:10058000E0E0F2E1108201970097E1F70895C49846
:100590000895C49A08958FB9779BFECF089580E09F
:1005A0000E94CB028FB1089587B3806B87BB81E532
:1005B0008DB908955D9BFECF8CB980E090E00895E1
:1005C0005F9BFECF8CB1089590BD89B988E18AB94F
:1005D0008EE880BD60EE72E08AED92E00E941A071C
:1005E0000895CF93DF93CDB7DEB72A970FB6F8946F
:1005F000DEBF0FBECDBFFE0131968AE0DF011D9246
:100600008A95E9F783E7898381E08A8380913402C0
:1006100090913502892B89F483E090E00E94D30108
:100620008536A8F0CE0101960E94DE0481E090E0BC
:1006300090933502809334020AC083E090E00E94D8
:10064000D301843620F410923502109234022A9697
:100650000FB6F894DEBF0FBECDBFDF91CF910895E6
:10066000EF92FF920F931F93CF93DF930E94BA02F2
:1006700060E080E00E94AD028BEE91E00E949A0261
:10068000C0E0D0E00F2EF6EFEF2EF1E0FF2EF02DC0
:1006900001E012E068E08C2F8E5F0E94AD02CE0177
:1006A000880F991F0E94860921969F938F93DF934D
:1006B000CF93FF92EF921F930F930E949207C8016E
:1006C0000E949A028DB79EB708960FB6F8949EBF07
:1006D0000FBE8DBFC330D105E9F6DF91CF911F91D9
:1006E0000F91FF90EF9008950F931F93CF93DF9397
:1006F000082F192FEB01282F392F488159814217D4
:10070000530798F46A817B8184E090E00E948C0911
:100710006881798182E090E00E948C09602F712FBE
:1007200080E090E00E948C091BC06A817B81621787
:10073000730758F484E090E00E948C09602F712FB9
:1007400082E090E00E948C090BC04C815D814217D1
:10075000530730F4682F792F84E090E00E948C09D1
:10076000DF91CF911F910F9108954F925F926F92F9
:100770007F928F929F92AF92BF92CF92DF92EF9231
:10078000FF920F931F93CF93DF93CDB7DEB76097A0
:100790000FB6F894DEBF0FBECDBF8AE0E2ECF1E009
:1007A000DE01179601900D928A95E1F780E090E0C6
:1007B0000E9486099A83898382E090E00E948609DC
:1007C0009C838B8384E090E00E9486099E838D83C6
:1007D0000E94BA0260E080E00E94AD0281E192E0F6
:1007E0000E949A0260E083E00E94AD028BE192E0F9
:1007F0000E949A0280911A018987CE0107960E9471
:10080000DE04C12CD12C00E010E00F2EF2E18F2E7F
:10081000F1E09F2EF02D0F2EF3E16F2EF1E07F2EF1
:10082000F02D0F2EF8E04F2EF1E05F2EF02D0F2E61
:10083000F7E2AF2EF2E0BF2EF02D0F2EF6E0EF2EF6
:10084000F2E0FF2EF02D03C08FEFC81AD80A0E94E5
:100850005005F4016083F301808380E191E00E9400
:10086000DE0480911A0190911B01019751F482E0FE
:1008700090E00E94D301F201808386E091E00E9423
:10088000DE040E94F102CE0107960E943605019710
:1008900019F48F818736C1F182E090E00E94D30184
:1008A000853B30F080911A0190911B01892B61F1F9
:1008B00080E090E00E94D301893C30F080911A01E1
:1008C00090911B01019701F160E084E00E94AD026C
:1008D0001F930F93BF92AF92FF92EF920E949207E5
:1008E000C7010E949A020F900F900F900F900F90E7
:1008F0000F90FDEBCF16F2E0DF060CF4A5CF0F5FF3
:100900001F4FC12CD12CA3CFBE016F5F7F4FC801F9
:100910000E94740360960FB6F894DEBF0FBECDBF81
:10092000DF91CF911F910F91FF90EF90DF90CF90CB
:10093000BF90AF909F908F907F906F905F904F90FF
:10094000089560E070E080E090E00E948C0960E033
:1009500070E082E090E00E948C0960E070E084E04A
:1009600090E00E948C09089585B7806885BF8FE16B
:1009700090E00E94E4020E94CF050E944F020E9474
:10098000CC040E945F060E947A068FEF9FE50197D4
:10099000F1F700C00000F7CF0E94410240E06FEF86
:1009A00080E00E940E0240E060EE81E00E940E02B4
:1009B00040E060EE8FE00E940E0208951F93CF93F7
:1009C000DF93EC01688181E30E94EF0160E082E344
:1009D0000E94EF01698185E30E94EF0189818823EC
:1009E00069F010E0FE01E10FF11D628186E3810FE5
:1009F0000E94EF011F5F89811817A0F381E890E042
:100A00000E940302DF91CF911F910895EF92FF9210
:100A10000F931F93CF93DF938C01E62E81E6860F11
:100A20000E94DD01F801808385E68E0D0E94DD01C4
:100A3000F8018183882399F0C0E0D0E0F6E6EF0E5C
:100A4000FC2E8C2F8E0D0E94DD01F801EC0FF11DA4
:100A50008283F3942196F8018181F81688F3DF915F
:100A6000CF911F910F91FF90EF900895CF93DF9357
:100A7000EC018CE20E94DD0180FF0DC060E070E0BF
:100A8000CE010E94060540E061E08CE20E940E0269
:100A900081E090E002C080E090E0DF91CF91089586
:100AA000CF93DF9381E090E00E94D30190E020910A
:100AB0003702821B910944E6489F9001499F300DFF
:100AC0001124332314F421583F4FE901CC0FCD2FCB
:100AD000CC1FDD0B80E090E00E94D30190E02091DC
:100AE0003602821B910944E6489F9001499F300DD0
:100AF0001124332314F421583F4FBE01C901880F3C
:100B0000892F881F990BDF91CF9108950E9450057E
:100B10006734710564F46A3B4FEF740754F087340F
:100B200091054CF48A3B9F4F44F483E0089581E0A3
:100B3000089580E0089582E0089584E00895EF929A
:100B4000FF920F931F93CF93DF93CAE0D0E000E0B2
:100B500010E0E12CF12C81E090E00E94D301E80E3E
:100B6000F11C80E090E00E94D301080F111D219735
:100B7000209789F72AE030E0C701B9010E94F20608
:100B800060933702C801B9010E94F20660933602F1
:100B9000DF91CF911F910F91FF90EF9008950E94E8
:100BA0009F050895833041F580913B0290913C026E
:100BB000AC014F5F5F4FE0913902F0913A02278517
:100BC000308924173507B4F160E00E94AD028FEF41
:100BD00091E00E949A0280913B0290913C02019622
:100BE00090933C0280933B0260E00E94AD0281E35F
:100BF00092E00E949A02089580913B0290913C02FB
:100C000082309105BCF060E00E94AD028FEF91E070
:100C10000E949A0280913B0290913C02019790932E
:100C20003C0280933B0260E00E94AD0281E392E0CF
:100C30000E949A020895EF92FF920F931F93CF9311
:100C4000DF937C0181E090E090933C0280933B0233
:100C50000E94BA0260E080E00E94AD02C7010E94DB
:100C60009A0260E080913B020E94AD0281E392E033
:100C70000E949A02F7018785908901960297C4F035
:100C800087010D5E1F4FC1E0D0E068E08C2F0E940D
:100C9000AD02F801819191918F010E949A022196F3
:100CA000F701278530892F5F3F4FC217D3076CF3B9
:100CB000DF91CF911F910F91FF90EF9008958EE3F8
:100CC00091E09093B3018093B2018DE191E0909314
:100CD00092018093910190937101809370019093A0
:100CE000500180934F0190933A02809339020E9401
:100CF0001B0608950E9486058093380290911C017E
:100D0000891709F46AC0813049F008F450C0823074
:100D100009F45CC0833009F45DC05FC08091390282
:100D200090913A02E0913B02F0913C023197EE0F34
:100D3000FF1FE80FF91F0388F489E02D80818035BB
:100D400049F018F48834C9F048C0823529F1833558
:100D5000D9F043C0F0933A02E09339020E94B50300
:100D6000E0913902F0913A028189928990933A0296
:100D7000809339020E941B0630C0F0933A02E09340
:100D800039020E94300329C0F0933A02E0933902FD
:100D9000CF010E941B0621C00E94A1048DE191E0B9
:100DA00090933A02809339020E941B0616C0E0918C
:100DB0003902F0913A0281899289009771F09093FB
:100DC0003A02809339020E941B0607C082E00E940B
:100DD000D20503C083E00E94D2058091380280933F
:100DE0001C01089597FB072E16F4009407D077FD99
:100DF00009D00E94060707FC05D03EF49095819526
:100E00009F4F0895709561957F4F0895AA1BBB1B56
:100E100051E107C0AA1FBB1FA617B70710F0A61BFA
:100E2000B70B881F991F5A95A9F780959095BC011B
:100E3000CD0108950F931F93CF93DF93EC018B01A6
:100E4000009731F46115710519F480E090E038C025
:100E50006EE070E081E090E00E949109FC01009753
:100E6000A1F380E883830115110571F013870287D0
:100E700081E8838380913D0290913E02892B21F489
:100E8000F0933E02E0933D022097C9F0D187C087DE
:100E900083818260838380913F0290914002892BFD
:100EA00071F4F0934002E0933F02809141029091EF
:100EB0004202892B21F4F0934202E0934102CF01D8
:100EC000DF91CF911F910F9108950F931F93CF93AF
:100ED000DF93E0913F02F0914002238121FF1BC08C
:100EE000EC0100E010E0899160913F0270914002B6
:100EF000DB011896ED91FC911997882331F0099543
:100F0000892B89F30FEF1FEFEECF8AE00995892B2C
:100F100011F4C80102C08FEF9FEFDF91CF911F91B5
:100F20000F910895AEE0B0E0E8E9F7E00C94AC0B67
:100F30000D891E8986E08C831A8309838FEF9FE7D2
:100F40009E838D83AE01475E5F4F6F89788DCE01A2
:100F500001960E94B407EF81F885E00FF11F10821F
:100F60002E96E4E00C94C80BACE0B0E0EAEBF7E0BE
:100F70000C949E0B7C016B018A01FC011782168286
:100F8000838181FFBDC1CE0101964C01F7019381A0
:100F9000F60193FD859193FF81916F01882309F4F8
:100FA000ABC1853239F493FD859193FF81916F0137
:100FB000853229F4B70190E00E94F10AE7CF512C65
:100FC000312C20E02032A0F48B3269F030F48032F2
:100FD00059F0833269F420612CC08D3239F08033AE
:100FE00039F4216026C02260246023C0286021C01B
:100FF00027FD27C030ED380F3A3078F426FF06C0C1
:10100000FAE05F9E300D1124532E13C08AE0389E03
:10101000300D1124332E20620CC08E3221F426FDB7
:101020006BC1206406C08C3611F4206802C088367B
:1010300041F4F60193FD859193FF81916F01811138
:10104000C1CF982F9F7D9554933028F40C5F1F4F8C
:10105000FFE3F9830DC0833631F0833771F08335B8
:1010600009F05BC022C0F801808189830E5F1F4FA9
:1010700044244394512C540115C03801F2E06F0E02
:10108000711CF801A080B18026FF03C0652D70E0BF
:1010900002C06FEF7FEFC5012C870E94E60A2C018A
:1010A00083012C852F77222E17C03801F2E06F0EB6
:1010B000711CF801A080B18026FF03C0652D70E08F
:1010C00002C06FEF7FEFC5012C870E94D40A2C016C
:1010D0002C852068222E830123FC1BC0832D90E0E9
:1010E00048165906B0F4B70180E290E00E94F10A78
:1010F0003A94F4CFF50127FC859127FE81915F0199
:10110000B70190E00E94F10A31103A94F1E04F1AD1
:1011100051084114510471F7E5C0843611F0893645
:1011200039F5F80127FF07C06081718182819381C1
:101130000C5F1F4F08C060817181882777FD809503
:10114000982F0E5F1F4F2F76B22E97FF09C09095F4
:101150008095709561957F4F8F4F9F4F2068B22E7D
:101160002AE030E0A4010E94230BA82EA81844C056
:10117000853729F42F7EB22E2AE030E025C0F22FE9
:10118000F97FBF2E8F36C1F018F4883579F0B4C0DE
:10119000803719F0883721F0AFC02F2F2061B22E91
:1011A000B4FE0DC08B2D8460B82E09C024FF0AC088
:1011B0009F2F9660B92E06C028E030E005C020E1E0
:1011C00030E002C020E132E0F801B7FE07C06081E4
:1011D0007181828193810C5F1F4F06C06081718194
:1011E00080E090E00E5F1F4FA4010E94230BA82E09
:1011F000A818FB2DFF77BF2EB6FE0BC02B2D2E7F20
:10120000A51450F4B4FE0AC0B2FC08C02B2D2E7EEB
:1012100005C07A2C2B2D03C07A2C01C0752C24FF1D
:101220000DC0FE01EA0DF11D8081803311F4297E8D
:1012300009C022FF06C07394739404C0822F86787D
:1012400009F0739423FD13C020FF06C05A2C7314B9
:1012500018F4530C5718732C731468F4B70180E218
:1012600090E02C870E94F10A73942C85F5CF7314BB
:1012700010F4371801C0312C24FF12C0B70180E3ED
:1012800090E02C870E94F10A2C8522FF17C021FFD5
:1012900003C088E590E002C088E790E0B7010CC089
:1012A000822F867859F021FD02C080E201C08BE2D6
:1012B00027FD8DE2B70190E00E94F10AA51438F4F1
:1012C000B70180E390E00E94F10A5A94F7CFAA9404
:1012D000F401EA0DF11D8081B70190E00E94F10A4E
:1012E000A110F5CF332009F451CEB70180E290E090
:1012F0000E94F10A3A94F6CFF7018681978102C0E5
:101300008FEF9FEF2C96E2E10C94BA0BA8E1B0E0CE
:1013100042E050E00C94830B0E94910B272F0C9419
:10132000920B0F931F93CF93DF93869F8001879F2C
:10133000100D969F100D1124C8010E94AD09EC01FB
:10134000009729F0A80160E070E00E94DF0ACE015A
:10135000DF91CF911F910F910895CF93DF9382304A
:10136000910510F482E090E0E0914502F091460290
:1013700020E030E0A0E0B0E0309739F140815181C9
:1013800048175907B8F04817590771F482819381BB
:10139000109729F013969C938E9312972CC09093DC
:1013A00046028093450227C02115310531F04217CE
:1013B000530718F0A901DB0101C0EF019A01BD013B
:1013C000DF010280F381E02DD7CF21153105F9F03F
:1013D000281B390B2430310580F48A819B816115EB
:1013E000710521F0FB019383828304C09093460230
:1013F00080934502FE01329644C0FE01E20FF31FC6
:101400008193919322503109398328833AC02091E6
:10141000430230914402232B41F420910201309188
:101420000301309344022093430220910001309144
:1014300001012115310541F42DB73EB7409104015A
:1014400050910501241B350BE0914302F0914402B9
:10145000E217F307A0F42E1B3F0B2817390778F08B
:10146000AC014E5F5F4F2417350748F04E0F5F1FEA
:1014700050934402409343028193919302C0E0E071
:10148000F0E0CF01DF91CF910895CF93DF930097E4
:1014900009F487C0FC01329713821282C091450281
:1014A000D0914602209781F420813181280F391F85
:1014B00080914302909144028217930779F5F0934B
:1014C0004402E09343026DC0DE0120E030E0AE173D
:1014D000BF0750F412964D915C9113979D014115F1
:1014E000510509F1DA01F3CFB383A2834081518121
:1014F000840F951F8A179B0771F48D919C9111970A
:10150000840F951F02969183808312968D919C91F2
:101510001397938382832115310529F4F0934602B2
:10152000E09345023EC0D9011396FC93EE931297C7
:101530004D915D91A40FB51FEA17FB0779F48081E7
:101540009181840F951F0296D90111969C938E93D9
:101550008281938113969C938E931297E0E0F0E042
:101560008A819B81009719F0FE01EC01F9CFCE0131
:10157000029628813981820F931F20914302309176
:1015800044022817390769F4309729F4109246026B
:101590001092450202C013821282D0934402C0937B
:1015A0004302DF91CF910895FC0105906150704096
:1015B0000110D8F7809590958E0F9F1F0895DC013C
:1015C00001C06D9341505040E0F70895FC01615017
:1015D000704001900110D8F7809590958E0F9F1F55
:1015E00008950F931F93CF93DF93182F092FEB01CB
:1015F0008B8181FD03C08FEF9FEF20C082FF10C061
:101600004E815F812C813D81421753077CF4E88134
:10161000F9819F012F5F3F4F39832883108306C0D4
:10162000E885F985812F0995892B29F72E813F813E
:101630002F5F3F4F3F832E83812F902FDF91CF91DC
:101640001F910F910895FA01AA27283051F12031F6
:1016500081F1E8946F936E7F6E5F7F4F8F4F9F4F46
:10166000AF4FB1E03ED0B4E03CD0670F781F891F88
:101670009A1FA11D680F791F8A1F911DA11D6A0F56
:10168000711D811D911DA11D20D009F468943F9109
:101690002AE0269F11243019305D3193DEF6CF0108
:1016A0000895462F4770405D4193B3E00FD0C9F7CE
:1016B000F6CF462F4F70405D4A3318F0495D31FD3B
:1016C0004052419302D0A9F7EACFB4E0A69597958E
:1016D000879577956795BA95C9F700976105710564
:1016E00008959B01AC010A2E0694579547953795AE
:1016F0002795BA95C9F7620F731F841F951FA01D08
:101700000895DC01CB01FC01E199FECF06C0FFBBCF
:10171000EEBBE09A31960DB20D9241505040B8F7B1
:101720000895262FE199FECF9FBB8EBB2DBB0FB630
:10173000F894E29AE19A0FBE019608952F923F9293
:101740004F925F926F927F928F929F92AF92BF92D1
:10175000CF92DF92EF92FF920F931F93CF93DF937D
:10176000CDB7DEB7CA1BDB0B0FB6F894DEBF0FBEDA
:10177000CDBF09942A88398848885F846E847D8427
:101780008C849B84AA84B984C884DF80EE80FD8029
:101790000C811B81AA81B981CE0FD11D0FB6F8949F
:0E17A000DEBF0FBECDBFED010895F894FFCF60
:1017AE0000004702200074013030303030303000FD
:1017BE006A0230303030303030300100044D616913
:1017CE006E204D656E7500000000000003000000E5
:1017DE0080015F013E010000000000000000536523
:1017EE007474696E67730000000000000001000051
:1017FE0000A10100000000000000000000000048F1
:10180E0069676873636F7265730000000000000003
:10181E0000000000000000000000000000000000BA
:10182E00506C61792067616D65000000000000005A
:10183E00000000000000000000000000000000009A
:10184E000052657365742053636F726573000000F8
:10185E00000000000000000000000000000000007A
:10186E0000006D0130300000000000004D4350328A
:10187E00353135206973206E6F7420696E20636F69
:10188E006E666967206D6F646521004869676873CD
:10189E00636F7265730025642E202564202020203E
:1018AE00003030303030303030303030303030305A
:1018BE0000202020202047414D450020202020538D
:1018CE00636F72653A20002020202020202025649E
:0418DE00002D0000D9
:00000001FF
