S00E00006E6F64655F312E73726563E0
S11300000C94C4010C94E1010C94E1010C94E10101
S11300100C94E1010C94E1010C94E1010C94E101D4
S11300200C94E1010C94E1010C94E1010C94E101C4
S11300300C94E1010C94E1010C94E1010C94E101B4
S11300400C94E1010C94E1010C94E1010C94E101A4
S11300500C94E1010C94E1010C94E1010C94E10194
S11300600C94E1010C94E1010C94E1010C94E10184
S11300707B07410741073A074107610741074107E9
S11300806E074107410727074107490741075407FE
S1130090000000000000000000065F5F0600000092
S11300A00007070007070000147F7F147F7F1400F8
S11300B0242E6B6B3A120000466630180C66620000
S11300C0307A4F5D377A48000407030000000000CF
S11300D0001C3E63410000000041633E1C00000020
S11300E0082A3E1C1C3E2A0808083E3E0808000058
S11300F000A0E060000000000808080808080000EC
S113010000006060000000006030180C060301006D
S11301103E7F594D7F3E000042427F7F40400000B9
S1130120627359496F660000226349497F360000B3
S1130130181C16137F7F1000276745457D39000082
S11301403C7E4B4979300000036371190F070000AE
S1130150367F49497F360000064F49693F1E00003B
S113016000006C6C0000000000A0EC6C00000000BB
S1130170081C366341000000141414141414000005
S1130180004163361C080000020351590F060000A9
S11301903E7F415D5D1F1E007C7E13137E7C00004C
S11301A0417F7F49497F36001C3E63414163220001
S11301B0417F7F41637F1C00417F7F495D41630034
S11301C0417F7F491D0103001C3E6341517372004E
S11301D07F7F08087F7F000000417F7F410000008F
S11301E0307040417F3F0100417F7F081C776300EE
S11301F0417F7F41406070007F7F060C067F7F0057
S11302007F7F060C187F7F001C3E6341633E1C0009
S1130210417F7F49090F06001E3F21717F5E000068
S1130220417F7F19396F460026674D597B320000A4
S113023003417F7F410300007F7F40407F7F0000B8
S11302401F3F60603F1F00007F7F3018307F7F00BA
S113025063771C081C776300074F78784F0700000A
S11302606773594D47637100007F7F41410000006F
S11302700103060C183060000041417F7F0000003C
S1130280080C0603060C0800808080808080808033
S11302900000030704000000207454543C7840001C
S11302A0413F7F44447C3800387C44446C2800003F
S11302B0307848493F7F4000387C54545C18000033
S11302C0487E7F490302000098BCA4A4F87C040083
S11302D0417F7F08047C780000447D7D400000005D
S11302E040C484FD7D000000417F7F10386C4400D1
S11302F000417F7F400000007C7C0C180C7C78005F
S11303007C7C04047C780000387C44447C38000005
S113031084FCF8A4243C1800183C24A4F8FC8400B1
S1130320447C78441C180000485C54547424000035
S113033000043E7F442400003C7C40403C7C400060
S11303401C3C60603C1C00003C7C6030607C3C00D9
S1130350446C3810386C44009CBCA0A0FC7C0000A9
S11303604C64745C4C64000008083E774141000012
S113037000000077770000004141773E0808000044
S1130380020301030203010011241FBECFEFD4E0D6
S1130390DEBFCDBF13E0A0E0B1E0ECE1F9E102C0C3
S11303A005900D92AE30B107D9F723E0AEE0B3E08B
S11303B001C01D92A332B207E1F70E949A050C9482
S11303C08C0C0C9400008C5F8093001481E48A955B
S11303D0F1F700C08091001408950E94D50240E016
S11303E06FEF80E00E94A20240E060EE81E00E9494
S11303F0A20240E060EE8FE00E94A20208951F93E3
S1130400CF93DF93EC01688181E30E94830260E073
S113041082E30E948302698185E30E9483028981C9
S1130420882369F010E0FE01E10FF11D628186E38B
S1130430810F0E9483021F5F89811817A0F381E84E
S113044090E00E949702DF91CF911F910895EF925F
S1130450FF920F931F93CF93DF938C01E62E81E6D7
S1130460860F0E947102F801808385E68E0D0E943A
S11304707102F8018183882399F0C0E0D0E0F6E6A8
S1130480EF0EFC2E8C2F8E0D0E947102F801EC0FE2
S1130490F11D8283F3942196F8018181F81688F383
S11304A0DF91CF911F910F91FF90EF900895CF931B
S11304B0DF93EC018CE20E94710280FF0DC060E0CA
S11304C070E0CE010E94270240E061E08CE20E94CD
S11304D0A20281E090E002C080E090E0DF91CF9141
S11304E00895CF93C82F0E945B0383E00E945F03AB
S11304F08C2F0E945F030E946303C82F0E945D0338
S11305008C2FCF910895CF93DF93D82FC62F0E94BD
S11305105B0382E00E945F038D2F0E945F038C2F98
S11305200E945F030E945D03DF91CF910895CF93F2
S1130530C82F0E945B038C2F0E945F030E945D03FF
S1130540CF9108951F93CF93DF93182FD62FC42FE5
S11305500E945B0385E00E945F03812F0E945F037A
S11305608D2F0E945F038C2F0E945F030E945D0306
S1130570DF91CF911F9108950E945B0380EC0E944C
S11305805F030E945D030895CF930E945B0383E0A1
S11305900E945F038EE00E945F030E946303C82FE2
S11305A00E945D038C2FCF9108950E9468030E94DE
S11305B0BC020E94C402807E803821F082E992E06D
S11305C00E941C080895E0E0F0E18EEA808381EA4D
S11305D080838AED808382E1808388EC808388EA4B
S11305E080838FE3808385ED808380E8808381E846
S11305F0808380E5808389ED808381E2808380E24B
S1130600808310828BED808380E380838DEA8083F6
S1130610108284EA808386EA80838FEA8083089547
S1130620CF93DF93EC0120E030E0A0E0B2E1E88179
S1130630F0E0B097EE0FFF1FEE0FFF1FEE0FFF1F4E
S1130640E20FF31FE057FF4FE491EC932F5F3F4F0E
S11306502830310561F7DF91CF910895CF93DF936F
S1130660FC012081222351F0EC0121960E94100309
S1130670CE012196FC0120812111F8CFDF91CF9189
S11306800895E0E0F0E191E2908360839FE7908336
S113069092E29083808387E08083089560E080E025
S11306A00E94410380E094E0E0E0F2E110820197CF
S11306B00097E1F70895C4980895C49A08958FB9EE
S11306C0779BFECF089580E00E945F038FB1089569
S11306D087B3806B87BB81E58DB908955D9BFECFA1
S11306E08CB980E090E008955F9BFECF8CB10895B3
S11306F090BD89B988E18AB98EE880BD64E773E06A
S11307008EE693E00E94D1070895CF93DF93CDB78F
S1130710DEB72A970FB6F894DEBF0FBECDBFFE0139
S113072031968AE0DF011D928A95E9F783E7898390
S113073081E08A8380910E0390910F03892B89F4C1
S113074083E090E00E94E3018536A8F0CE01019693
S11307500E94FF0181E090E090930F0380930E03C9
S11307600AC083E090E00E94E301843620F41092F2
S11307700F0310920E032A960FB6F894DEBF0FBE35
S1130780CDBFDF91CF910895EF92FF920F931F9306
S1130790CF93DF930E944E0360E080E00E94410308
S11307A081EB92E00E942E03C0E0D0E00F2EFCEB20
S11307B0EF2EF2E0FF2EF02D07EC12E068E08C2F14
S11307C08E5F0E944103CE01880F991F0E943D0A4B
S11307D021969F938F93DF93CF93FF92EF921F9372
S11307E00F930E944908C8010E942E038DB79EB73B
S11307F008960FB6F8949EBF0FBE8DBFC330D105C7
S1130800E9F6DF91CF911F910F91FF90EF9008953A
S11308100F931F93CF93DF93082F192FEB01282FEA
S1130820392F488159814217530798F46A817B8193
S113083084E090E00E94430A6881798182E090E03C
S11308400E94430A602F712F80E090E00E94430AC7
S11308501BC06A817B816217730758F484E090E0BF
S11308600E94430A602F712F82E090E00E94430AA5
S11308700BC04C815D814217530730F4682F792FE8
S113088084E090E00E94430ADF91CF911F910F9181
S1130890089560E070E080E090E00E94430A60E028
S11308A070E082E090E00E94430A60E070E084E03F
S11308B090E00E94430A0895CF93DF93EC010E94D5
S11308C04E0368E082E00E94410387ED92E00E94BB
S11308D02E0360E083E00E94410386EE92E00E94D2
S11308E02E0360E084E00E944103CE010E942E03A7
S11308F00E94E8058430E1F3DF91CF9108954F928F
S11309005F926F927F928F929F92AF92BF92CF929B
S1130910DF92EF92FF920F931F93CF93DF93CDB7A4
S1130920DEB760970FB6F894DEBF0FBECDBF8AE086
S1130930E8E8F2E0DE01179601900D928A95E1F75E
S113094080E090E00E943D0A9A83898382E090E0EF
S11309500E943D0A9C838B8384E090E00E943D0AC0
S11309609E838D830E944E0360E080E00E944103D9
S113097082EF92E00E942E0360E083E00E94410334
S113098086EE92E00E942E03809110039091110351
S11309908987CE0107960E94FF01C12CD12C00E06B
S11309A010E00F2EF2E18F2EF1E09F2EF02D0F2E8E
S11309B0F3E16F2EF1E07F2EF02D0F2EF8E04F2E95
S11309C0F1E05F2EF02D0F2EFCEFAF2EF2E0BF2EE4
S11309D0F02D0F2EF7ECEF2EF2E0FF2EF02D03C0DA
S11309E08FEFC81AD80A0E94B205482F20911A0125
S11309F030911B01862F972FB9010E94A307F401A0
S1130A006083F301408380E191E00E94FF018091C3
S1130A10100390911103019751F482E090E00E9439
S1130A20E301F201808386E091E00E94FF010E94CD
S1130A308503CE0107960E945702019719F48F810E
S1130A408736C1F182E090E00E94E301853B30F0FB
S1130A508091100390911103892B61F180E090E063
S1130A600E94E301893C30F08091100390911103BE
S1130A70019701F160E084E00E9441031F930F930A
S1130A80BF92AF92FF92EF920E944908C7010E9461
S1130A902E030F900F900F900F900F900F90FDEB7F
S1130AA0CF16F2E0DF060CF49BCF0F5F1F4FC12C73
S1130AB0D12C99CF109212011092130180E191E090
S1130AC00E94FF018091100390911103019739F462
S1130AD080E88093080186E091E00E94FF01BE0156
S1130AE06F5F7F4FC8010E94080487EC92E00E9468
S1130AF05C0460960FB6F894DEBF0FBECDBFDF91E5
S1130B00CF911F910F91FF90EF90DF90CF90BF9006
S1130B10AF909F908F907F906F905F904F900895CB
S1130B209093110380931003089590931B01809375
S1130B301A01089585B7806885BF8FE190E00E940F
S1130B4078030E9431060E94E3020E94ED010E9494
S1130B50C1060E94F8068FEF9FE50197F1F700C0E8
S1130B600000F7CFCF93DF9381E090E00E94E30190
S1130B7090E020911303821B910944E6489F900161
S1130B80499F300D1124332314F421583F4FE901B8
S1130B90CC0FCD2FCC1FDD0B80E090E00E94E30151
S1130BA090E020911203821B910944E6489F900132
S1130BB0499F300D1124332314F421583F4FBE01B3
S1130BC0C901880F892F881F990BDF91CF91089550
S1130BD00E94B2056734710564F46A3B4FEF7407F1
S1130BE054F0873491054CF48A3B9F4F44F483E0DE
S1130BF0089581E0089580E0089582E0089584E0F6
S1130C000895EF92FF920F931F93CF93DF93CAE05F
S1130C10D0E000E010E0E12CF12C81E090E00E94B3
S1130C20E301E80EF11C80E090E00E94E301080F6C
S1130C30111D2197209789F72AE030E0C701B901F7
S1130C400E94A30760931303C801B9010E94A3077C
S1130C5060931203DF91CF911F910F91FF90EF905A
S1130C6008950E9401060895833041F58091170389
S1130C7090911803AC014F5F5F4FE0911503F09121
S1130C8016032785308924173507B4F160E00E94E4
S1130C90410389E093E00E942E0380911703909111
S1130CA018030196909318038093170360E00E9441
S1130CB041038BE093E00E942E0308958091170373
S1130CC09091180382309105BCF060E00E944103CA
S1130CD089E093E00E942E038091170390911803FA
S1130CE00197909318038093170360E00E944103D7
S1130CF08BE093E00E942E030895EF92FF920F93EE
S1130D001F93CF93DF937C0181E090E090931803CD
S1130D10809317030E944E0360E080E00E94410329
S1130D20C7010E942E0360E0809117030E944103D3
S1130D308BE093E00E942E03F7018785908901964A
S1130D400297C4F087010D5E1F4FC1E0D0E068E058
S1130D508C2F0E944103F801819191918F010E948F
S1130D602E032196F701278530892F5F3F4FC21745
S1130D70D3076CF3DF91CF911F910F91FF90EF9008
S1130D80089582EC91E09093790280937802909395
S1130D9058028093570281EA91E09093370280933E
S1130DA0360290931602809315028EE391E090939D
S1130DB0F5018093F4019093D4018093D30190932F
S1130DC0B3018093B2018DE191E0909392018093FD
S1130DD091019093710180937001909350018093DD
S1130DE04F0190931603809315030E947D06089586
S1130DF00E94E8058093140390911C01891709F45B
S1130E009DC0813049F008F483C0823009F48FC05A
S1130E10833009F490C092C0809115039091160319
S1130E20E0911703F09118033197EE0FFF1FE80FBD
S1130E30F91FA389B4894C9150E0455451094031BC
S1130E405105F8F4485C5F4FFA010C94B707B0936E
S1130E501603A09315030E947F04E0911503F091FB
S1130E6016038189928990931603809315030E9437
S1130E707D0664C0B0931603A09315030E94C403B7
S1130E805DC0B0931603A0931503CD010E947D06A7
S1130E9055C00E9449048DE191E09093160380931C
S1130EA015030E947D064AC081E090E00E949005EF
S1130EB08DE191E090931603809315030E947D06C3
S1130EC03DC080E090E00E9490058DE191E0909318
S1130ED01603809315030E947D0630C082E090E0E3
S1130EE00E9495058DE191E090931603809315037C
S1130EF00E947D0623C081E090E00E9495058DE16B
S1130F0091E090931603809315030E947D0616C00A
S1130F10E0911503F091160381899289009771F08D
S1130F2090931603809315030E947D0607C082E008
S1130F300E94340603C083E00E94340680911403A7
S1130F4080931C01089597FB072E16F4009407D094
S1130F5077FD09D00E94BD0707FC05D03EF49095AB
S1130F6081959F4F0895709561957F4F0895EE0F79
S1130F70FF1F0590F491E02D0994AA1BBB1B51E1BE
S1130F8007C0AA1FBB1FA617B70710F0A61BB70BF5
S1130F90881F991F5A95A9F780959095BC01CD019A
S1130FA008950F931F93CF93DF93EC018B01009768
S1130FB031F46115710519F480E090E038C06EE0F9
S1130FC070E081E090E00E94480AFC010097A1F3E0
S1130FD080E883830115110571F01387028781E886
S1130FE083838091190390911A03892B21F4F09340
S1130FF01A03E09319032097C9F0D187C08783812E
S11310008260838380911B0390911C03892B71F46C
S1131010F0931C03E0931B0380911D0390911E0326
S1131020892B21F4F0931E03E0931D03CF01DF917C
S1131030CF911F910F9108950F931F93CF93DF9337
S1131040E0911B03F0911C03238121FF1BC0EC01E1
S113105000E010E0899160911B0370911C03DB0197
S11310601896ED91FC911997882331F00995892BF5
S113107089F30FEF1FEFEECF8AE00995892B11F466
S1131080C80102C08FEF9FEFDF91CF911F910F91A5
S11310900895AEE0B0E0EFE4F8E00C94630C0D8941
S11310A01E8986E08C831A8309838FEF9FE79E83D2
S11310B08D83AE01475E5F4F6F89788DCE010196B7
S11310C00E946B08EF81F885E00FF11F10822E96C5
S11310D0E4E00C947F0CACE0B0E0E1E7F8E00C94C1
S11310E0550C7C016B018A01FC01178216828381F5
S11310F081FFBDC1CE0101964C01F7019381F60138
S113110093FD859193FF81916F01882309F4ABC10D
S1131110853239F493FD859193FF81916F01853276
S113112029F4B70190E00E94A80BE7CF512C312C91
S113113020E02032A0F48B3269F030F4803259F090
S1131140833269F420612CC08D3239F0803339F454
S1131150216026C02260246023C0286021C027FDAE
S113116027C030ED380F3A3078F426FF06C0FAE095
S11311705F9E300D1124532E13C08AE0389E300D2B
S11311801124332E20620CC08E3221F426FD6BC153
S1131190206406C08C3611F4206802C0883641F4FD
S11311A0F60193FD859193FF81916F018111C1CF68
S11311B0982F9F7D9554933028F40C5F1F4FFFE3C5
S11311C0F9830DC0833631F0833771F0833509F02C
S11311D05BC022C0F801808189830E5F1F4F4424C5
S11311E04394512C540115C03801F2E06F0E711C68
S11311F0F801A080B18026FF03C0652D70E002C015
S11312006FEF7FEFC5012C870E949D0B2C0183019A
S11312102C852F77222E17C03801F2E06F0E711C37
S1131220F801A080B18026FF03C0652D70E002C0E4
S11312306FEF7FEFC5012C870E948B0B2C012C854F
S11312402068222E830123FC1BC0832D90E04816C6
S11312505906B0F4B70180E290E00E94A80B3A94DA
S1131260F4CFF50127FC859127FE81915F01B70139
S113127090E00E94A80B31103A94F1E04F1A510803
S11312804114510471F7E5C0843611F0893639F5FB
S1131290F80127FF07C060817181828193810C5F0F
S11312A01F4F08C060817181882777FD8095982F32
S11312B00E5F1F4F2F76B22E97FF09C09095809531
S11312C0709561957F4F8F4F9F4F2068B22E2AE013
S11312D030E0A4010E94DA0BA82EA81844C0853778
S11312E029F42F7EB22E2AE030E025C0F22FF97FB8
S11312F0BF2E8F36C1F018F4883579F0B4C080372A
S113130019F0883721F0AFC02F2F2061B22EB4FE20
S11313100DC08B2D8460B82E09C024FF0AC09F2FF6
S11313209660B92E06C028E030E005C020E130E028
S113133002C020E132E0F801B7FE07C0608171818C
S1131340828193810C5F1F4F06C06081718180E0B0
S113135090E00E5F1F4FA4010E94DA0BA82EA8187C
S1131360FB2DFF77BF2EB6FE0BC02B2D2E7FA514B1
S113137050F4B4FE0AC0B2FC08C02B2D2E7E05C06A
S11313807A2C2B2D03C07A2C01C0752C24FF0DC0A0
S1131390FE01EA0DF11D8081803311F4297E09C01C
S11313A022FF06C07394739404C0822F867809F0D8
S11313B0739423FD13C020FF06C05A2C731418F431
S11313C0530C5718732C731468F4B70180E290E03F
S11313D02C870E94A80B73942C85F5CF731410F4FA
S11313E0371801C0312C24FF12C0B70180E390E00C
S11313F02C870E94A80B2C8522FF17C021FF03C055
S113140088E590E002C088E790E0B7010CC0822F25
S1131410867859F021FD02C080E201C08BE227FDED
S11314208DE2B70190E00E94A80BA51438F4B7012F
S113143080E390E00E94A80B5A94F7CFAA94F40199
S1131440EA0DF11D8081B70190E00E94A80BA11064
S1131450F5CF332009F451CEB70180E290E00E9429
S1131460A80B3A94F6CFF7018681978102C08FEFDB
S11314709FEF2C96E2E10C94710CA8E1B0E042E0FD
S113148050E00C943A0C0E94480C272F0C94490C01
S11314900F931F93CF93DF93869F8001879F100D37
S11314A0969F100D1124C8010E94640AEC01009754
S11314B029F0A80160E070E00E94960BCE01DF9154
S11314C0CF911F910F910895CF93DF9382309105AF
S11314D010F482E090E0E0912103F091220320E0F7
S11314E030E0A0E0B0E0309739F1408151814817F5
S11314F05907B8F04817590771F4828193811097FE
S113150029F013969C938E9312972CC090932203E8
S11315108093210327C02115310531F04217530769
S113152018F0A901DB0101C0EF019A01BD01DF013F
S11315300280F381E02DD7CF21153105F9F0281B66
S1131540390B2430310580F48A819B816115710542
S113155021F0FB019383828304C090932203809340
S11315602103FE01329644C0FE01E20FF31F819372
S1131570919322503109398328833AC020911F0363
S113158030912003232B41F4209102013091030177
S11315903093200320931F03209100013091010117
S11315A02115310541F42DB73EB740910401509106
S11315B00501241B350BE0911F03F0912003E21772
S11315C0F307A0F42E1B3F0B2817390778F0AC0162
S11315D04E5F5F4F2417350748F04E0F5F1F50933F
S11315E0200340931F038193919302C0E0E0F0E055
S11315F0CF01DF91CF910895CF93DF93009709F442
S113160087C0FC01329713821282C0912103D091CA
S11316102203209781F420813181280F391F809182
S11316201F03909120038217930779F5F093200309
S1131630E0931F036DC0DE0120E030E0AE17BF076A
S113164050F412964D915C9113979D0141155105EB
S113165009F1DA01F3CFB383A28340815181840F6E
S1131660951F8A179B0771F48D919C911197840F94
S1131670951F02969183808312968D919C91139766
S1131680938382832115310529F4F0932203E09397
S113169021033EC0D9011396FC93EE9312974D910A
S11316A05D91A40FB51FEA17FB0779F4808191813E
S11316B0840F951F0296D90111969C938E93828173
S11316C0938113969C938E931297E0E0F0E08A81C5
S11316D09B81009719F0FE01EC01F9CFCE0102962F
S11316E028813981820F931F20911F033091200399
S11316F02817390769F4309729F4109222031092BD
S1131700210302C013821282D0932003C0931F03CB
S1131710DF91CF910895FC01059061507040011054
S1131720D8F7809590958E0F9F1F0895DC0101C016
S11317306D9341505040E0F70895FC0161507040B2
S113174001900110D8F7809590958E0F9F1F0895F2
S11317500F931F93CF93DF93182F092FEB018B81E6
S113176081FD03C08FEF9FEF20C082FF10C04E8128
S11317705F812C813D81421753077CF4E881F98114
S11317809F012F5F3F4F39832883108306C0E8856C
S1131790F985812F0995892B29F72E813F812F5FA8
S11317A03F4F3F832E83812F902FDF91CF911F9145
S11317B00F910895FA01AA27283051F1203181F1BF
S11317C0E8946F936E7F6E5F7F4F8F4F9F4FAF4F45
S11317D0B1E03ED0B4E03CD0670F781F891F9A1F58
S11317E0A11D680F791F8A1F911DA11D6A0F711D0C
S11317F0811D911DA11D20D009F468943F912AE018
S1131800269F11243019305D3193DEF6CF010895FF
S1131810462F4770405D4193B3E00FD0C9F7F6CF30
S1131820462F4F70405D4A3318F0495D31FD4052F8
S1131830419302D0A9F7EACFB4E0A695979587958E
S113184077956795BA95C9F700976105710508956D
S11318509B01AC010A2E0694579547953795279519
S1131860BA95C9F7620F731F841F951FA01D0895B1
S1131870DC01CB01FC01E199FECF06C0FFBBEEBB4E
S1131880E09A31960DB20D9241505040B8F7089548
S1131890262FE199FECF9FBB8EBB2DBB0FB6F894CC
S11318A0E29AE19A0FBE019608952F923F924F92C9
S11318B05F926F927F928F929F92AF92BF92CF92DC
S11318C0DF92EF92FF920F931F93CF93DF93CDB7E5
S11318D0DEB7CA1BDB0B0FB6F894DEBF0FBECDBF5D
S11318E009942A88398848885F846E847D848C842E
S11318F09B84AA84B984C884DF80EE80FD800C8137
S11319001B81AA81B981CE0FD11D0FB6F894DEBF19
S10F19100FBECDBFED010895F894FFCF89
S113191C00002303200074013030303030303000AC
S113192C6A0230303030303030300100044D61699F
S113193C6E204D656E750000000000000300000071
S113194C80015F013E0100000000000000005365AF
S113195C7474696E677300000000000000030000DB
S113196C00E301C201A101000000000000000048D6
S113197C69676873636F7265730000000000000090
S113198C0000000000000000000000000000000047
S113199C506C61792067616D6500000000000000E7
S11319AC0000000000000000000000000000000027
S11319BC00446966666963756C7479000000000004
S11319CC02000000250204020000000000000000D8
S11319DC000052657365742053636F726573000065
S11319EC00000000000000000000000000000000E7
S11319FC00000043686F6F736520696E7075740026
S1131A0C0000020000006702460200000000000013
S1131A1C000000004D656469756D00000000000055
S1131A2C00000000000000000000000000000000A6
S1131A3C0000000000456173790000000000000004
S1131A4C0000000000000000000000000000000086
S1131A5C0000000000004A6F79737469636B000026
S1131A6C0000000000000000000000000000000066
S1131A7C00000000000000546F7563680000000053
S1131A8C0000000000000000000000000000000046
S1131A9C00000000000000006D0130300000000068
S1131AAC00004D435032353135206973206E6F740C
S1131ABC20696E20636F6E666967206D6F646521A3
S1131ACC004869676873636F7265730025642E2020
S1131ADC256420202020003030303030303030303D
S1131AEC3030303030300047414D45204F56455250
S1131AFC21203A2D28002020202053636F72653A50
S1131B0C2000202020202047414D4500202020206B
S1111B1C20202025642020202020002D000001
S9030000FC
