S00E00006E6F64655F312E73726563E0
S11300000C94B4010C94D1010C94D1010C94D10141
S11300100C94D1010C94D1010C94D1010C94D10114
S11300200C94D1010C94D1010C94D1010C94D10104
S11300300C94D1010C94D1010C94D1010C94D101F4
S11300400C94D1010C94D1010C94D1010C94D101E4
S11300500C94D1010C94D1010C94D1010C94D101D4
S11300600C94D1010C94D1010C94D1010C94D101C4
S1130070000000000000000000065F5F06000000B2
S11300800007070007070000147F7F147F7F140018
S1130090242E6B6B3A120000466630180C66620020
S11300A0307A4F5D377A48000407030000000000EF
S11300B0001C3E63410000000041633E1C00000040
S11300C0082A3E1C1C3E2A0808083E3E0808000078
S11300D000A0E0600000000008080808080800000C
S11300E000006060000000006030180C060301008E
S11300F03E7F594D7F3E000042427F7F40400000DA
S1130100627359496F660000226349497F360000D3
S1130110181C16137F7F1000276745457D390000A2
S11301203C7E4B4979300000036371190F070000CE
S1130130367F49497F360000064F49693F1E00005B
S113014000006C6C0000000000A0EC6C00000000DB
S1130150081C366341000000141414141414000025
S1130160004163361C080000020351590F060000C9
S11301703E7F415D5D1F1E007C7E13137E7C00006C
S1130180417F7F49497F36001C3E63414163220021
S1130190417F7F41637F1C00417F7F495D41630054
S11301A0417F7F491D0103001C3E6341517372006E
S11301B07F7F08087F7F000000417F7F41000000AF
S11301C0307040417F3F0100417F7F081C7763000E
S11301D0417F7F41406070007F7F060C067F7F0077
S11301E07F7F060C187F7F001C3E6341633E1C002A
S11301F0417F7F49090F06001E3F21717F5E000089
S1130200417F7F19396F460026674D597B320000C4
S113021003417F7F410300007F7F40407F7F0000D8
S11302201F3F60603F1F00007F7F3018307F7F00DA
S113023063771C081C776300074F78784F0700002A
S11302406773594D47637100007F7F41410000008F
S11302500103060C183060000041417F7F0000005C
S1130260080C0603060C0800808080808080808053
S11302700000030704000000207454543C7840003C
S1130280413F7F44447C3800387C44446C2800005F
S1130290307848493F7F4000387C54545C18000053
S11302A0487E7F490302000098BCA4A4F87C0400A3
S11302B0417F7F08047C780000447D7D400000007D
S11302C040C484FD7D000000417F7F10386C4400F1
S11302D000417F7F400000007C7C0C180C7C78007F
S11302E07C7C04047C780000387C44447C38000026
S11302F084FCF8A4243C1800183C24A4F8FC8400D2
S1130300447C78441C180000485C54547424000055
S113031000043E7F442400003C7C40403C7C400080
S11303201C3C60603C1C00003C7C6030607C3C00F9
S1130330446C3810386C44009CBCA0A0FC7C0000C9
S11303404C64745C4C64000008083E774141000032
S113035000000077770000004141773E0808000064
S1130360020301030203010011241FBECFEFD4E0F6
S1130370DEBFCDBF12E0A0E0B1E0E4EDF7E102C0E2
S113038005900D92A235B107D9F722E0A2E5B2E0BB
S113039001C01D92A536B207E1F70E94A0030C9498
S11303A0E80B0C9400008C5F8093001481E48A9520
S11303B0F1F700C0809100140895CF93DF93CDB777
S11303C0DEB72A970FB6F894DEBF0FBECDBFFE018D
S11303D031968AE0DF011D928A95E9F783E78983E4
S11303E081E08A838091520290915302892B89F48F
S11303F083E090E00E94D3018536A8F0CE010196F7
S11304000E94C40381E090E09093530280935202CF
S11304100AC083E090E00E94D301843620F4109255
S11304205302109252022A960FB6F894DEBF0FBE02
S1130430CDBFDF91CF910895EF92FF920F931F9359
S1130440CF93DF930E94CE0660E080E00E94C10655
S11304508DEE91E00E948106C0E0D0E00F2EF8EF0F
S1130460EF2EF1E0FF2EF02D0FEF11E068E08C2F5E
S11304708E5F0E94C106CE01880F991F0E949909C0
S113048021969F938F93DF93CF93FF92EF921F93C5
S11304900F930E94A507C8010E9481068DB79EB7DD
S11304A008960FB6F8949EBF0FBE8DBFC330D1051A
S11304B0E9F6DF91CF911F910F91FF90EF9008958E
S11304C00F931F93CF93DF93082F192FEB01282F3E
S11304D0392F488159814217530798F46A817B81E7
S11304E084E090E00E949F096881798182E090E035
S11304F00E949F09602F712F80E090E00E949F0965
S11305001BC06A817B816217730758F484E090E012
S11305100E949F09602F712F82E090E00E949F0942
S11305200BC04C815D814217530730F4682F792F3B
S113053084E090E00E949F09DF91CF911F910F9179
S113054008954F925F926F927F928F929F92AF9293
S1130550BF92CF92DF92EF92FF920F931F93CF93AC
S1130560DF93CDB7DEB760970FB6F894DEBF0FBE4A
S1130570CDBF8AE0E3EEF1E0DE01179601900D9223
S11305808A95E1F780E090E00E9499099A83898333
S113059082E090E00E9499099C838B8384E090E040
S11305A00E9499099E838D830E94CE0660E080E0BC
S11305B00E94C10681E192E00E94810660E083E02E
S11305C00E94C1068BE192E00E94810680911A018B
S11305D08987CE0107960E94C403C12CD12C00E068
S11305E010E00F2EF2E18F2EF1E09F2EF02D0F2E52
S11305F0F3E16F2EF1E07F2EF02D0F2EF8E04F2E59
S1130600F1E05F2EF02D0F2EF7E2AF2EF2E0BF2EB9
S1130610F02D0F2EF6E0EF2EF2E0FF2EF02D03C0AA
S11306208FEFC81AD80A0E94DB04F4016083F30137
S1130630808380E191E00E94C40380911A0190912B
S11306401B01019751F482E090E00E94D301F20172
S1130650808386E091E00E94C403CE0107960E9445
S11306601C04019719F48F818736D1F10E94DD01B2
S113067082E090E00E94D301853B30F080911A0122
S113068090911B01892B61F180E090E00E94D301DD
S1130690893C30F080911A0190911B01019701F17E
S11306A060E084E00E94C1061F930F93BF92AF9253
S11306B0FF92EF920E94A507C7010E9481060F9046
S11306C00F900F900F900F900F90FDEBCF16F2E06C
S11306D0DF060CF4A5CF0F5F1F4FC12CD12CA3CF85
S11306E0BE016F5F7F4FC8010E94600260960FB623
S11306F0F894DEBF0FBECDBFDF91CF911F910F9154
S1130700FF90EF90DF90CF90BF90AF909F908F902D
S11307107F906F905F904F90089560E070E080E06C
S113072090E00E949F0960E070E082E090E00E9407
S11307309F0960E070E084E090E00E949F090895C2
S113074085B7806885BF8FE190E00E94F8060E941B
S1130750D8040E9494060E94B2030E94B7050E9426
S1130760D605FDCF0E949A0440E06FEF80E00E941E
S1130770670440E060EE81E00E94670440E060EEC0
S11307808FE00E94670408951F93CF93DF93EC01D9
S1130790688181E30E94480460E082E30E94480487
S11307A0698185E30E9448048981882369F010E007
S11307B0FE01E10FF11D628186E3810F0E9448046E
S11307C01F5F89811817A0F381E890E00E945C0400
S11307D0DF91CF911F910895EF92FF920F931F9392
S11307E0CF93DF938C01E62E81E6860F0E943604B8
S11307F0F801808385E68E0D0E943604F80181831A
S1130800882399F0C0E0D0E0F6E6EF0EFC2E8C2FA2
S11308108E0D0E943604F801EC0FF11D8283F394CF
S11308202196F8018181F81688F3DF91CF911F9109
S11308300F91FF90EF900895CF93DF93EC018CE23A
S11308400E94360480FF0DC060E070E0CE010E947B
S1130850EC0340E061E08CE20E94670481E090E0F8
S113086002C080E090E0DF91CF910895CF93C82F2C
S11308700E94DB0683E00E94DF068C2F0E94DF06C5
S11308800E94E306C82F0E94DD068C2FCF910895A5
S1130890CF93DF93D82FC62F0E94DB0682E00E94FD
S11308A0DF068D2F0E94DF068C2F0E94DF060E9438
S11308B0DD06DF91CF910895CF93C82F0E94DB0608
S11308C08C2F0E94DF060E94DD06CF9108951F93AE
S11308D0CF93DF93182FD62FC42F0E94DB0685E019
S11308E00E94DF06812F0E94DF068D2F0E94DF0603
S11308F08C2F0E94DF060E94DD06DF91CF911F91AD
S113090008950E94DB0680EC0E94DF060E94DD064B
S11309100895CF930E94DB0683E00E94DF068EE0F9
S11309200E94DF060E94E306C82F0E94DD068C2F7A
S1130930CF9108950E94E8060E9481040E948904D0
S1130940807E803821F081E392E00E947807089548
S1130950EF92FF920F931F93CF93DF93CAE0D0E0FF
S113096000E010E0E12CF12C81E090E00E94D30142
S1130970E80EF11C80E090E00E94D301080F111DE5
S11309802197209789F72AE030E0C701B9010E9436
S1130990050760935502C801B9010E9405076093D9
S11309A05402DF91CF911F910F91FF90EF90089522
S11309B00E94A8040895CF93DF9381E090E00E9401
S11309C0D30190E020915502821B910944E6489F8F
S11309D09001499F300D1124332314F421583F4FC3
S11309E0E901CC0FCD2FCC1FDD0B80E090E00E94FD
S11309F0D30190E020915402821B910944E6489F60
S1130A009001499F300D1124332314F421583F4F92
S1130A10BE01C901880F892F881F990BDF91CF91DF
S1130A2008950E94DB046734710564F46A3B4FEF58
S1130A30740754F0873491054CF48A3B9F4F44F477
S1130A4083E0089581E0089580E0089582E00895A8
S1130A5084E00895833041F58091590290915A02BF
S1130A60AC014F5F5F4FE0915702F0915802278528
S1130A70308924173507B4F160E00E94C10685E28D
S1130A8092E00E9481068091590290915A02019647
S1130A9090935A028093590260E00E94C10680E557
S1130AA092E00E94810608958091590290915A0221
S1130AB082309105BCF060E00E94C10685E292E0BC
S1130AC00E9481068091590290915A020197909355
S1130AD05A028093590260E00E94C10680E592E0C8
S1130AE00E9481060895EF92FF920F931F93CF9374
S1130AF0DF937C0181E090E090935A028093590245
S1130B000E94CE0660E080E00E94C106C7010E94F8
S1130B10810660E0809159020E94C10680E592E05E
S1130B200E948106F7018785908901960297C4F097
S1130B3087010D5E1F4FC1E0D0E068E08C2F0E945A
S1130B40C106F801819191918F010E94810621963D
S1130B50F701278530892F5F3F4FC217D3076CF306
S1130B60DF91CF911F910F91FF90EF9008958EE345
S1130B7091E09093D4018093D3019093B301809337
S1130B80B2018DE191E09093920180939101909351
S1130B907101809370019093500180934F01909361
S1130BA05802809357020E94730508950E9411050C
S1130BB08093560290911C01891709F47FC08130FB
S1130BC049F008F465C0823009F471C0833009F437
S1130BD072C074C08091570290915802E0915902FA
S1130BE0F0915A023197EE0FFF1FE80FF91F0388A7
S1130BF0F489E02D8081803559F028F48334C9F1DB
S1130C008834C9F05BC0823529F18335D9F056C0E8
S1130C10F0935802E09357020E94A102E091570218
S1130C20F0915802818992899093580280935702D7
S1130C300E94730543C0F0935802E09357020E9448
S1130C401C023CC0F0935802E0935702CF010E946B
S1130C50730534C00E948D03E0915702F09158024D
S1130C608189928990935802809357020E94730558
S1130C7025C00E94A804E0915702F091580281898E
S1130C80928990935802809357020E94730516C06C
S1130C90E0915702F091580281899289009771F08E
S1130CA090935802809357020E94730507C082E014
S1130CB00E942A0503C083E00E942A0580915602FF
S1130CC080931C010895CF93DF93EC0120E030E082
S1130CD0A0E0B2E1E881F0E0B097EE0FFF1FEE0F65
S1130CE0FF1FEE0FFF1FE20FF31FE059FF4FE491C8
S1130CF0EC932F5F3F4F2830310561F7DF91CF919F
S1130D000895CF93DF93FC012081222351F0EC015D
S1130D1021960E946306CE012196FC0120812111B7
S1130D20F8CFDF91CF910895E0E0F0E18EEA80837F
S1130D3081EA80838AED808382E1808388EC8083EA
S1130D4088EA80838FE3808385ED808380E88083D5
S1130D5081E8808380E5808389ED808381E28083DC
S1130D6080E2808310828BED808380E380838DEA30
S1130D708083108284EA808386EA80838FEA80837A
S1130D800895E0E0F0E191E2908360839FE790832F
S1130D9092E29083808387E08083089560E080E01E
S1130DA00E94C10680E094E0E0E0F2E11082019745
S1130DB00097E1F70895C4980895C49A08958FB9E7
S1130DC0779BFECF089580E00E94DF068FB10895DF
S1130DD087B3806B87BB81E58DB908955D9BFECF9A
S1130DE08CB980E090E008955F9BFECF8CB10895AC
S1130DF090BD89B988E18AB98EE880BD64EF76E058
S1130E008EEE96E00E942D07089597FB072E16F4A8
S1130E10009407D077FD09D00E94190707FC05D07C
S1130E203EF4909581959F4F0895709561957F4FFD
S1130E300895AA1BBB1B51E107C0AA1FBB1FA6171D
S1130E40B70710F0A61BB70B881F991F5A95A9F76F
S1130E5080959095BC01CD0108950F931F93CF9376
S1130E60DF93EC018B01009731F46115710519F4DE
S1130E7080E090E038C06EE070E081E090E00E9495
S1130E80A409FC010097A1F380E8838301151105EF
S1130E9071F01387028781E8838380915B029091CC
S1130EA05C02892B21F4F0935C02E0935B022097AF
S1130EB0C9F0D187C08783818260838380915D027A
S1130EC090915E02892B71F4F0935E02E0935D02CF
S1130ED080915F0290916002892B21F4F09360026B
S1130EE0E0935F02CF01DF91CF911F910F9108959D
S1130EF00F931F93CF93DF93E0915D02F0915E0215
S1130F00238121FF1BC0EC0100E010E08991609176
S1130F105D0270915E02DB011896ED91FC911997C8
S1130F20882331F00995892B89F30FEF1FEFEECF5A
S1130F308AE00995892B11F4C80102C08FEF9FEF55
S1130F40DF91CF911F910F910895AEE0B0E0EBEAED
S1130F50F7E00C94BF0B0D891E8986E08C831A83FD
S1130F6009838FEF9FE79E838D83AE01475E5F4FBA
S1130F706F89788DCE0101960E94C707EF81F885AD
S1130F80E00FF11F10822E96E4E00C94DB0BACE032
S1130F90B0E0EDECF7E00C94B10B7C016B018A013D
S1130FA0FC0117821682838181FFBDC1CE010196A7
S1130FB04C01F7019381F60193FD859193FF819193
S1130FC06F01882309F4ABC1853239F493FD85910F
S1130FD093FF81916F01853229F4B70190E00E945B
S1130FE0040BE7CF512C312C20E02032A0F48B32BB
S1130FF069F030F4803259F0833269F420612CC0F6
S11310008D3239F0803339F4216026C022602460A7
S113101023C0286021C027FD27C030ED380F3A30A7
S113102078F426FF06C0FAE05F9E300D1124532E9B
S113103013C08AE0389E300D1124332E20620CC078
S11310408E3221F426FD6BC1206406C08C3611F467
S1131050206802C0883641F4F60193FD859193FF20
S113106081916F018111C1CF982F9F7D9554933049
S113107028F40C5F1F4FFFE3F9830DC0833631F072
S1131080833771F0833509F05BC022C0F801808199
S113109089830E5F1F4F44244394512C540115C07F
S11310A03801F2E06F0E711CF801A080B18026FFB8
S11310B003C0652D70E002C06FEF7FEFC5012C8780
S11310C00E94F90A2C0183012C852F77222E17C048
S11310D03801F2E06F0E711CF801A080B18026FF88
S11310E003C0652D70E002C06FEF7FEFC5012C8750
S11310F00E94E70A2C012C852068222E830123FC00
S11311001BC0832D90E048165906B0F4B70180E265
S113111090E00E94040B3A94F4CFF50127FC8591EA
S113112027FE81915F01B70190E00E94040B31100A
S11311303A94F1E04F1A51084114510471F7E5C093
S1131140843611F0893639F5F80127FF07C060812C
S11311507181828193810C5F1F4F08C0608171810E
S1131160882777FD8095982F0E5F1F4F2F76B22E1C
S113117097FF09C090958095709561957F4F8F4F2B
S11311809F4F2068B22E2AE030E0A4010E94360B63
S1131190A82EA81844C0853729F42F7EB22E2AE041
S11311A030E025C0F22FF97FBF2E8F36C1F018F43E
S11311B0883579F0B4C0803719F0883721F0AFC092
S11311C02F2F2061B22EB4FE0DC08B2D8460B82E5B
S11311D009C024FF0AC09F2F9660B92E06C028E0DC
S11311E030E005C020E130E002C020E132E0F80147
S11311F0B7FE07C060817181828193810C5F1F4FAC
S113120006C06081718180E090E00E5F1F4FA401F1
S11312100E94360BA82EA818FB2DFF77BF2EB6FE12
S11312200BC02B2D2E7FA51450F4B4FE0AC0B2FCC3
S113123008C02B2D2E7E05C07A2C2B2D03C07A2CB2
S113124001C0752C24FF0DC0FE01EA0DF11D808143
S1131250803311F4297E09C022FF06C0739473946D
S113126004C0822F867809F0739423FD13C020FFF5
S113127006C05A2C731418F4530C5718732C731497
S113128068F4B70180E290E02C870E94040B739409
S11312902C85F5CF731410F4371801C0312C24FFBA
S11312A012C0B70180E390E02C870E94040B2C85C8
S11312B022FF17C021FF03C088E590E002C088E741
S11312C090E0B7010CC0822F867859F021FD02C04E
S11312D080E201C08BE227FD8DE2B70190E00E941D
S11312E0040BA51438F4B70180E390E00E94040BCA
S11312F05A94F7CFAA94F401EA0DF11D8081B70145
S113130090E00E94040BA110F5CF332009F451CED4
S1131310B70180E290E00E94040B3A94F6CFF70103
S11313208681978102C08FEF9FEF2C96E2E10C94A7
S1131330CD0BA8E1B0E042E050E00C94960B0E9483
S1131340A40B272F0C94A50B0F931F93CF93DF931C
S1131350869F8001879F100D969F100D1124C80150
S11313600E94C009EC01009729F0A80160E070E038
S11313700E94F20ACE01DF91CF911F910F9108953F
S1131380CF93DF938230910510F482E090E0E091F6
S11313906302F091640220E030E0A0E0B0E0309716
S11313A039F14081518148175907B8F04817590756
S11313B071F482819381109729F013969C938E93F4
S11313C012972CC0909364028093630227C0211566
S11313D0310531F04217530718F0A901DB0101C0B0
S11313E0EF019A01BD01DF010280F381E02DD7CF27
S11313F021153105F9F0281B390B2430310580F40F
S11314008A819B816115710521F0FB01938382839D
S113141004C09093640280936302FE01329644C038
S1131420FE01E20FF31F8193919322503109398316
S113143028833AC02091610230916202232B41F447
S113144020910201309103013093620220936102E2
S113145020910001309101012115310541F42DB78E
S11314603EB74091040150910501241B350BE091D6
S11314706102F0916202E217F307A0F42E1B3F0B06
S11314802817390778F0AC014E5F5F4F24173507F2
S113149048F04E0F5F1F50936202409361028193A4
S11314A0919302C0E0E0F0E0CF01DF91CF91089585
S11314B0CF93DF93009709F487C0FC01329713821E
S11314C01282C0916302D0916402209781F420813A
S11314D03181280F391F8091610290916202821735
S11314E0930779F5F0936202E09361026DC0DE0127
S11314F020E030E0AE17BF0750F412964D915C9196
S113150013979D014115510509F1DA01F3CFB38316
S1131510A28340815181840F951F8A179B0771F420
S11315208D919C911197840F951F029691838083CE
S113153012968D919C911397938382832115310583
S113154029F4F0936402E09363023EC0D901139638
S1131550FC93EE9312974D915D91A40FB51FEA177A
S1131560FB0779F480819181840F951F0296D9013C
S113157011969C938E938281938113969C938E9360
S11315801297E0E0F0E08A819B81009719F0FE0158
S1131590EC01F9CFCE01029628813981820F931F85
S11315A020916102309162022817390769F430975B
S11315B029F4109264021092630202C01382128210
S11315C0D0936202C0936102DF91CF910895FC0130
S11315D00590615070400110D8F7809590958E0F5A
S11315E09F1F0895DC0101C06D9341505040E0F706
S11315F00895FC016150704001900110D8F7809566
S113160090958E0F9F1F08950F931F93CF93DF9391
S1131610182F092FEB018B8181FD03C08FEF9FEF02
S113162020C082FF10C04E815F812C813D81421712
S113163053077CF4E881F9819F012F5F3F4F398381
S11316402883108306C0E885F985812F0995892BA5
S113165029F72E813F812F5F3F4F3F832E83812FB8
S1131660902FDF91CF911F910F910895FA01AA272E
S1131670283051F1203181F1E8946F936E7F6E5FD1
S11316807F4F8F4F9F4FAF4FB1E03ED0B4E03CD07F
S1131690670F781F891F9A1FA11D680F791F8A1F62
S11316A0911DA11D6A0F711D811D911DA11D20D0C9
S11316B009F468943F912AE0269F11243019305D83
S11316C03193DEF6CF010895462F4770405D419374
S11316D0B3E00FD0C9F7F6CF462F4F70405D4A33C1
S11316E018F0495D31FD4052419302D0A9F7EACF89
S11316F0B4E0A6959795879577956795BA95C9F7B8
S113170000976105710508959B01AC010A2E0694AA
S11317105795479537952795BA95C9F7620F731F63
S1131720841F951FA01D0895DC01CB01FC01E199E4
S1131730FECF06C0FFBBEEBBE09A31960DB20D9210
S113174041505040B8F70895262FE199FECF9FBB32
S11317508EBB2DBB0FB6F894E29AE19A0FBE0196A8
S113176008952F923F924F925F926F927F928F9241
S11317709F92AF92BF92CF92DF92EF92FF920F931C
S11317801F93CF93DF93CDB7DEB7CA1BDB0B0FB626
S1131790F894DEBF0FBECDBF09942A8839884888E3
S11317A05F846E847D848C849B84AA84B984C88479
S11317B0DF80EE80FD800C811B81AA81B981CE0F70
S11317C0D11D0FB6F894DEBF0FBECDBFED01089555
S10717D0F894FFCFB7
S11317D400006502200074013030303030303000B5
S11317E46A0230303030303030300100044D6169E9
S11317F46E204D656E7500000000000003000000BB
S113180480015F013E0100000000000000005365F8
S11318147474696E67730000000000000002000025
S113182400C201A101000000000000000000004803
S113183469676873636F72657300000000000000D9
S11318440000000000000000000000000000000090
S1131854506C61792067616D650000000000000030
S11318640000000000000000000000000000000070
S11318740052657365742053636F726573000000CE
S11318840000000000000000000000000000000050
S1131894000043616C6962726174650000000000B9
S11318A40000000000000000000000000000000030
S11318B40000006D0130300000000000004869673A
S11318C46873636F7265730025642E202564003089
S11318D43030303030303030303030303030303000
S11318E400202020202047414D4500202020205363
S11318F4636F72653A200020202020202020256474
S1131904004D435032353135206973206E6F742095
S1131914696E20636F6E666967206D6F646521006C
S10519242D0090
S9030000FC
