S00E00006E6F64655F312E73726563E0
S11300000C94B4010C94D1010C94D1010C94D10141
S11300100C94D1010C94D1010C94D1010C94D10114
S11300200C94D1010C94D1010C94D1010C94D10104
S11300300C94D1010C94D1010C94D1010C94D101F4
S11300400C94D1010C94D1010C94D1010C94D101E4
S11300500C94D1010C94D1010C94D1010C94D101D4
S11300600C94D1010C94D1010C94D1010C94D101C4
S1130070000000000000000000065F5F06000000B2
S11300800007070007070000147F7F147F7F140018
S1130090242E6B6B3A120000466630180C66620020
S11300A0307A4F5D377A48000407030000000000EF
S11300B0001C3E63410000000041633E1C00000040
S11300C0082A3E1C1C3E2A0808083E3E0808000078
S11300D000A0E0600000000008080808080800000C
S11300E000006060000000006030180C060301008E
S11300F03E7F594D7F3E000042427F7F40400000DA
S1130100627359496F660000226349497F360000D3
S1130110181C16137F7F1000276745457D390000A2
S11301203C7E4B4979300000036371190F070000CE
S1130130367F49497F360000064F49693F1E00005B
S113014000006C6C0000000000A0EC6C00000000DB
S1130150081C366341000000141414141414000025
S1130160004163361C080000020351590F060000C9
S11301703E7F415D5D1F1E007C7E13137E7C00006C
S1130180417F7F49497F36001C3E63414163220021
S1130190417F7F41637F1C00417F7F495D41630054
S11301A0417F7F491D0103001C3E6341517372006E
S11301B07F7F08087F7F000000417F7F41000000AF
S11301C0307040417F3F0100417F7F081C7763000E
S11301D0417F7F41406070007F7F060C067F7F0077
S11301E07F7F060C187F7F001C3E6341633E1C002A
S11301F0417F7F49090F06001E3F21717F5E000089
S1130200417F7F19396F460026674D597B320000C4
S113021003417F7F410300007F7F40407F7F0000D8
S11302201F3F60603F1F00007F7F3018307F7F00DA
S113023063771C081C776300074F78784F0700002A
S11302406773594D47637100007F7F41410000008F
S11302500103060C183060000041417F7F0000005C
S1130260080C0603060C0800808080808080808053
S11302700000030704000000207454543C7840003C
S1130280413F7F44447C3800387C44446C2800005F
S1130290307848493F7F4000387C54545C18000053
S11302A0487E7F490302000098BCA4A4F87C0400A3
S11302B0417F7F08047C780000447D7D400000007D
S11302C040C484FD7D000000417F7F10386C4400F1
S11302D000417F7F400000007C7C0C180C7C78007F
S11302E07C7C04047C780000387C44447C38000026
S11302F084FCF8A4243C1800183C24A4F8FC8400D2
S1130300447C78441C180000485C54547424000055
S113031000043E7F442400003C7C40403C7C400080
S11303201C3C60603C1C00003C7C6030607C3C00F9
S1130330446C3810386C44009CBCA0A0FC7C0000C9
S11303404C64745C4C64000008083E774141000032
S113035000000077770000004141773E0808000064
S1130360020301030203010011241FBECFEFD4E0F6
S1130370DEBFCDBF12E0A0E0B1E0E0EEFFE002C0DE
S113038005900D92AA33B107D9F722E0AAE3B2E0AF
S113039001C01D92AC34B207E1F70E949A020C949A
S11303A0EE070C9400008C5F8093001481E48A951E
S11303B0F1F700C080910014089580913A02909161
S11303C03B02892B89F483E090E00E94D3018536B7
S11303D0A8F080E191E00E94BE0281E090E0909359
S11303E03B0280933A02089583E090E00E94D30197
S11303F0843620F410923B0210923A020895CF9270
S1130400DF92EF92FF920F931F93CF93DF93CDB7B9
S1130410DEB72B970FB6F894DEBF0FBECDBF19829F
S11304208AE0E8EFF1E0DE01129601900D928A95E0
S1130430E1F7809124018C83CE0102960E94BE02D2
S11304400E94CF0560E080E00E94C20582E092E055
S11304500E94820560E084E00E94C2058CE092E084
S11304600E9482050F2EFCE1EF2EF1E0FF2EF02D0D
S11304700DE111E00F2EF8E0CF2EF1E0DF2EF02D8C
S11304800E94D503F7016083F80180838AE191E03B
S11304900E94BE028091240190912501019751F49C
S11304A082E090E00E94D301F601808386E091E02F
S11304B00E94BE02CE0102960E941603019731F4F7
S11304C08A81873619F489818F5F89830E94DD01CF
S11304D082E090E00E94D301853B30F080912401BA
S11304E090912501892BA9F080E090E00E94D3012E
S11304F0893C30F08091240190912501019749F0C5
S113050060E083E00E94C205CE0101960E9482054C
S1130510B7CF898190E02B960FB6F894DEBF0FBE5B
S1130520CDBFDF91CF911F910F91FF90EF90DF909E
S1130530CF9008958FE190E00E94F70585B7806819
S113054085BF0E94D2030E9495050E94AC020E94BE
S1130550400580E090E008950E94940340E06FEF2E
S113056080E00E94610340E060EE81E00E9461034C
S113057040E060EE8FE00E94610308951F93CF93E3
S1130580DF93EC01688181E30E94420360E082E32F
S11305900E944203698185E30E9442038981882382
S11305A069F010E0FE01E10FF11D628186E3810F25
S11305B00E9442031F5F89811817A0F381E890E02D
S11305C00E945603DF91CF911F910895EF92FF92FD
S11305D00F931F93CF93DF938C01E62E81E6860F52
S11305E00E943003F801808385E68E0D0E9430035B
S11305F0F8018183882399F0C0E0D0E0F6E6EF0E9D
S1130600FC2E8C2F8E0D0E943003F801EC0FF11D8F
S11306108283F3942196F8018181F81688F3DF919F
S1130620CF911F910F91FF90EF900895CF93DF9397
S1130630EC018CE20E94300380FF0DC060E070E0AA
S1130640CE010E94E60240E061E08CE20E94610378
S113065081E090E002C080E090E0DF91CF910895C6
S1130660CF93C82F0E94DC0583E00E94E0058C2F05
S11306700E94E0050E94E405C82F0E94DE058C2F2D
S1130680CF910895CF93DF93D82FC62F0E94DC0516
S113069082E00E94E0058D2F0E94E0058C2F0E94CD
S11306A0E0050E94DE05DF91CF910895CF93C82F16
S11306B00E94DC058C2F0E94E0050E94DE05CF918C
S11306C008951F93CF93DF93182FD62FC42F0E9422
S11306D0DC0585E00E94E005812F0E94E0058D2F56
S11306E00E94E0058C2F0E94E0050E94DE05DF9148
S11306F0CF911F9108950E94DC0580EC0E94E005D3
S11307000E94DE050895CF930E94DC0583E00E94D9
S1130710E0058EE00E94E0050E94E405C82F0E94D7
S1130720DE058C2FCF9108950E94E9050E947B037A
S11307300E948303807E803821F088E192E00E9449
S113074077060895EF92FF920F931F93CF93DF9351
S1130750CAE0D0E000E010E0E12CF12C81E090E070
S11307600E94D301E80EF11C80E090E00E94D301C6
S1130770080F111D2197209789F72AE030E0C7015F
S1130780B9010E94040660933D02C801B9010E94A8
S1130790040660933C02DF91CF911F910F91FF906B
S11307A0EF9008950E94A2030895CF93DF9381E010
S11307B090E00E94D30190E020913D02821B9109B8
S11307C044E6489F9001499F300D1124332314F4CB
S11307D021583F4FE901CC0FCD2FCC1FDD0B80E01A
S11307E090E00E94D30190E020913C02821B910989
S11307F044E6489F9001499F300D1124332314F49B
S113080021583F4FBE01C901880F892F881F990BBA
S1130810DF91CF9108950E94D5036734710564F484
S11308206A3B4FEF740754F0873491054CF48A3BCC
S11308309F4F44F483E0089581E0089580E0089593
S113084082E0089584E00895833041F58091400268
S113085090914102AC014F5F5F4FE0913E02F091F5
S11308603F022785308924173507B4F160E00E94E0
S1130870C20586E192E00E94820580914002909137
S113088041020196909341028093400260E00E94ED
S1130890C20587E392E00E94820508958091400298
S11308A09091410282309105BCF060E00E94C20543
S11308B086E192E00E94820580914002909141027B
S11308C00197909341028093400260E00E94C20528
S11308D087E392E00E9482050895EF92FF920F93BE
S11308E01F93CF93DF937C0181E090E090934102CA
S11308F0809340020E94CF0560E080E00E94C20520
S1130900C7010E94820560E0809140020E94C205F6
S113091087E392E00E948205F7018785908901961A
S11309200297C4F087010B5E1F4FC1E0D0E068E07E
S11309308C2F0E94C205F801819191918F010E9430
S113094082052196F701278530892F5F3F4FC21713
S1130950D3076CF3DF91CF911F910F91FF90EF902C
S113096008950F931F93CF93DF938C01EB010E94A3
S11309700B04F80180839881891709F464C08130DD
S113098049F008F44AC0823009F456C0833009F4AF
S113099057C059C080913E0290913F02E0914002BD
S11309A0F09141023197EE0FFF1FE80FF91F058800
S11309B0F689E02D8081803531F08335B9F08334B8
S11309C009F041C01BC0F0933F02E0933E020E9435
S11309D0FF01E0913E02F0913F0283899489909354
S11309E03F0280933E020E946D042DC0F0933F02AB
S11309F0E0933E02CF010E946D0425C00E94A20331
S1130A00E0913E02F0913F028389948990933F02E2
S1130A1080933E020E946D0416C0E0913E02F09164
S1130A203F0283899489009771F090933F028093E9
S1130A303E020E946D0407C082E00E94240403C0A9
S1130A4083E00E942404F80180818883DF91CF91A0
S1130A501F910F910895CF93DF9300D0CDB7DEB7E8
S1130A6084E08A83BE016E5F7F4FCE0101960E94AF
S1130A70B1048FEF9FE20197F1F700C00000F2CFBD
S1130A808CE691E09093E9018093E80186E291E09D
S1130A909093C6018093C5019093A3018093A20112
S1130AA09093800180937F0190933F0280933E0254
S1130AB081E090E0909341028093400286E291E0CD
S1130AC00E946D040E942B05CF93DF93EC0120E07C
S1130AD030E0A0E0B2E1E881F0E0B097EE0FFF1F54
S1130AE0EE0FFF1FEE0FFF1FE20FF31FE059FF4F42
S1130AF0E491EC932F5F3F4F2830310561F7DF918C
S1130B00CF910895CF93DF93FC012081222351F0EC
S1130B10EC0121960E946405CE012196FC012081FE
S1130B202111F8CFDF91CF910895E0E0F0E18EEA52
S1130B30808381EA80838AED808382E1808388ECEC
S1130B40808388EA80838FE3808385ED808380E8D7
S1130B50808381E8808380E5808389ED808381E2DE
S1130B60808380E2808310828BED808380E38083A6
S1130B708DEA8083108284EA808386EA80838FEA08
S1130B8080830895E0E0F0E191E2908360839FE741
S1130B90908392E29083808387E08083089560E06D
S1130BA080E00E94C20580E094E0E0E0F2E110827F
S1130BB001970097E1F70895C4980895C49A089599
S1130BC08FB9779BFECF089580E00E94E0058FB136
S1130BD0089587B3806B87BB81E58DB908955D9BCC
S1130BE0FECF8CB908955F9BFECF8CB1089590BD64
S1130BF089B988E18AB98EE880BD63EF75E08FEE2C
S1130C0095E00E942C06089597FB072E16F4009495
S1130C1007D077FD09D00E94180607FC05D03EF4E2
S1130C20909581959F4F0895709561957F4F089594
S1130C30AA1BBB1B51E107C0AA1FBB1FA617B707FE
S1130C4010F0A61BB70B881F991F5A95A9F780951A
S1130C509095BC01CD0108950F931F93CF93DF931B
S1130C60EC018B01009731F46115710519F480E0F2
S1130C7090E038C06EE070E081E090E00E94A4064D
S1130C80FC010097A1F380E883830115110571F03D
S1130C901387028781E88383809142029091430203
S1130CA0892B21F4F0934302E09342022097C9F088
S1130CB0D187C0878381826083838091440290912D
S1130CC04502892B71F4F0934502E093440280912C
S1130CD0460290914702892B21F4F0934702E09356
S1130CE04602CF01DF91CF911F910F9108950F9389
S1130CF01F93CF93DF93E0914402F0914502238147
S1130D0021FF1BC0EC0100E010E0899160914402D6
S1130D1070914502DB011896ED91FC911997882397
S1130D2031F00995892B89F30FEF1FEFEECF8AE09D
S1130D300995892B11F4C80102C08FEF9FEFDF9151
S1130D40CF911F910F9108950F931F93CF93DF932A
S1130D50869F8001879F100D969F100D1124C80156
S1130D600E94C006EC01009729F0A80160E070E041
S1130D700E94E707CE01DF91CF911F910F91089553
S1130D80CF93DF938230910510F482E090E0E091FC
S1130D904A02F0914B0220E030E0A0E0B0E030974E
S1130DA039F14081518148175907B8F0481759075C
S1130DB071F482819381109729F013969C938E93FA
S1130DC012972CC090934B0280934A0227C021159E
S1130DD0310531F04217530718F0A901DB0101C0B6
S1130DE0EF019A01BD01DF010280F381E02DD7CF2D
S1130DF021153105F9F0281B390B2430310580F415
S1130E008A819B816115710521F0FB0193838283A3
S1130E1004C090934B0280934A02FE01329644C070
S1130E20FE01E20FF31F819391932250310939831C
S1130E3028833AC02091480230914902232B41F47F
S1130E40209102013091030130934902209348021A
S1130E5020910001309101012115310541F42DB794
S1130E603EB74091040150910501241B350BE091DC
S1130E704802F0914902E217F307A0F42E1B3F0B3E
S1130E802817390778F0AC014E5F5F4F24173507F8
S1130E9048F04E0F5F1F50934902409348028193DC
S1130EA0919302C0E0E0F0E0CF01DF91CF9108958B
S1130EB0CF93DF93009709F487C0FC013297138224
S1130EC01282C0914A02D0914B02209781F4208172
S1130ED03181280F391F809148029091490282176D
S1130EE0930779F5F0934902E09348026DC0DE015F
S1130EF020E030E0AE17BF0750F412964D915C919C
S1130F0013979D014115510509F1DA01F3CFB3831C
S1130F10A28340815181840F951F8A179B0771F426
S1130F208D919C911197840F951F029691838083D4
S1130F3012968D919C911397938382832115310589
S1130F4029F4F0934B02E0934A023EC0D901139670
S1130F50FC93EE9312974D915D91A40FB51FEA1780
S1130F60FB0779F480819181840F951F0296D90142
S1130F7011969C938E938281938113969C938E9366
S1130F801297E0E0F0E08A819B81009719F0FE015E
S1130F90EC01F9CFCE01029628813981820F931F8B
S1130FA020914802309149022817390769F4309793
S1130FB029F410924B0210924A0202C01382128248
S1130FC0D0934902C0934802DF91CF910895DC0188
S1130FD001C06D9341505040E0F70895F894FFCF5D
S1130FE000004C02200074013030303030303000CA
S1130FF0730100000000000000006A02303030304D
S11310003030303001004D61696E204D656E7500E1
S11310100000000000040000000000B2018F016C19
S1131020014901000000000000446562756700008A
S113103000000000000000000000000000000000AC
S113104000000000000000000000000053657474FC
S1131050696E6773000000000000000100000000DA
S113106000D501000000000000000000000000485E
S113107069676873636F72657300000000000000A5
S1131080000000000000000000000000000000005C
S11310900000506C61792067616D650000000000FC
S11310A0000000000000000000000000000000003C
S11310B0000000000043616C6962726174650000A5
S11310C0000000000000000000000000000000001C
S11310D000000000000000006D013030000000003E
S11310E00000202020202047414D450020202020C2
S11310F053636F72653A20004D43503235313520C9
S11311006973206E6F7420696E20636F6E66696701
S10D1110206D6F646521002D0000BE
S9030000FC
