S00E00006E6F74655F312E73726563D0
S11300000C9438000C9455000C9455000C94550035
S11300100C9455000C9455000C9455000C94550008
S11300200C9455000C9455000C9455000C945500F8
S11300300C9455000C9455000C9455000C945500E8
S11300400C9455000C9455000C9455000C945500D8
S11300500C9455000C9455000C9455000C945500C8
S11300600C9455000C9455000C9455000C945500B8
S113007011241FBECFEFD4E0DEBFCDBF11E0A0E05E
S1130080B1E0E2E1FEE002C005900D92A434B107B4
S1130090D9F721E0A4E4B1E001C01D92A035B20774
S11300A0E1F70E9461000C9407070C9400008C5F38
S11300B08093001481E48A95F1F700C080910014C4
S11300C00895CF93DF93CDB7DEB764970FB6F89456
S11300D0DEBF0FBECDBF8FE190E00E94460285B720
S11300E0806885BF0E94FB010E94FE010E94F4000B
S11300F040E060EE8FE00E948A018AE0E6E0F1E0F1
S1130100DE01119601900D928A95E1F7CE010196D8
S11301100E9401018FEF9FEB0197F1F700C00000EF
S113012060E070E0CE010B960E9429018C851F923D
S11301308F938B851F928F9380E191E09F938F9390
S11301400E94C6028E01035F1F4F7E0195E1E90EF6
S1130150F11C0F900F900F900F900F900F9068016B
S1130160F60181916F0190E00E94DA02CE14DF045F
S1130170B9F78AE090E00E94DA020F2EF0E1CF2E68
S1130180F1E0DF2EF02DA02EB12E60E070E0CE0164
S11301900B960E9429018C851F928F938B851F9249
S11301A08F93DF92CF920E94C6020F900F900F9010
S11301B00F900F900F900A2D1B2DF80181918F0144
S11301C090E00E94DA020E151F05B9F78AE090E06C
S11301D00E94DA02FFEF2FEF8EE0F15020408040C2
S11301E0E1F700C00000D1CF0E94BD0140E06FEFF5
S11301F080E00E948A0140E060EE81E00E948A0172
S113020008951F93CF93DF93EC01688181E30E94EB
S11302106B0160E082E30E946B01698185E30E94C7
S11302206B018981882369F010E0FE01E10FF11D63
S1130230628186E3810F0E946B011F5F8981181719
S1130240A0F381E890E00E947F01DF91CF911F919C
S11302500895EF92FF920F931F93CF93DF938C0136
S1130260E62E81E6860F0E945901F801808385E617
S11302708E0D0E945901F8018183882399F0C0E012
S1130280D0E0F6E6EF0EFC2E8C2F8E0D0E94590165
S1130290F801EC0FF11D8283F3942196F80181811A
S11302A0F81688F3DF91CF911F910F91FF90EF9093
S11302B00895CF93C82F0E942B0283E00E942F023F
S11302C08C2F0E942F020E943302C82F0E942D02FD
S11302D08C2FCF910895CF93DF93D82FC62F0E94F0
S11302E02B0282E00E942F028D2F0E942F028C2F5E
S11302F00E942F020E942D02DF91CF910895CF9387
S1130300C82F0E942B028C2F0E942F020E942D02C4
S1130310CF9108951F93CF93DF93182FD62FC42F17
S11303200E942B0285E00E942F02812F0E942F023F
S11303308D2F0E942F028C2F0E942F020E942D02CB
S1130340DF91CF911F9108950E942B0280EC0E94AF
S11303502F020E942D020895CF930E942B0283E066
S11303600E942F028EE00E942F020E943302C82FA7
S11303700E942D028C2FCF9108950E9438020E9472
S1130380A4010E94AC01807E803821F085E291E0D6
S11303900E94E1020895EF92FF920F931F93CF936F
S11303A0DF93CAE0D0E000E010E0E12CF12C81E022
S11303B090E00E945700E80EF11C80E090E00E945B
S11303C05700080F111D2197209789F72AE030E084
S11303D0C701B9010E94530260934501C801B901E4
S11303E00E94530260934401DF91CF911F910F91BA
S11303F0FF90EF9008950E94CB010895E0E0F0E1B2
S11304008EEA808381EA80838AED808382E180831F
S113041088EC808388EA80838FE3808385ED808302
S113042080E8808381E8808380E5808389ED808310
S113043081E2808380E2808310828BED808380E37D
S113044080838DEA8083108284EA808386EA8083B5
S11304508FEA80830895C4980895C49A08958FB943
S1130460779BFECF089580E00E942F028FB10895FC
S113047087B3806B87BB81E58DB908955D9BFECF03
S11304808CB908955F9BFECF8CB1089590BD89B956
S113049088E18AB98EE880BD62E472E08EE392E07E
S11304A00E947B02089597FB072E16F4009407D050
S11304B077FD09D00E94670207FC05D03EF49095B1
S11304C081959F4F0895709561957F4F0895AA1B5C
S11304D0BB1B51E107C0AA1FBB1FA617B70710F02B
S11304E0A61BB70B881F991F5A95A9F7809590955D
S11304F0BC01CD0108950F931F93CF93DF93EC01BB
S11305008B01009731F46115710519F480E090E0D6
S113051038C06EE070E081E090E00E94E004FC01ED
S11305200097A1F380E883830115110571F0138707
S1130530028781E883838091460190914701892B4A
S113054021F4F0934701E09346012097C9F0D18745
S1130550C08783818260838380914801909149019F
S1130560892B71F4F0934901E093480180914A0189
S113057090914B01892B21F4F0934B01E0934A01B4
S1130580CF01DF91CF911F910F910895A0E0B0E0CA
S1130590ECECF2E00C94E006FE0135966191719169
S11305A0AF0180914801909149010E940E03E2E05D
S11305B00C94FC0660914801709149010E94400628
S11305C008950F931F93CF93DF93E0914801F09127
S11305D04901238121FF1BC0EC0100E010E0899157
S11305E06091480170914901DB011896ED91FC91ED
S11305F01997882331F00995892B89F30FEF1FEFA1
S1130600EECF8AE00995892B11F4C80102C08FEF5F
S11306109FEFDF91CF911F910F910895ACE0B0E06F
S1130620E4E1F3E00C94D0067C016B018A01FC0147
S113063017821682838181FFBDC1CE0101964C01D0
S1130640F7019381F60193FD859193FF81916F01E9
S1130650882309F4ABC1853239F493FD859193FF66
S113066081916F01853229F4B70190E00E94400620
S1130670E7CF512C312C20E02032A0F48B3269F0EA
S113068030F4803259F0833269F420612CC08D3209
S113069039F0803339F4216026C02260246023C0FD
S11306A0286021C027FD27C030ED380F3A3078F498
S11306B026FF06C0FAE05F9E300D1124532E13C0AE
S11306C08AE0389E300D1124332E20620CC08E3205
S11306D021F426FD6BC1206406C08C3611F4206819
S11306E002C0883641F4F60193FD859193FF819110
S11306F06F018111C1CF982F9F7D9554933028F4B9
S11307000C5F1F4FFFE3F9830DC0833631F083374D
S113071071F0833509F05BC022C0F80180818983C0
S11307200E5F1F4F44244394512C540115C03801CB
S1130730F2E06F0E711CF801A080B18026FF03C0A7
S1130740652D70E002C06FEF7FEFC5012C870E941A
S113075035062C0183012C852F77222E17C03801F2
S1130760F2E06F0E711CF801A080B18026FF03C077
S1130770652D70E002C06FEF7FEFC5012C870E94EA
S113078023062C012C852068222E830123FC1BC008
S1130790832D90E048165906B0F4B70180E290E04A
S11307A00E9440063A94F4CFF50127FC859127FE78
S11307B081915F01B70190E00E94400631103A94A4
S11307C0F1E04F1A51084114510471F7E5C0843621
S11307D011F0893639F5F80127FF07C0608171816E
S11307E0828193810C5F1F4F08C0608171818827CB
S11307F077FD8095982F0E5F1F4F2F76B22E97FFAF
S113080009C090958095709561957F4F8F4F9F4F4C
S11308102068B22E2AE030E0A4010E947206A82EBD
S1130820A81844C0853729F42F7EB22E2AE030E080
S113083025C0F22FF97FBF2E8F36C1F018F488350A
S113084079F0B4C0803719F0883721F0AFC02F2F6A
S11308502061B22EB4FE0DC08B2D8460B82E09C069
S113086024FF0AC09F2F9660B92E06C028E030E00E
S113087005C020E130E002C020E132E0F801B7FE1B
S113088007C060817181828193810C5F1F4F06C014
S11308906081718180E090E00E5F1F4FA4010E948F
S11308A07206A82EA818FB2DFF77BF2EB6FE0BC02C
S11308B02B2D2E7FA51450F4B4FE0AC0B2FC08C040
S11308C02B2D2E7E05C07A2C2B2D03C07A2C01C033
S11308D0752C24FF0DC0FE01EA0DF11D80818033CB
S11308E011F4297E09C022FF06C07394739404C0D6
S11308F0822F867809F0739423FD13C020FF06C06D
S11309005A2C731418F4530C5718732C731468F47A
S1130910B70180E290E02C870E94400673942C85F6
S1130920F5CF731410F4371801C0312C24FF12C012
S1130930B70180E390E02C870E9440062C8522FFBB
S113094017C021FF03C088E590E002C088E790E06B
S1130950B7010CC0822F867859F021FD02C080E2D5
S113096001C08BE227FD8DE2B70190E00E944006B2
S1130970A51438F4B70180E390E00E9440065A942D
S1130980F7CFAA94F401EA0DF11D8081B70190E03C
S11309900E944006A110F5CF332009F451CEB701CF
S11309A080E290E00E9440063A94F6CFF7018681F7
S11309B0978102C08FEF9FEF2C96E2E10C94EC0636
S11309C00F931F93CF93DF93869F8001879F100D12
S11309D0969F100D1124C8010E94FC04EC0100979D
S11309E029F0A80160E070E00E942E06CE01DF919C
S11309F0CF911F910F910895CF93DF93823091058A
S1130A0010F482E090E0E0914E01F0914F0120E07B
S1130A1030E0A0E0B0E0309739F1408151814817CF
S1130A205907B8F04817590771F4828193811097D8
S1130A3029F013969C938E9312972CC090934F0198
S1130A4080934E0127C02115310531F04217530719
S1130A5018F0A901DB0101C0EF019A01BD01DF011A
S1130A600280F381E02DD7CF21153105F9F0281B41
S1130A70390B2430310580F48A819B81611571051D
S1130A8021F0FB019383828304C090934F018093F0
S1130A904E01FE01329644C0FE01E20FF31F819322
S1130AA0919322503109398328833AC020914C0113
S1130AB030914D01232B41F4209102013091030127
S1130AC030934D0120934C0120910001309101019C
S1130AD02115310541F42DB73EB7409104015091E1
S1130AE00501241B350BE0914C01F0914D01E217F7
S1130AF0F307A0F42E1B3F0B2817390778F0AC013D
S1130B004E5F5F4F2417350748F04E0F5F1F509319
S1130B104D0140934C018193919302C0E0E0F0E0D9
S1130B20CF01DF91CF910895CF93DF93009709F41C
S1130B3087C0FC01329713821282C0914E01D0917A
S1130B404F01209781F420813181280F391F809132
S1130B504C0190914D018217930779F5F0934D0163
S1130B60E0934C016DC0DE0120E030E0AE17BF071A
S1130B7050F412964D915C9113979D0141155105C6
S1130B8009F1DA01F3CFB383A28340815181840F49
S1130B90951F8A179B0771F48D919C911197840F6F
S1130BA0951F02969183808312968D919C91139741
S1130BB0938382832115310529F4F0934F01E09347
S1130BC04E013EC0D9011396FC93EE9312974D91BA
S1130BD05D91A40FB51FEA17FB0779F48081918119
S1130BE0840F951F0296D90111969C938E9382814E
S1130BF0938113969C938E931297E0E0F0E08A81A0
S1130C009B81009719F0FE01EC01F9CFCE01029609
S1130C1028813981820F931F20914C0130914D011D
S1130C202817390769F4309729F410924F0110926C
S1130C304E0102C013821282D0934D01C0934C0125
S1130C40DF91CF910895FC0105906150704001102F
S1130C50D8F7809590958E0F9F1F0895DC0101C0F1
S1130C606D9341505040E0F70895FC01615070408D
S1130C7001900110D8F7809590958E0F9F1F0895CD
S1130C800F931F93CF93DF93182F092FEB018B81C1
S1130C9081FD03C08FEF9FEF20C082FF10C04E8103
S1130CA05F812C813D81421753077CF4E881F981EF
S1130CB09F012F5F3F4F39832883108306C0E88547
S1130CC0F985812F0995892B29F72E813F812F5F83
S1130CD03F4F3F832E83812F902FDF91CF911F9120
S1130CE00F910895FA01AA27283051F1203181F19A
S1130CF0E8946F936E7F6E5F7F4F8F4F9F4FAF4F20
S1130D00B1E03ED0B4E03CD0670F781F891F9A1F32
S1130D10A11D680F791F8A1F911DA11D6A0F711DE6
S1130D20811D911DA11D20D009F468943F912AE0F2
S1130D30269F11243019305D3193DEF6CF010895DA
S1130D40462F4770405D4193B3E00FD0C9F7F6CF0B
S1130D50462F4F70405D4A3318F0495D31FD4052D3
S1130D60419302D0A9F7EACFB4E0A6959795879569
S1130D7077956795BA95C9F7009761057105089548
S1130D809B01AC010A2E06945795479537952795F4
S1130D90BA95C9F7620F731F841F951FA01D08958C
S1130DA02F923F924F925F926F927F928F929F9277
S1130DB0AF92BF92CF92DF92EF92FF920F931F9365
S1130DC0CF93DF93CDB7DEB7CA1BDB0B0FB6F89416
S1130DD0DEBF0FBECDBF09942A88398848885F8456
S1130DE06E847D848C849B84AA84B984C884DF80C7
S1130DF0EE80FD800C811B81AA81B981CE0FD11DAB
S1130E000FB6F894DEBF0FBECDBFED010895F89480
S1050E10FFCF0E
S1130E12000050012000660868616C6C6F31323347
S1130E2249443A202564202C4C656E6774683A2044
S1130E3225642C20004D435032353135206973200E
S1130E426E6F7420696E20636F6E666967206D6FC2
S1070E5264652100AE
S9030000FC
