:1000000071C000008EC000008CC000008AC00000DB
:1000100088C0000086C0000084C0000082C00000CC
:1000200080C000007EC000007CC000007AC00000DC
:1000300078C0000076C0000074C0000072C00000EC
:1000400070C000006EC000006CC000006AC00000FC
:1000500068C0000066C0000064C0000062C000000C
:1000600060C000005EC000005CC000005AC000001C
:1000700058C0000056C0000054C0000052C000002C
:1000800050C000004EC000004CC000004AC000003C
:1000900048C0000046C0000044C0000042C000004C
:1000A00040C000003EC000003CC000003AC000005C
:1000B00038C0000036C0000034C0000032C000006C
:1000C00030C000002EC000002CC000002AC000007C
:1000D00028C0000026C0000024C0000022C000008C
:1000E00020C0000011241FBECFEFD1E2DEBFCDBF84
:1000F00000E00CBF12E0A0E0B2E0E2ECFFE000E0C4
:100100000BBF02C007900D92A834B107D9F722E0C7
:10011000A8E4B2E001C01D92A735B207E1F710D004
:100120004EC76ECFFC0120812A3621F0203731F4F2
:100130006FC10895FC01828129C0089569C10895A5
:10014000CF93DF93CDB7DEB72A970FB6F894DEBF13
:100150000FBECDBFC6D054D077D087E690E08FD207
:1001600035D08FEF80BB2FEF89EF90E0215080409A
:100170009040E1F700C00000CE01019623D1019725
:1001800019F4CE010196CEDF7DD0EDCF882314F493
:100190008B9801C08B9A282F332727FD3095332366
:1001A0001CF43195219531094FEF429FC001439FC7
:1001B000900D112464E670E072D260934C0241E02D
:1001C00050E06CE472E080E518C20895DBD18FEF57
:1001D00080BB109207018C9A8EECD8DF2FEF8DE256
:1001E00092E2215080409040E1F700C0000080E0A2
:1001F000CDDF8E982AE12A95F1F700C08E9A0895F6
:10020000E0E8F0E0808182608083A1E8B0E08C913A
:1002100088618C938C9182608C938C918A7F8C9373
:1002200080818068808380818F7B808380E49CE9EB
:10023000909387008093860088E097E090938900F0
:1002400080938800269A08958098EAE7F0E08081FC
:100250008F6E8083ECE7F0E0808180668083089574
:10026000E9E7F0E02081808190E0820F911D2081FC
:10027000820F911D2081820F911D959587959595EF
:100280008795089580914A0290914B02892B79F4C9
:10029000E7DF8093080288321CF581E090E09093BC
:1002A0004B0280934A0286E092E029C00895809133
:1002B00048029091490201968A3191052CF490935D
:1002C0004902809348020895109249021092480210
:1002D000C7DF90E0899724F010924B0210924A02F7
:1002E000089533D140E06FEF80E00AD140E060EE46
:1002F00081E006D140E060EE8FE002C10895EF9208
:10030000FF920F931F93CF93DF937C01FC016081D9
:1003100081E3DFD060E082E3DCD0F701618185E337
:10032000D8D0F70181811816A4F487010E5F1F4F02
:10033000C0E0D0E0F80161918F018C2F8A5CC9D0B8
:100340002196F7012181332727FD3095C217D30766
:100350008CF381E890E0CCD0DF91CF911F910F9189
:10036000FF90EF900895EF92FF920F931F93CF931A
:10037000DF938C01E62E81E6860F9ED0F801808304
:1003800085E68E0D99D0F80181831816A4F4C0E09B
:10039000D0E0F6E6EF0EFC2E8C2F8E0D8DD0F801FE
:1003A000EC0FF11DC7FDFA958283F3942196F801B5
:1003B0008181F81684F3DF91CF911F910F91FF9007
:1003C000EF900895CF93DF93EC018CE275D080FF1E
:1003D0000BC060E070E0CE01C6DF40E061E08CE27F
:1003E0008FD081E090E011C08CE266D081FF0BC01D
:1003F00061E070E0CE01B7DF40E062E08CE280D0E7
:1004000081E090E002C080E090E0DF91CF9108951C
:10041000CF92DF92EF92FF920F931F93CF93DF93D0
:100420006C01FC012181822F992787FD90959F9374
:100430002F932081822F992787FD90959F932F934B
:1004400080E192E09F938F939BD10F900F900F903C
:100450000F900F900F90F601818118160CF5760120
:10046000F2E0EF0EF11CC0E0D0E005E212E0F7018F
:1004700021917F01822F992787FD90959F932F933C
:100480001F930F937DD12196F6012181332727FDFC
:1004900030950F900F900F900F90C217D3073CF339
:1004A0008AE090E07ED1DF91CF911F910F91FF9074
:1004B000EF90DF90CF900895CF93C82F50D083E076
:1004C00052D08C2F50D054D0C82F4BD08C2FCF91DE
:1004D0000895CF93DF93D82FC62F41D082E043D029
:1004E0008D2F41D08C2F3FD03CD0DF91CF910895FC
:1004F000CF93C82F34D08C2F36D033D0CF910895DE
:100500001F93CF93DF93182FD62FC42F28D085E0C9
:100510002AD0812F28D08D2F26D08C2F24D021D0E7
:10052000DF91CF911F9108951AD080EC1CD019C093
:100530000895CF9314D083E016D08EE014D018D055
:10054000C82F0FD08C2FCF91089516D0EDDFF1DF9B
:10055000807E803819F088E292E028C108952898BA
:100560000895289A08958EBD0DB407FEFDCF089515
:1005700080E0F9DF8EB5089584B1876084B981E5A4
:100580008CBD08958CE08093B8000895ECEBF0E00A
:10059000108294EA908390819923ECF79091B900AE
:1005A000987F9830A1F48093BB0084E88093BC00CE
:1005B000ECEBF0E080818823ECF79091B900987F14
:1005C000983139F081E0903429F480E0089581E099
:1005D000089580E008958093BB0084E88093BC0078
:1005E000ECEBF0E080818823ECF79091B900987FE4
:1005F00081E0983209F480E00895DF92EF92FF9253
:100600000F931F93CF93DF937B018A01BFDF81118B
:1006100015C0E1DFD82E811114C00115110551F06C
:10062000E7010E0D1F1D8991D6DF81110DC0C01786
:10063000D107C9F784E98093BC0008C0DD24D394B6
:1006400005C0DD24D39402C0DD24D3948D2DDF9129
:10065000CF911F910F91FF90EF90DF900895E0EC04
:10066000F0E0908195FFFDCF8093C6000895E0EC07
:10067000F0E080818823ECF78091C6000895909384
:10068000C5008093C40088E18093C10086E0809318
:10069000C20067E373E08FE293E028C0089597FB00
:1006A000072E16F4009406D077FD08D00BD007FC77
:1006B00005D03EF4909581959F4F08957095619572
:1006C0007F4F0895AA1BBB1B51E107C0AA1FBB1F88
:1006D000A617B70710F0A61BB70B881F991F5A95CE
:1006E000A9F780959095BC01CD0108950F931F93B4
:1006F000CF93DF93EC018B01009731F46115710505
:1007000019F480E090E037C06EE070E081E090E0A6
:1007100068D2FC010097A9F380E8838301151105D5
:1007200071F01387028781E8838380914D02909155
:100730004E02892B21F4F0934E02E0934D02209754
:10074000C9F0D187C08783818260838380914F0203
:1007500090915002892B71F4F0935002E0934F0274
:100760008091510290915202892B21F4F093520210
:10077000E0935102CF01DF91CF911F910F91089526
:10078000CF93DF93CDB7DEB7FE01369661917191BD
:10079000AF0180914F029091500235D0DF91CF91FF
:1007A000089560914F027091500279C30F931F9387
:1007B000CF93DF93E0914F02F0915002238121FF0C
:1007C0001BC0EC0100E010E0899160914F02709134
:1007D0005002DB011896ED91FC911997882331F0B6
:1007E0001995892B89F30FEF1FEFEECF8AE019954A
:1007F000892B11F4C80102C08FEF9FEFDF91CF91D9
:100800001F910F9108952F923F924F925F926F9296
:100810007F928F929F92AF92BF92CF92DF92EF9290
:10082000FF920F931F93CF93DF93CDB7DEB72C9733
:100830000FB6F894DEBF0FBECDBF7C016B018A01FD
:10084000FC0117821682838181FFB0C1CE0101961F
:100850004C01F7019381F60193FD859193FF8191FE
:100860006F01882309F49EC1853239F493FD859187
:1008700093FF81916F01853221F4B70190E00FD38E
:10088000E8CF512C312C20E02032A0F48B3269F0DB
:1008900030F4803259F0833269F420612CC08D32FB
:1008A00039F0803339F4216026C02260246023C0EF
:1008B000286021C027FD27C030ED380F3A3078F48A
:1008C00026FF06C0FAE05F9E300D1124532E13C0A0
:1008D0008AE0389E300D1124332E20620CC08E32F7
:1008E00021F426FD5FC1206406C08C3611F4206817
:1008F00002C0883641F4F60193FD859193FF819102
:100900006F018111C1CF982F9F7D9554933028F4AA
:100910000C5F1F4FFFE3F9830DC0833631F083373F
:1009200071F0833509F057C021C0F80180818983B7
:100930000E5F1F4F44244394512C540114C03801BE
:10094000F2E06F0E711CF801A080B18026FF03C099
:10095000652D70E002C06FEF7FEFC5012C8794D248
:100960002C0183012C852F77222E16C03801F2E04E
:100970006F0E711CF801A080B18026FF03C0652DA9
:1009800070E002C06FEF7FEFC5012C876BD22C01A6
:100990002C852068222E830123FC19C0832D90E032
:1009A00048165906A0F4B70180E290E078D23A9454
:1009B000F5CFF50127FC859127FE81915F01B701F5
:1009C00090E06DD231103A94F1E04F1A5108411481
:1009D000510479F7DEC0843611F0893631F5F8011B
:1009E00027FF07C060817181828193810C5F1F4F57
:1009F00008C060817181882777FD8095982F0E5FF0
:100A00001F4F2F76B22E97FF09C090958095709555
:100A100061957F4F8F4F9F4F2068B22E2AE030E0C4
:100A2000A4016FD2A82EA81843C0853729F42F7EC1
:100A3000B22E2AE030E025C0F22FF97FBF2E8F368C
:100A4000C1F018F4883579F0ADC0803719F08837D7
:100A500021F0A8C02F2F2061B22EB4FE0DC08B2D27
:100A60008460B82E09C024FF0AC09F2F9660B92E5B
:100A700006C028E030E005C020E130E002C020E1FF
:100A800032E0F801B7FE07C06081718182819381F5
:100A90000C5F1F4F06C06081718180E090E00E5FA7
:100AA0001F4FA4012ED2A82EA818FB2DFF77BF2E12
:100AB000B6FE0BC02B2D2E7FA51450F4B4FE0AC039
:100AC000B2FC08C02B2D2E7E05C07A2C2B2D03C026
:100AD0007A2C01C0752C24FF0DC0FE01EA0DF11D1A
:100AE0008081803311F4297E09C022FF06C07394EF
:100AF000739404C0822F867809F0739423FD12C08A
:100B000020FF06C05A2C731418F4530C5718732C7A
:100B1000731460F4B70180E290E02C87C0D1739425
:100B20002C85F6CF731410F4371801C0312C24FF34
:100B300011C0B70180E390E02C87B1D12C8522FF52
:100B400016C021FF03C088E590E002C088E790E06E
:100B5000B7010CC0822F867851F021FD02C080E2DF
:100B600001C08BE227FD8DE2B70190E098D1A5147A
:100B700030F4B70180E390E092D15A94F8CFAA9470
:100B8000F401EA0DF11D8081B70190E088D1A11038
:100B9000F6CF332009F45DCEB70180E290E07FD13B
:100BA0003A94F7CFF7018681978102C08FEF9FEFCC
:100BB0002C960FB6F894DEBF0FBECDBFDF91CF915C
:100BC0001F910F91FF90EF90DF90CF90BF90AF906B
:100BD0009F908F907F906F905F904F903F902F905D
:100BE00008950F931F93CF93DF93869F8001879F74
:100BF000100D969F100D1124C8010DD0EC01009727
:100C000021F0A80160E070E038D1CE01DF91CF91F2
:100C10001F910F910895CF93DF938230910510F4C7
:100C200082E090E0E0915502F091560220E030E041
:100C3000A0E0B0E0309739F1408151814817590761
:100C4000B8F04817590771F482819381109729F001
:100C500013969C938E9312972CC090935602809378
:100C6000550227C02115310531F04217530718F0FE
:100C7000A901DB0101C0EF019A01BD01DF01028082
:100C8000F381E02DD7CF21153105F9F0281B390B61
:100C90002430310580F48A819B816115710521F032
:100CA000FB019383828304C0909356028093550284
:100CB000FE01329644C0FE01E20FF31F819391932F
:100CC00022503109398328833AC020915302309150
:100CD0005402232B41F420910202309103023093FD
:100CE00054022093530220910002309101022115F9
:100CF000310541F42DB73EB74091040250910502F1
:100D0000241B350BE0915302F0915402E217F307D4
:100D1000A0F42E1B3F0B2817390778F0AC014E5F6B
:100D20005F4F2417350748F04E0F5F1F5093540252
:100D3000409353028193919302C0E0E0F0E0CF0131
:100D4000DF91CF910895CF93DF93009709F487C087
:100D5000FC01329713821282C0915502D091560243
:100D6000209781F420813181280F391F809153020F
:100D7000909154028217930779F5F0935402E0930F
:100D800053026DC0DE0120E030E0AE17BF0750F423
:100D900012964D915C9113979D014115510509F1F2
:100DA000DA01F3CFB383A28340815181840F951F71
:100DB0008A179B0771F48D919C911197840F951F51
:100DC00002969183808312968D919C9113979383C1
:100DD00082832115310529F4F0935602E0935502E0
:100DE0003EC0D9011396FC93EE9312974D915D91FD
:100DF000A40FB51FEA17FB0779F480819181840F56
:100E0000951F0296D90111969C938E9382819381AE
:100E100013969C938E931297E0E0F0E08A819B8179
:100E2000009719F0FE01EC01F9CFCE01029628815E
:100E30003981820F931F2091530230915402281759
:100E4000390769F4309729F410925602109255022E
:100E500002C013821282D0935402C0935302DF91D6
:100E6000CF910895FC010590615070400110D8F7B2
:100E7000809590958E0F9F1F0895DC0101C06D93A2
:100E800041505040E0F70895FC01615070400190DE
:100E90000110D8F7809590958E0F9F1F08950F939E
:100EA0001F93CF93DF93182F092FEB018B8181FDC7
:100EB00003C08FEF9FEF20C082FF10C04E815F8183
:100EC0002C813D81421753077CF4E881F9819F0111
:100ED0002F5F3F4F39832883108306C0E885F9854B
:100EE000812F1995892B29F72E813F812F5F3F4F45
:100EF0003F832E83812F902FDF91CF911F910F91F0
:100F00000895FA01AA27283051F1203181F1E8949F
:100F10006F936E7F6E5F7F4F8F4F9F4FAF4FB1E0EC
:100F20003ED0B4E03CD0670F781F891F9A1FA11DE7
:100F3000680F791F8A1F911DA11D6A0F711D811DE8
:100F4000911DA11D20D009F468943F912AE0269FAD
:100F500011243019305D3193DEF6CF010895462F0C
:100F60004770405D4193B3E00FD0C9F7F6CF462FED
:100F70004F70405D4A3318F0495D31FD4052419356
:100F800002D0A9F7EACFB4E0A69597958795779513
:100F90006795BA95C9F700976105710508959B019A
:100FA000AC010A2E06945795479537952795BA9523
:100FB000C9F7620F731F841F951FA01D0895F89431
:020FC000FFCF61
:100FC2000000570220006701616161616161616136
:100FD20049443A202563202C4C656E6774683A2098
:100FE20025642C20002569004D43503235313520CF
:100FF2006973206E6F7420696E20636F6E66696715
:08100200206D6F646521000000
:00000001FF
