S00E00006E6F64655F322E73726563DF
S113000071C000008FC000008DC000008BC00000D4
S113001089C0000087C0000085C0000083C00000C4
S113002081C000007FC000007DC000007BC00000D4
S113003079C0000077C0000075C0000073C00000E4
S113004071C000006FC000006DC000006BC00000F4
S113005069C0000067C0000065C0000063C0000004
S113006061C000005FC000005DC000005BC0000014
S113007059C0000057C0000055C0000053C0000024
S113008051C000004FC000004DC000004BC0000034
S113009049C0000047C0000045C0000043C0000044
S11300A041C000003FC000003DC000003BC0000054
S11300B039C0000037C0000035C0000033C0000064
S11300C031C000002FC000002DC000002BC0000074
S11300D029C0000027C0000025C0000023C0000084
S11300E021C0000011241FBECFEFD1E2DEBFCDBF7F
S11300F000E00CBF12E0A0E0B2E0E8E3F6E100E0CB
S11301000BBF02C007900D92AE33B107D9F722E0BE
S1130110AEE3B2E001C01D92AA35B207E1F7CDD338
S11301200C941A0B6DCF8098EAE7F0E080818F6E13
S11301308083ECE7F0E08081806680830895E9E7BE
S1130140F0E02081808190E0820F911D2081820F58
S1130150911D2081820F911D959587959595879581
S11301600895A0D140E06FEF80E077D140E060EEE9
S113017081E073D140E060EE8FE06FC10895EF92AB
S1130180FF920F931F93CF93DF937C01FC01608157
S113019081E34CD160E082E349D1F701618185E3D9
S11301A045D1F70181811816A4F487010E5F1F4F12
S11301B0C0E0D0E0F80161918F018C2F8A5C36D1C8
S11301C02196F7012181332727FD3095C217D307E4
S11301D08CF381E890E039D1DF91CF911F910F9199
S11301E0FF90EF900895EF92FF920F931F93CF9398
S11301F0DF938C01E62E81E6860F0BD1F801808314
S113020085E68E0D06D1F80181831816A4F4C0E0AA
S1130210D0E0F6E6EF0EFC2E8C2F8E0DFAD0F8010E
S1130220EC0FF11DC7FDFA958283F3942196F80132
S11302308181F81684F3DF91CF911F910F91FF9084
S1130240EF900895CF93DF93EC018CE2E2D080FF2E
S11302500BC060E070E0CE01C6DF40E061E08CE2FC
S1130260FCD081E090E011C08CE2D3D081FF0BC0C0
S113027061E070E0CE01B7DF40E062E08CE2EDD0F7
S113028081E090E002C080E090E0DF91CF9108959A
S1130290CF92DF92EF92FF920F931F93CF93DF934E
S11302A06C01FC012181822F992787FD90959F93F2
S11302B02F932081822F992787FD90959F932F93C9
S11302C086E092E09F938F9396D50F900F900F90B6
S11302D00F900F900F90F601818118160CF576019E
S11302E0F2E0EF0EF11CC0E0D0E00BE112E0F70108
S11302F021917F01822F992787FD90959F932F93BA
S11303001F930F9378D52196F6012181332727FD7A
S113031030950F900F900F900F90C217D3073CF3B6
S11303208AE090E079D5DF91CF911F910F91FF90F2
S1130330EF90DF90CF9008958CE08093B8000895FB
S1130340ECEBF0E0108294EA908390819923ECF72F
S11303509091B900987F9830A1F48093BB0084E811
S11303608093BC00ECEBF0E080818823ECF7909163
S1130370B900987F983139F081E0903429F480E015
S1130380089581E0089580E008958093BB0084E897
S11303908093BC00ECEBF0E080818823ECF7909133
S11303A0B900987F81E0983209F480E00895DF92E3
S11303B0EF92FF920F931F93CF93DF937B018A01F8
S11303C0BFDF811115C0E1DFD82E811114C00115E2
S11303D0110551F0E7010E0D1F1D8991D6DF811122
S11303E00DC0C017D107C9F784E98093BC0008C0C9
S11303F0DD24D39405C0DD24D39402C0DD24D3943A
S11304008D2DDF91CF911F910F91FF90EF90DF9091
S11304100895CF93C82F79D183E07BD18C2F79D1E4
S11304207DD1C82F74D18C2FCF910895CF93DF93B2
S1130430D82FC62F6AD182E06CD18D2F6AD18C2F30
S113044068D165D1DF91CF910895CF93C82F5DD145
S11304508C2F5FD15CD1CF9108951F93CF93DF93FD
S1130460182FD62FC42F51D185E053D1812F51D1CC
S11304708D2F4FD18C2F4DD14AD1DF91CF911F9128
S1130480089543D180EC45D142C10895CF933DD125
S113049083E03FD18EE03DD141D1C82F38D18C2F9C
S11304A0CF9108953FD1EDDFF1DF807E803819F0E0
S11304B08EE192E0B6C40895CF93DF931F92CDB737
S11304C0DEB7882314F48B9801C08B9A282F332726
S11304D027FD309533231CF431952195310946E9E4
S11304E0429FC001439F900D112464E670E012D432
S11304F0633314F4698302C086E4898341E050E0E5
S1130500BE016F5F7F4F80E552DF0F90DF91CF9187
S11305100895282F2575220F982F9A7A9695922B55
S1130520292F2373220F220F892F8C7C8695869581
S1130530822B82950895CF93DF938F988D984AE606
S11305404A95F1F700C0809106018D9A5AE65A95B2
S1130550F1F700C0D09106018F9ADBDFC82F8D2FF1
S1130560D8DF2C2F30E0322F2227A901480F511D4C
S1130570CA01DF91CF910895DFDE8FEF80BB109227
S113058007018C9A8EEC98DF2FEF8DE292E22150D6
S113059080409040E1F700C0000080E08DDF8E983D
S11305A02AE12A95F1F700C08E9AC5DF909345029F
S11305B0809344020895CF92DF92EF92FF921F93AB
S11305C0CF93DF93182FB7DFEC0160914402709151
S11305D04502882777FD8095982F85D26B017C0191
S11305E0612F772767FD7095872F972F7CD220E0A6
S11305F030E04AEF55E42BD320E030E04FE753E4FA
S1130600D7D19B01AC01C701B6016AD139D2C61B4F
S1130610D70BCE01082E892F000C881F990B000CD4
S1130620881F991F880F48DFDF91CF911F91FF909A
S1130630EF90DF90CF900895E0E8F0E08081826051
S11306408083A1E8B0E08C9188618C938C91826066
S11306508C938C918A7F8C93808180688083808145
S11306608F7B808380E49CE990938700809386004D
S113067088EB9BE09093890080938800259A0895E5
S1130680CF92DF92EF92FF926B017C0120E030E881
S11306904DE654E4D8D2181624F520E030E240E0C8
S11306A055E4C701B60180D18823DCF420E030E4AE
S11306B04CE956E4C701B6017BD120E034E244E7BB
S11306C05BE4C5D220E030E040E05EE3C0D220E04D
S11306D030E048E452E46CD1D3D170938900609344
S11306E08800FF90EF90DF90CF900895389A409A59
S11306F0089540982FE789EA93E021508040904084
S1130700E1F700C00000409A089528980895289AB7
S113071008958EBD0DB407FEFDCF089580E0F9DF86
S11307208EB5089584B1876084B981E58CBD089540
S1130730E0ECF0E0908195FFFDCF8093C600089532
S1130740E0ECF0E080818823ECF78091C600089506
S11307509093C5008093C40088E18093C10086E033
S11307608093C20060EA73E088E993E0FAC20895D6
S1130770CF93DF93CDB7DEB72A970FB6F894DEBFD9
S11307800FBECDBFFE0131968AE0DF011D928A952E
S1130790E9F787E689838091400290914102892B91
S11307A071F4CDDC8B838A3014F581E090E0909372
S11307B0410280934002CE010196E1DC18C0809191
S11307C03E0290913F0201968A3191052CF4909358
S11307D03F0280933E020BC010923F0210923E02F1
S11307E0AEDC8B3024F010924102109240022A9623
S11307F00FB6F894DEBF0FBECDBFDF91CF91089541
S1130800CF93DF93EC018881803771F034F48A361A
S113081071F08D3609F442C04BC0833709F438C0F7
S1130820843709F437C044C0CE0132DD43C080911F
S1130830420290914302892BA9F46B81772767FDCB
S11308407095872F972F4FD120E030E040EA50E495
S1130850FED120E030E445EB54E442D011DF8A813C
S11308602BDE28C06A81772761950CF47095882760
S113087077FD8095982F37D120E030E040EA50E4AE
S1130880E6D120E030E445EB54E42AD0F9DE12C08E
S113089030DF10C08A8181958EDE0CC08A81992751
S11308A087FD9095909343028093420265DE02C0D7
S11308B0CE01EEDCDF91CF91089553DCBDDE33DC55
S11308C087E690E045DF58DE11DF86E492E0BADC8B
S11308D0019719F486E492E093DF4ADFF6CF50588B
S11308E0BB27AA270ED075C166D130F06BD120F09A
S11308F031F49F3F11F41EF45BC10EF4E095E7FB65
S113090051C1E92F77D180F3BA17620773078407BF
S1130910950718F071F49EF58FC10EF4E0950B2E37
S1130920BA2FA02D0B01B90190010C01CA01A0013D
S11309301124FF27591B99F0593F50F4503E68F198
S11309401A16F040A22F232F342F4427585FF3CFD9
S1130950469537952795A795F0405395C9F77EF4AA
S11309601F16BA0B620B730B840BBAF09150A1F0F3
S1130970FF0FBB1F661F771F881FC2F70EC0BA0F79
S1130980621F731F841F48F4879577956795B79501
S1130990F7959E3F08F0B3CF9395880F08F09927F9
S11309A0EE0F979587950895D9D008F481E00895BE
S11309B00CD00FC107D140F0FED030F021F45F3FDE
S11309C019F0F0C0511139C1F3C014D198F399232F
S11309D0C9F35523B1F3951B550BBB27AA276217FF
S11309E07307840738F09F5F5F4F220F331F441F44
S11309F0AA1FA9F333D00E2E3AF0E0E830D091507C
S1130A005040E695001CCAF729D0FE2F27D0660F68
S1130A10771F881FBB1F261737074807AB07B0E8A7
S1130A2009F0BB0B802DBF01FF2793585F4F2AF0BD
S1130A309E3F510568F0B6C000C15F3FECF3983E9D
S1130A40DCF3869577956795B795F7959F5FC9F71A
S1130A50880F911D9695879597F90895E1E0660FA3
S1130A60771F881FBB1F621773078407BA0720F01C
S1130A70621B730B840BBA0BEE1F88F7E095089585
S1130A8004D06894B111D9C00895BCD088F09F57A0
S1130A9090F0B92F9927B751A0F0D1F0660F771FC6
S1130AA0881F991F1AF0BA95C9F712C0B13081F0A6
S1130AB0C3D0B1E00895C0C0672F782F8827B85FEE
S1130AC039F0B93FCCF3869577956795B395D9F707
S1130AD03EF490958095709561957F4F8F4F9F4F11
S1130AE00895E89409C097FB3EF49095809570951D
S1130AF061957F4F8F4F9F4F9923A9F0F92F96E966
S1130B00BB279395F695879577956795B795F111DA
S1130B10F8CFFAF4BB0F11F460FF1BC06F5F7F4F77
S1130B208F4F9F4F16C0882311F096E911C0772389
S1130B3021F09EE8872F762F05C0662371F096E892
S1130B40862F70E060E02AF09A95660F771F881F61
S1130B50DAF7880F9695879597F90895990F000805
S1130B60550FAA0BE0E8FEEF16161706E807F9077B
S1130B70C0F012161306E407F50798F0621B730B16
S1130B80840B950B39F40A2661F0232B242B252B97
S1130B9021F408950A2609F4A140A6958FEF811D3A
S1130BA0811D089597F99F6780E870E060E00895DB
S1130BB09FEF80EC089500240A9416161706180671
S1130BC00906089500240A9412161306140605064D
S1130BD00895092E0394000C11F4882352F0BB0FDE
S1130BE040F4BF2B11F460FF04C06F5F7F4F8F4F41
S1130BF09F4F089557FD9058440F551F59F05F3F7C
S1130C0071F04795880F97FB991F61F09F3F79F02A
S1130C1087950895121613061406551FF2CF4695AC
S1130C20F1DF08C0161617061806991FF1CF86952E
S1130C307105610508940895E894BB276627772712
S1130C40CB0197F908958ADF08F48FEF08950BD04C
S1130C50C0CFB1DF28F0B6DF18F0952309F0A2CF9A
S1130C60A7CF1124EACFC6DFA0F3959FD1F3950F48
S1130C7050E0551F629FF001729FBB27F00DB11D1C
S1130C80639FAA27F00DB11DAA1F649F6627B00DAC
S1130C90A11D661F829F2227B00DA11D621F739F95
S1130CA0B00DA11D621F839FA00D611D221F749FA3
S1130CB03327A00D611D231F849F600D211D822FEA
S1130CC0762F6A2F11249F5750408AF0E1F0882331
S1130CD04AF0EE0FFF1FBB1F661F771F881F91503E
S1130CE05040A9F79E3F510570F05CCFA6CF5F3FFF
S1130CF0ECF3983EDCF3869577956795B795F79571
S1130D00E7959F5FC1F7FE2B880F911D96958795F8
S1130D1097F9089597FB072E16F4009406D077FDF3
S1130D2008D00BD007FC05D03EF4909581959F4FD9
S1130D300895709561957F4F0895AA1BBB1B51E1DF
S1130D4007C0AA1FBB1FA617B70710F0A61BB70B37
S1130D50881F991F5A95A9F780959095BC01CD01DC
S1130D6008950F931F93CF93DF93EC018B010097AA
S1130D7031F46115710519F480E090E037C06EE03C
S1130D8070E081E090E068D2FC010097A9F380E86C
S1130D9083830115110571F01387028781E883832A
S1130DA08091500290915102892B21F4F0935102C9
S1130DB0E09350022097C9F0D187C0878381826075
S1130DC083838091520290915302892B71F4F093A2
S1130DD05302E09352028091540290915502892B60
S1130DE021F4F0935502E0935402CF01DF91CF91A7
S1130DF01F910F910895CF93DF93CDB7DEB7FE0116
S1130E00369661917191AF01809152029091530293
S1130E1035D0DF91CF9108956091520270915302C1
S1130E2079C30F931F93CF93DF93E0915202F09114
S1130E305302238121FF1BC0EC0100E010E08991E3
S1130E406091520270915302DB011896ED91FC916E
S1130E501997882331F01995892B89F30FEF1FEF28
S1130E60EECF8AE01995892B11F4C80102C08FEFE7
S1130E709FEFDF91CF911F910F9108952F923F9291
S1130E804F925F926F927F928F929F92AF92BF9296
S1130E90CF92DF92EF92FF920F931F93CF93DF9342
S1130EA0CDB7DEB72C970FB6F894DEBF0FBECDBF1B
S1130EB07C016B018A01FC0117821682838181FF08
S1130EC0B0C1CE0101964C01F7019381F60193FD67
S1130ED0859193FF81916F01882309F49EC1853226
S1130EE039F493FD859193FF81916F01853221F44B
S1130EF0B70190E00FD3E8CF512C312C20E0203201
S1130F00A0F48B3269F030F4803259F0833269F402
S1130F1020612CC08D3239F0803339F4216026C031
S1130F202260246023C0286021C027FD27C030ED43
S1130F30380F3A3078F426FF06C0FAE05F9E300D91
S1130F401124532E13C08AE0389E300D1124332E01
S1130F5020620CC08E3221F426FD5FC1206406C0DD
S1130F608C3611F4206802C0883641F4F60193FDF2
S1130F70859193FF81916F018111C1CF982F9F7D3E
S1130F809554933028F40C5F1F4FFFE3F9830DC091
S1130F90833631F0833771F0833509F057C021C0AF
S1130FA0F801808189830E5F1F4F44244394512CA0
S1130FB0540114C03801F2E06F0E711CF801A080D6
S1130FC0B18026FF03C0652D70E002C06FEF7FEF94
S1130FD0C5012C8794D22C0183012C852F77222ED6
S1130FE016C03801F2E06F0E711CF801A080B180C8
S1130FF026FF03C0652D70E002C06FEF7FEFC501CF
S11310002C876BD22C012C852068222E830123FC93
S113101019C0832D90E048165906A0F4B70180E268
S113102090E078D23A94F5CFF50127FC859127FE1C
S113103081915F01B70190E06DD231103A94F1E0F3
S11310404F1A51084114510479F7DEC0843611F067
S1131050893631F5F80127FF07C0608171818281EB
S113106093810C5F1F4F08C060817181882777FDD1
S11310708095982F0E5F1F4F2F76B22E97FF09C0D1
S113108090958095709561957F4F8F4F9F4F206805
S1131090B22E2AE030E0A4016FD2A82EA81843C0D3
S11310A0853729F42F7EB22E2AE030E025C0F22FB6
S11310B0F97FBF2E8F36C1F018F4883579F0ADC0B2
S11310C0803719F0883721F0A8C02F2F2061B22E65
S11310D0B4FE0DC08B2D8460B82E09C024FF0AC055
S11310E09F2F9660B92E06C028E030E005C020E1AD
S11310F030E002C020E132E0F801B7FE07C06081B1
S11311007181828193810C5F1F4F06C06081718160
S113111080E090E00E5F1F4FA4012ED2A82EA818E5
S1131120FB2DFF77BF2EB6FE0BC02B2D2E7FA514F3
S113113050F4B4FE0AC0B2FC08C02B2D2E7E05C0AC
S11311407A2C2B2D03C07A2C01C0752C24FF0DC0E2
S1131150FE01EA0DF11D8081803311F4297E09C05E
S113116022FF06C07394739404C0822F867809F01A
S1131170739423FD12C020FF06C05A2C731418F474
S1131180530C5718732C731460F4B70180E290E089
S11311902C87C0D173942C85F6CF731410F43718B0
S11311A001C0312C24FF11C0B70180E390E02C87EB
S11311B0B1D12C8522FF16C021FF03C088E590E041
S11311C002C088E790E0B7010CC0822F867851F006
S11311D021FD02C080E201C08BE227FD8DE2B70150
S11311E090E098D1A51430F4B70180E390E092D157
S11311F05A94F8CFAA94F401EA0DF11D8081B70145
S113120090E088D1A110F6CF332009F45DCEB70168
S113121080E290E07FD13A94F7CFF70186819781FD
S113122002C08FEF9FEF2C960FB6F894DEBF0FBE6F
S1131230CDBFDF91CF911F910F91FF90EF90DF9081
S1131240CF90BF90AF909F908F907F906F905F9062
S11312504F903F902F9008950F931F93CF93DF9358
S1131260869F8001879F100D969F100D1124C80141
S11312700DD0EC01009721F0A80160E070E038D1B6
S1131280CE01DF91CF911F910F910895CF93DF93FA
S11312908230910510F482E090E0E0915802F091E0
S11312A0590220E030E0A0E0B0E0309739F140810D
S11312B0518148175907B8F04817590771F48281CA
S11312C09381109729F013969C938E9312972CC0B8
S11312D0909359028093580227C02115310531F0AB
S11312E04217530718F0A901DB0101C0EF019A016D
S11312F0BD01DF010280F381E02DD7CF2115310537
S1131300F9F0281B390B2430310580F48A819B8144
S11313106115710521F0FB019383828304C09093CE
S1131320590280935802FE01329644C0FE01E20F36
S1131330F31F8193919322503109398328833AC052
S11313402091560230915702232B41F4209102023E
S113135030910302309357022093560220910002E9
S1131360309101022115310541F42DB73EB740916A
S1131370040250910502241B350BE0915602F091B2
S11313805702E217F307A0F42E1B3F0B2817390767
S113139078F0AC014E5F5F4F2417350748F04E0FCD
S11313A05F1F50935702409356028193919302C05A
S11313B0E0E0F0E0CF01DF91CF910895CF93DF9388
S11313C0009709F487C0FC01329713821282C091FE
S11313D05802D0915902209781F420813181280F3D
S11313E0391F80915602909157028217930779F51D
S11313F0F0935702E09356026DC0DE0120E030E026
S1131400AE17BF0750F412964D915C9113979D014E
S11314104115510509F1DA01F3CFB383A283408169
S11314205181840F951F8A179B0771F48D919C91AC
S11314301197840F951F02969183808312968D9144
S11314409C911397938382832115310529F4F0939A
S11314505902E09358023EC0D9011396FC93EE93CF
S113146012974D915D91A40FB51FEA17FB0779F40C
S113147080819181840F951F0296D90111969C93C6
S11314808E938281938113969C938E931297E0E0BE
S1131490F0E08A819B81009719F0FE01EC01F9CFFD
S11314A0CE01029628813981820F931F2091560222
S11314B0309157022817390769F4309729F41092AC
S11314C059021092580202C013821282D09357021A
S11314D0C0935602DF91CF910895FC0105906150AD
S11314E070400110D8F7809590958E0F9F1F089536
S11314F0DC0101C06D9341505040E0F70895FC01B8
S11315006150704001900110D8F7809590958E0F2E
S11315109F1F08950F931F93CF93DF93182F092FC5
S1131520EB018B8181FD03C08FEF9FEF20C082FF11
S113153010C04E815F812C813D81421753077CF49A
S1131540E881F9819F012F5F3F4F398328831083FE
S113155006C0E885F985812F1995892B29F72E81F5
S11315603F812F5F3F4F3F832E83812F902FDF9149
S1131570CF911F910F910895FA01AA27283051F1B4
S1131580203181F1E8946F936E7F6E5F7F4F8F4FB0
S11315909F4FAF4FB1E03ED0B4E03CD0670F781F0F
S11315A0891F9A1FA11D680F791F8A1F911DA11DF4
S11315B06A0F711D811D911DA11D20D009F468942D
S11315C03F912AE0269F11243019305D3193DEF6D5
S11315D0CF010895462F4770405D4193B3E00FD08B
S11315E0C9F7F6CF462F4F70405D4A3318F0495D76
S11315F031FD4052419302D0A9F7EACFB4E0A69559
S11316009795879577956795BA95C9F7009761057A
S1131610710508959B01AC010A2E069457954795D0
S113162037952795BA95C9F7620F731F841F951FC5
S10B1630A01D0895F894FFCFFA
S113163800005A02200049443A202563202C4C65B6
S11316486E6774683A2025642C20002569004D4390
S11316585032353135206973206E6F7420696E20DD
S1111668636F6E666967206D6F646521000014
S9030000FC
