:1000000071C000008EC000008CC000008AC00000DB
:1000100088C0000086C0000084C0000082C00000CC
:1000200080C000007EC000007CC000007AC00000DC
:1000300078C0000076C0000074C0000072C00000EC
:1000400070C000006EC000006CC000006AC00000FC
:1000500068C0000066C0000064C0000062C000000C
:1000600060C000005EC000005CC000005AC000001C
:1000700058C0000056C0000054C0000052C000002C
:1000800050C000004EC000004CC000004AC000003C
:1000900048C0000046C0000044C0000042C000004C
:1000A00040C000003EC000003CC000003AC000005C
:1000B00038C0000036C0000034C0000032C000006C
:1000C00030C000002EC000002CC000002AC000007C
:1000D00028C0000026C0000024C0000022C000008C
:1000E00020C0000011241FBECFEFD1E2DEBFCDBF84
:1000F00000E00CBF12E0A0E0B2E0E4EFF2E000E0CC
:100100000BBF02C007900D92AA32B107D9F722E0C7
:10011000AAE2B2E001C01D92A033B207E1F702D01B
:10012000E7C06ECFCF93DF93CDB7DEB72A970FB678
:10013000F894DEBF0FBECDBF26D040E060EE8FE06A
:1001400068D08FEF84B92F9A8AE0E0E0F2E0DE0118
:10015000119601900D928A95E1F7CE0101961DD07E
:1001600088ED8B838A858F5F8A87CE01019615D0B3
:1001700080E090E02A960FB6F894DEBF0FBECDBFA8
:10018000DF91CF9108956AD040E06FEF80E041D0D9
:1001900040E060EE81E03DC008951F93CF93DF9370
:1001A000EC01688181E31ED060E082E31BD06981AD
:1001B00085E318D08981181674F410E0FE01E10F70
:1001C000F11D17FDFA95628186E3810F0BD01F5F49
:1001D000898118179CF381E890E013D0DF91CF91CB
:1001E0001F910895CF93DF93D82FC62F41D082E07F
:1001F00043D08D2F41D08C2F3FD03CD0DF91CF9179
:100200000895CF93C82F34D08C2F36D033D0CF91D0
:1002100008951F93CF93DF93182FD62FC42F28D084
:1002200085E02AD0812F28D08D2F26D08C2F24D066
:1002300021D0DF91CF911F9108951AD080EC1CD06E
:1002400019C00895CF9314D083E016D08EE014D057
:1002500018D0C82F0FD08C2FCF91089516D0EDDF76
:10026000F1DF807E803819F08AE092E014C00895B2
:1002700028980895289A08958EBD0DB407FEFDCFE5
:10028000089580E0F9DF8EB5089584B1876084B960
:1002900081E58CBD08950F931F93CF93DF93E09179
:1002A0002C02F0912D02238121FF1BC0EC0100E004
:1002B00010E0899160912C0270912D02DB0118965B
:1002C000ED91FC911997882331F01995892B89F3C9
:1002D0000FEF1FEFEECF8AE01995892B11F4C801BB
:1002E00002C08FEF9FEFDF91CF911F910F91089583
:0402F000F894FFCFB0
:1002F400DF0830303030303030304D43503235311B
:1003040035206973206E6F7420696E20636F6E668A
:0A0314006967206D6F646521000029
:00000001FF
