:1000000071C000008EC000008CC000008AC00000DB
:1000100088C0000086C0000084C0000082C00000CC
:1000200080C000007EC000007CC000007AC00000DC
:1000300078C0000076C0000074C0000072C00000EC
:1000400070C000006EC000006CC000006AC00000FC
:1000500068C0000066C0000064C0000062C000000C
:1000600060C000005EC000005CC000005AC000001C
:1000700058C0000056C0000054C0000052C000002C
:1000800050C000004EC000004CC000004AC000003C
:1000900048C0000046C0000044C0000042C000004C
:1000A00040C000003EC000003CC000003AC000005C
:1000B00038C0000036C0000034C0000032C000006C
:1000C00030C000002EC000002CC000002AC000007C
:1000D00028C0000026C0000024C0000022C000008C
:1000E00020C0000011241FBECFEFD1E2DEBFCDBF84
:1000F00000E00CBF12E0A0E0B2E0E0E5F3E000E0D9
:100100000BBF02C007900D92A032B107D9F722E0D1
:10011000A0E2B2E001C01D92A632B207E1F702D020
:1001200015C16ECFCF93DF93CDB7DEB72A970FB649
:10013000F894DEBF0FBECDBF50D012D035D08FEFB8
:1001400084B92F9A10E719833DD08B83CE01019695
:1001500052D08FE19EE40197F1F700C00000F3CF89
:10016000E0E8F0E0808182608083A1E8B0E08C91DB
:1001700088618C938C9182608C938C918A7F8C9314
:1001800080818068808380818F7B808380E49CE98C
:10019000909387008093860088E097E09093890091
:1001A00080938800269A0895ECE7F0E080818064CF
:1001B00080838081807E8083EAE7F0E080818068B0
:1001C00080830895EAE7F0E0808180648083808105
:1001D00080FDFDCF8091780008956ED040E06FEFF4
:1001E00080E045D040E060EE81E041D040E060EE4C
:1001F0008FE03DC008951F93CF93DF93EC0168819A
:1002000081E31ED060E082E31BD0698185E318D0D2
:100210008981181674F410E0FE01E10FF11D17FD3D
:10022000FA95628186E3810F0BD01F5F89811817D1
:100230009CF381E890E013D0DF91CF911F91089556
:10024000CF93DF93D82FC62F41D082E043D08D2F9C
:1002500041D08C2F3FD03CD0DF91CF910895CF93E8
:10026000C82F34D08C2F36D033D0CF9108951F9320
:10027000CF93DF93182FD62FC42F28D085E02AD014
:10028000812F28D08D2F26D08C2F24D021D0DF9104
:10029000CF911F9108951AD080EC1CD019C00895F9
:1002A000CF9314D083E016D08EE014D018D0C82F8E
:1002B0000FD08C2FCF91089516D0EDDFF1DF807E27
:1002C000803819F080E092E014C0089528980895CD
:1002D000289A08958EBD0DB407FEFDCF089580E0E5
:1002E000F9DF8EB5089584B1876084B981E58CBD4E
:1002F00008950F931F93CF93DF93E0912202F09123
:100300002302238121FF1BC0EC0100E010E0899152
:100310006091220270912302DB011896ED91FC910D
:100320001997882331F01995892B89F30FEF1FEF67
:10033000EECF8AE01995892B11F4C80102C08FEF26
:100340009FEFDF91CF911F910F910895F894FFCF08
:100350004D435032353135206973206E6F742069FA
:100360006E20636F6E666967206D6F6465210000A3
:00000001FF
