:1000000071C000008FC000008DC000008BC00000D8
:1000100089C0000087C0000085C0000083C00000C8
:1000200081C000007FC000007DC000007BC00000D8
:1000300079C0000077C0000075C0000073C00000E8
:1000400071C000006FC000006DC000006BC00000F8
:1000500069C0000067C0000065C0000063C0000008
:1000600061C000005FC000005DC000005BC0000018
:1000700059C0000057C0000055C0000053C0000028
:1000800051C000004FC000004DC000004BC0000038
:1000900049C0000047C0000045C0000043C0000048
:1000A00041C000003FC000003DC000003BC0000058
:1000B00039C0000037C0000035C0000033C0000068
:1000C00031C000002FC000002DC000002BC0000078
:1000D00029C0000027C0000025C0000023C0000088
:1000E00021C0000011241FBECFEFD1E2DEBFCDBF83
:1000F00000E00CBF12E0A0E0B2E0EEEFF4E100E0BF
:100100000BBF02C007900D92A035B107D9F722E0CE
:10011000A0E5B2E001C01D92A936B207E1F73BD0DD
:100120000C947D0A6DCF389A409A089540982FE735
:1001300089EA93E0215080409040E1F700C0000040
:10014000409A0895CF93DF93EC018881803729F09E
:100150008337D9F08A36D1F403C0CE01DCD118C080
:100160008A8139D06B81772767FD7095872F972F0C
:100170001DD420E030E040EA50E4CCD420E030E46C
:1001800045EB54E410D3ADD003C0D0DFCE01C3D1D2
:10019000DF91CF91089528D180D0D9D087E690E023
:1001A000F1D239D0C0DF8FEF80BBC0E1D2E084E56F
:1001B00092E08BD1019719F484E592E0C3DFE5D09A
:1001C00056D09F938F93DF93CF9378D50F900F9056
:1001D0000F900F90ECCF882314F48B9801C08B9A6A
:1001E000282F332727FD309533231CF43195219593
:1001F000310946E9429FC001439F900D112464E6F6
:1002000070E0EBD460935E0241E050E06EE572E096
:1002100080E576C2089539D28FEF80BB1092070136
:100220008C9A8EECD8DF2FEF8DE292E22150804045
:100230009040E1F700C0000080E0CDDF8E982AE119
:100240002A95F1F700C08E9A0895282F2575220F60
:10025000982F9A7A9695922B292F2373220F220F8B
:10026000892F8C7C86958695822B82950895CF93D5
:100270008F988D988AE68A95F1F700C080910601E3
:100280008D9A9AE69A95F1F700C0C09106018F9A6F
:100290008C2FDBDF90E0CF910895E0E8F0E08081E3
:1002A00082608083A1E8B0E08C9188618C938C910E
:1002B00082608C938C918A7F8C938081806880830C
:1002C00080818F7B808380E49CE99093870080937A
:1002D000860088E097E09093890080938800259AB3
:1002E0000895CF92DF92EF92FF926B017C0120E0A4
:1002F00030E041E654E40AD4181624F520E030E258
:1003000040E055E4C701B601B2D28823DCF420E016
:1003100030E44CE956E4C701B601ADD220E034E246
:1003200044E75BE4F7D320E030E040E05EE3F2D363
:1003300020E030E048E452E49ED205D37093890077
:1003400060938800FF90EF90DF90CF9008958098A1
:10035000EAE7F0E080818F6E8083ECE7F0E0808157
:10036000806680830895E9E7F0E02081808190E055
:10037000820F911D2081820F911D2081820F911D7E
:1003800095958795959587950895809152029091BE
:100390005302892B79F4E7DF809308028A301CF539
:1003A00081E090E0909353028093520286E092E0C5
:1003B00029C00895809150029091510201968A318E
:1003C00091052CF49093510280935002089510925D
:1003D000510210925002C7DF90E00B9724F0109268
:1003E000530210925202089533D140E06FEF80E043
:1003F0000AD140E060EE81E006D140E060EE8FE09F
:1004000002C10895EF92FF920F931F93CF93DF9352
:100410007C01FC01608181E3DFD060E082E3DCD01D
:10042000F701618185E3D8D0F70181811816A4F422
:1004300087010E5F1F4FC0E0D0E0F80161918F018E
:100440008C2F8A5CC9D02196F7012181332727FDA3
:100450003095C217D3078CF381E890E0CCD0DF91C0
:10046000CF911F910F91FF90EF900895EF92FF921F
:100470000F931F93CF93DF938C01E62E81E6860FB7
:100480009ED0F801808385E68E0D99D0F801818396
:100490001816A4F4C0E0D0E0F6E6EF0EFC2E8C2F88
:1004A0008E0D8DD0F801EC0FF11DC7FDFA958283FA
:1004B000F3942196F8018181F81684F3DF91CF91AE
:1004C0001F910F91FF90EF900895CF93DF93EC0170
:1004D0008CE275D080FF0BC060E070E0CE01C6DF1B
:1004E00040E061E08CE28FD081E090E011C08CE2CE
:1004F00066D081FF0BC061E070E0CE01B7DF40E065
:1005000062E08CE280D081E090E002C080E090E088
:10051000DF91CF910895CF92DF92EF92FF920F93E8
:100520001F93CF93DF936C01FC012181822F9927C8
:1005300087FD90959F932F932081822F992787FD88
:1005400090959F932F9389E192E09F938F93B6D3D9
:100550000F900F900F900F900F900F90F6018181E8
:1005600018160CF57601F2E0EF0EF11CC0E0D0E0B9
:100570000EE212E0F70121917F01822F992787FD7A
:1005800090959F932F931F930F9398D32196F601E5
:100590002181332727FD30950F900F900F900F90FA
:1005A000C217D3073CF38AE090E099D3DF91CF9153
:1005B0001F910F91FF90EF90DF90CF900895CF9310
:1005C000C82F50D083E052D08C2F50D054D0C82F99
:1005D0004BD08C2FCF910895CF93DF93D82FC62F78
:1005E00041D082E043D08D2F41D08C2F3FD03CD0E2
:1005F000DF91CF910895CF93C82F34D08C2F36D070
:1006000033D0CF9108951F93CF93DF93182FD62F18
:10061000C42F28D085E02AD0812F28D08D2F26D036
:100620008C2F24D021D0DF91CF911F9108951AD023
:1006300080EC1CD019C00895CF9314D083E016D05D
:100640008EE014D018D0C82F0FD08C2FCF910895E2
:1006500016D0EDDFF1DF807E803819F081E392E083
:1006600043C3089528980895289A08958EBD0DB41F
:1006700007FEFDCF089580E0F9DF8EB5089584B1BF
:10068000876084B981E58CBD08958CE08093B800C3
:100690000895ECEBF0E0108294EA90839081992326
:1006A000ECF79091B900987F9830A1F48093BB004B
:1006B00084E88093BC00ECEBF0E080818823ECF7C9
:1006C0009091B900987F983139F081E0903429F405
:1006D00080E0089581E0089580E008958093BB0054
:1006E00084E88093BC00ECEBF0E080818823ECF799
:1006F0009091B900987F81E0983209F480E00895E4
:10070000DF92EF92FF920F931F93CF93DF937B01C2
:100710008A01BFDF811115C0E1DFD82E811114C01D
:100720000115110551F0E7010E0D1F1D8991D6DF4E
:1007300081110DC0C017D107C9F784E98093BC00AF
:1007400008C0DD24D39405C0DD24D39402C0DD2489
:10075000D3948D2DDF91CF911F910F91FF90EF904A
:10076000DF900895E0ECF0E0908195FFFDCF80935D
:10077000C6000895E0ECF0E080818823ECF78091DA
:10078000C60008959093C5008093C40088E18093CB
:10079000C10086E08093C2006AEB73E082EB93E0D5
:1007A00043C208955058BB27AA270ED075C166D101
:1007B00030F06BD120F031F49F3F11F41EF45BC197
:1007C0000EF4E095E7FB51C1E92F77D180F3BA171A
:1007D000620773078407950718F071F49EF58FC1BF
:1007E0000EF4E0950B2EBA2FA02D0B01B90190014C
:1007F0000C01CA01A0011124FF27591B99F0593F90
:1008000050F4503E68F11A16F040A22F232F342FD7
:100810004427585FF3CF469537952795A795F04025
:100820005395C9F77EF41F16BA0B620B730B840B3A
:10083000BAF09150A1F0FF0FBB1F661F771F881FF2
:10084000C2F70EC0BA0F621F731F841F48F487954A
:1008500077956795B795F7959E3F08F0B3CF939539
:10086000880F08F09927EE0F979587950895D9D0AE
:1008700008F481E008950CD00FC107D140F0FED0FC
:1008800030F021F45F3F19F0F0C0511139C1F3C0CD
:1008900014D198F39923C9F35523B1F3951B550B44
:1008A000BB27AA2762177307840738F09F5F5F4F43
:1008B000220F331F441FAA1FA9F333D00E2E3AF084
:1008C000E0E830D091505040E695001CCAF729D09E
:1008D000FE2F27D0660F771F881FBB1F26173707ED
:1008E0004807AB07B0E809F0BB0B802DBF01FF271D
:1008F00093585F4F2AF09E3F510568F0B6C000C183
:100900005F3FECF3983EDCF3869577956795B79556
:10091000F7959F5FC9F7880F911D9695879597F971
:100920000895E1E0660F771F881FBB1F62177307EA
:100930008407BA0720F0621B730B840BBA0BEE1FFF
:1009400088F7E095089504D06894B111D9C008954E
:10095000BCD088F09F5790F0B92F9927B751A0F0DD
:10096000D1F0660F771F881F991F1AF0BA95C9F743
:1009700012C0B13081F0C3D0B1E00895C0C0672F7C
:10098000782F8827B85F39F0B93FCCF386957795F3
:100990006795B395D9F73EF49095809570956195DC
:1009A0007F4F8F4F9F4F0895E89409C097FB3EF407
:1009B00090958095709561957F4F8F4F9F4F9923AC
:1009C000A9F0F92F96E9BB279395F695879577952A
:1009D0006795B795F111F8CFFAF4BB0F11F460FFEA
:1009E0001BC06F5F7F4F8F4F9F4F16C0882311F042
:1009F00096E911C0772321F09EE8872F762F05C056
:100A0000662371F096E8862F70E060E02AF09A95F0
:100A1000660F771F881FDAF7880F9695879597F9E5
:100A20000895990F0008550FAA0BE0E8FEEF16167F
:100A30001706E807F907C0F012161306E407F507D2
:100A400098F0621B730B840B950B39F40A2661F046
:100A5000232B242B252B21F408950A2609F4A140E9
:100A6000A6958FEF811D811D089597F99F6780E8F6
:100A700070E060E008959FEF80EC089500240A94F0
:100A80001616170618060906089500240A94121669
:100A90001306140605060895092E0394000C11F49C
:100AA000882352F0BB0F40F4BF2B11F460FF04C049
:100AB0006F5F7F4F8F4F9F4F089557FD9058440FA2
:100AC000551F59F05F3F71F04795880F97FB991FAD
:100AD00061F09F3F79F0879508951216130614066A
:100AE000551FF2CF4695F1DF08C0161617061806F7
:100AF000991FF1CF86957105610508940895E894D2
:100B0000BB2766277727CB0197F908958ADF08F47A
:100B10008FEF08950BD0C0CFB1DF28F0B6DF18F00B
:100B2000952309F0A2CFA7CF1124EACFC6DFA0F307
:100B3000959FD1F3950F50E0551F629FF001729F72
:100B4000BB27F00DB11D639FAA27F00DB11DAA1F91
:100B5000649F6627B00DA11D661F829F2227B00DDE
:100B6000A11D621F739FB00DA11D621F839FA00D69
:100B7000611D221F749F3327A00D611D231F849FB9
:100B8000600D211D822F762F6A2F11249F57504010
:100B90008AF0E1F088234AF0EE0FFF1FBB1F661FAB
:100BA000771F881F91505040A9F79E3F510570F064
:100BB0005CCFA6CF5F3FECF3983EDCF3869577954C
:100BC0006795B795F795E7959F5FC1F7FE2B880F5F
:100BD000911D9695879597F9089597FB072E16F422
:100BE000009406D077FD08D00BD007FC05D03EF46A
:100BF000909581959F4F0895709561957F4F0895C9
:100C0000AA1BBB1B51E107C0AA1FBB1FA617B70732
:100C100010F0A61BB70B881F991F5A95A9F780954E
:100C20009095BC01CD0108950F931F93CF93DF934F
:100C3000EC018B01009731F46115710519F480E026
:100C400090E037C06EE070E081E090E068D2FC0197
:100C50000097A9F380E883830115110571F01387CC
:100C6000028781E8838380915F0290916002892BE3
:100C700021F4F0936002E0935F022097C9F0D187DE
:100C8000C087838182608383809161029091620238
:100C9000892B71F4F0936202E09361028091630208
:100CA00090916402892B21F4F0936402E093630233
:100CB000CF01DF91CF911F910F910895CF93DF93D3
:100CC000CDB7DEB7FE01369661917191AF0180918B
:100CD00061029091620235D0DF91CF9108956091C9
:100CE00061027091620279C30F931F93CF93DF93D8
:100CF000E0916102F0916202238121FF1BC0EC01AF
:100D000000E010E089916091610270916202DB0164
:100D10001896ED91FC911997882331F01995892B3C
:100D200089F30FEF1FEFEECF8AE01995892B11F4AD
:100D3000C80102C08FEF9FEFDF91CF911F910F91FC
:100D400008952F923F924F925F926F927F928F926F
:100D50009F92AF92BF92CF92DF92EF92FF920F934A
:100D60001F93CF93DF93CDB7DEB72C970FB6F894D0
:100D7000DEBF0FBECDBF7C016B018A01FC01178273
:100D80001682838181FFB0C1CE0101964C01F7012B
:100D90009381F60193FD859193FF81916F018823E3
:100DA00009F49EC1853239F493FD859193FF8191B9
:100DB0006F01853221F4B70190E00FD3E8CF512CB9
:100DC000312C20E02032A0F48B3269F030F48032F4
:100DD00059F0833269F420612CC08D3239F08033B0
:100DE00039F4216026C02260246023C0286021C01D
:100DF00027FD27C030ED380F3A3078F426FF06C0C3
:100E0000FAE05F9E300D1124532E13C08AE0389E05
:100E1000300D1124332E20620CC08E3221F426FDB9
:100E20005FC1206406C08C3611F4206802C0883689
:100E300041F4F60193FD859193FF81916F0181113A
:100E4000C1CF982F9F7D9554933028F40C5F1F4F8E
:100E5000FFE3F9830DC0833631F0833771F08335BA
:100E600009F057C021C0F801808189830E5F1F4FB0
:100E700044244394512C540114C03801F2E06F0E05
:100E8000711CF801A080B18026FF03C0652D70E0C1
:100E900002C06FEF7FEFC5012C8794D22C01830134
:100EA0002C852F77222E16C03801F2E06F0E711CB0
:100EB000F801A080B18026FF03C0652D70E002C05C
:100EC0006FEF7FEFC5012C876BD22C012C8520683A
:100ED000222E830123FC19C0832D90E04816590669
:100EE000A0F4B70180E290E078D23A94F5CFF50112
:100EF00027FC859127FE81915F01B70190E06DD2BB
:100F000031103A94F1E04F1A51084114510479F725
:100F1000DEC0843611F0893631F5F80127FF07C0AD
:100F200060817181828193810C5F1F4F08C0608155
:100F30007181882777FD8095982F0E5F1F4F2F7640
:100F4000B22E97FF09C090958095709561957F4F5F
:100F50008F4F9F4F2068B22E2AE030E0A4016FD25D
:100F6000A82EA81843C0853729F42F7EB22E2AE078
:100F700030E025C0F22FF97FBF2E8F36C1F018F474
:100F8000883579F0ADC0803719F0883721F0A8C0D6
:100F90002F2F2061B22EB4FE0DC08B2D8460B82E91
:100FA00009C024FF0AC09F2F9660B92E06C028E012
:100FB00030E005C020E130E002C020E132E0F8017D
:100FC000B7FE07C060817181828193810C5F1F4FE2
:100FD00006C06081718180E090E00E5F1F4FA40128
:100FE0002ED2A82EA818FB2DFF77BF2EB6FE0BC061
:100FF0002B2D2E7FA51450F4B4FE0AC0B2FC08C0FD
:101000002B2D2E7E05C07A2C2B2D03C07A2C01C0EF
:10101000752C24FF0DC0FE01EA0DF11D8081803387
:1010200011F4297E09C022FF06C07394739404C092
:10103000822F867809F0739423FD12C020FF06C02A
:101040005A2C731418F4530C5718732C731460F43F
:10105000B70180E290E02C87C0D173942C85F6CF45
:10106000731410F4371801C0312C24FF11C0B701DC
:1010700080E390E02C87B1D12C8522FF16C021FFA0
:1010800003C088E590E002C088E790E0B7010CC09B
:10109000822F867851F021FD02C080E201C08BE2F0
:1010A00027FD8DE2B70190E098D1A51430F4B70187
:1010B00080E390E092D15A94F8CFAA94F401EA0D1B
:1010C000F11D8081B70190E088D1A110F6CF3320C7
:1010D00009F45DCEB70180E290E07FD13A94F7CF7A
:1010E000F7018681978102C08FEF9FEF2C960FB694
:1010F000F894DEBF0FBECDBFDF91CF911F910F914E
:10110000FF90EF90DF90CF90BF90AF909F908F9027
:101110007F906F905F904F903F902F9008950F9326
:101120001F93CF93DF93869F8001879F100D969F1B
:10113000100D1124C8010DD0EC01009721F0A80179
:1011400060E070E038D1CE01DF91CF911F910F9117
:101150000895CF93DF938230910510F482E090E000
:10116000E0916702F091680220E030E0A0E0B0E09A
:10117000309739F14081518148175907B8F0481725
:10118000590771F482819381109729F013969C93EB
:101190008E9312972CC0909368028093670227C0A9
:1011A0002115310531F04217530718F0A901DB0171
:1011B00001C0EF019A01BD01DF010280F381E02D42
:1011C000D7CF21153105F9F0281B390B2430310513
:1011D00080F48A819B816115710521F0FB01938365
:1011E000828304C09093680280936702FE01329666
:1011F00044C0FE01E20FF31F819391932250310905
:10120000398328833AC02091650230916602232BEE
:1012100041F4209102023091030230936602209340
:10122000650220910002309101022115310541F43F
:101230002DB73EB74091040250910502241B350B97
:10124000E0916502F0916602E217F307A0F42E1B0D
:101250003F0B2817390778F0AC014E5F5F4F24171A
:10126000350748F04E0F5F1F5093660240936502AA
:101270008193919302C0E0E0F0E0CF01DF91CF9144
:101280000895CF93DF93009709F487C0FC0132974C
:1012900013821282C0916702D0916802209781F474
:1012A00020813181280F391F80916502909166025B
:1012B0008217930779F5F0936602E09365026DC09B
:1012C000DE0120E030E0AE17BF0750F412964D91DA
:1012D0005C9113979D014115510509F1DA01F3CF96
:1012E000B383A28340815181840F951F8A179B0786
:1012F00071F48D919C911197840F951F02969183A3
:10130000808312968D919C911397938382832115EC
:10131000310529F4F0936802E09367023EC0D901D9
:101320001396FC93EE9312974D915D91A40FB51F08
:10133000EA17FB0779F480819181840F951F02964B
:10134000D90111969C938E938281938113969C93DD
:101350008E931297E0E0F0E08A819B81009719F06C
:10136000FE01EC01F9CFCE01029628813981820F6E
:10137000931F20916502309166022817390769F49E
:10138000309729F4109268021092670202C013820B
:101390001282D0936602C0936502DF91CF910895C7
:1013A000FC010590615070400110D8F78095909530
:1013B0008E0F9F1F0895DC0101C06D934150504076
:1013C000E0F70895FC016150704001900110D8F7DA
:1013D000809590958E0F9F1F08950F931F93CF9325
:1013E000DF93182F092FEB018B8181FD03C08FEF55
:1013F0009FEF20C082FF10C04E815F812C813D8114
:10140000421753077CF4E881F9819F012F5F3F4F1A
:1014100039832883108306C0E885F985812F1995C3
:10142000892B29F72E813F812F5F3F4F3F832E83EA
:10143000812F902FDF91CF911F910F910895FA0185
:10144000AA27283051F1203181F1E8946F936E7F03
:101450006E5F7F4F8F4F9F4FAF4FB1E03ED0B4E0F4
:101460003CD0670F781F891F9A1FA11D680F791F35
:101470008A1F911DA11D6A0F711D811D911DA11D46
:1014800020D009F468943F912AE0269F1124301956
:10149000305D3193DEF6CF010895462F4770405DF1
:1014A0004193B3E00FD0C9F7F6CF462F4F70405DA0
:1014B0004A3318F0495D31FD4052419302D0A9F7FB
:1014C000EACFB4E0A6959795879577956795BA95F5
:1014D000C9F700976105710508959B01AC010A2EBB
:1014E00006945795479537952795BA95C9F7620F92
:0E14F000731F841F951FA01D0895F894FFCF51
:1014FE0000006902200067000000000000000000EC
:10150E00656E633A2025640A0049443A202563201B
:10151E002C4C656E6774683A2025642C2000256972
:10152E00004D435032353135206973206E6F742073
:10153E00696E20636F6E666967206D6F646521004A
:00000001FF
