S00E00006E6F64655F322E73726563DF
S1130000C2C00000DFC00000DDC00000DBC0000093
S1130010D9C00000D7C00000D5C00000D3C0000084
S1130020D1C00000CFC00000CDC00000CBC0000094
S1130030C9C00000C7C00000C5C00000C3C00000A4
S1130040C1C00000BFC00000BDC00000BBC00000B4
S1130050B9C00000B7C00000B5C00000B3C00000C4
S1130060B1C00000AFC00000ADC00000ABC00000D4
S1130070A9C00000A7C00000A5C00000A3C00000E4
S1130080A1C000009FC000009DC000009BC00000F4
S113009099C0000097C0000095C00000E0C10000B6
S11300A091C000008FC000008DC000008BC0000014
S11300B089C0000087C0000085C0000083C0000024
S11300C081C000007FC000007DC000007BC0000034
S11300D079C0000077C0000075C0000073C0000044
S11300E071C000004A029C029C029C029C029C0279
S11300F09C029C024A029C029C029C029C029C025E
S11301009C029C024C029C029C029C029C029C024B
S11301109C029C029C029C029C029C029C029C02EB
S11301209C029C024C029C029C029C029C029C022B
S11301309C029C029C029C029C029C029C029C02CB
S11301409C029C0298029C029C029C029C029C02BF
S11301509C029C0275029C029C029C029C029C02D2
S11301609C029C029C029C029C029C029C029C029B
S11301709C029C0269029C029C029C029C029C02BE
S11301809C029C02870211241FBECFEFD1E2DEBF86
S1130190CDBF00E00CBF12E0A0E0B2E0EEECF5E071
S11301A000E00BBF02C007900D92AA32B107D9F745
S11301B022E0AAE2B2E001C01D92AB33B207E1F73C
S11301C002D003C21DCFCF93DF9300D0CDB7DEB7EB
S11301D08ED01CD03FD0E9EBF0E080818260808338
S11301E012D178948FEF84B92F9A80E589831A828B
S11301F084E68B834DD063E0CE0101960ED18FE36C
S11302009CE90197F1F700C00000F4CFE0E8F0E0CA
S1130210808182608083A1E8B0E08C9188618C93B6
S11302208C9182608C938C918A7F8C93808180687E
S1130230808380818F7B808380E49CE99093870016
S11302408093860088E097E09093890080938800EB
S1130250269A08958098EAE7F0E080818F6E808383
S1130260ECE7F0E08081806680830895E9E7F0E0C0
S11302702081808190E0820F911D2081820F911D49
S11302802081820F911D9595879595958795089561
S113029080912C0290912D02892B79F4E7DF8093D1
S11302A0020284311CF581E090E090932D0280934A
S11302B02C0280E092E029C0089580912A02909156
S11302C02B0201968A3191052CF490932B02809392
S11302D02A02089510922B0210922A02C7DF90E09E
S11302E0459724F010922D0210922C0208956ED09E
S11302F040E06FEF80E045D040E060EE81E041D027
S113030040E060EE8FE03DC008951F93CF93DF93EC
S1130310EC01688181E31ED060E082E31BD0698137
S113032085E318D08981181674F410E0FE01E10FFA
S1130330F11D17FDFA95628186E3810F0BD01F5FD3
S1130340898118179CF381E890E013D0DF91CF9155
S11303501F910895CF93DF93D82FC62F41D082E009
S113036043D08D2F41D08C2F3FD03CD0DF91CF9103
S11303700895CF93C82F34D08C2F36D033D0CF915B
S113038008951F93CF93DF93182FD62FC42F28D00F
S113039085E02AD0812F28D08D2F26D08C2F24D0F1
S11303A021D0DF91CF911F9108951AD080EC1CD0F9
S11303B019C00895CF9314D083E016D08EE014D0E2
S11303C018D0C82F0FD08C2FCF91089516D0EDDF01
S11303D0F1DF807E803819F08BE092E0C9C0089587
S11303E028980895289A08958EBD0DB407FEFDCF70
S11303F0089580E0F9DF8EB5089584B1876084B9EB
S113040081E58CBD089588E48093B8008FEF8093D4
S1130410BB0084E08093BC000895ECEBF0E0208105
S113042020FDFDCF60933002FC0120812093310236
S113043020FD0CC0623050F0DC011196E2E3F2E0E2
S113044081E09D9191938F5F8613FBCF10922F02D1
S113045088EF80930A0285EA8093BC0008951F9276
S11304600F920FB60F9211240BB60F922F933F9356
S11304708F939F93AF93BF93EF93FF938091B900B2
S113048090E0FC013897E135F10508F055C0EE58CD
S1130490FF4F68C010922E02E0912E02809130022C
S11304A0E81770F481E08E0F80932E02F0E0EF5C89
S11304B0FD4F80818093BB0085E88093BC0043C0DE
S11304C080912F02816080932F0284E98093BC0085
S11304D03AC0E0912E0281E08E0F80932E0280912B
S11304E0BB00F0E0EF5CFD4F808320912E0230E0F2
S11304F08091300290E001972817390724F485ECA5
S11305008093BC0020C085E88093BC001CC080910F
S1130510BB00E0912E02F0E0EF5CFD4F8083809100
S11305202F02816080932F0284E98093BC000BC06A
S113053085EA8093BC0007C08091B90080930A02C9
S113054084E08093BC00FF91EF91BF91AF919F91A4
S11305508F913F912F910F900BBE0F900FBE0F9074
S11305601F901895EE0FFF1F0590F491E02D19943C
S11305700F931F93CF93DF93E0913702F0913802EA
S1130580238121FF1BC0EC0100E010E08991609100
S1130590370270913802DB011896ED91FC9119979E
S11305A0882331F01995892B89F30FEF1FEFEECFD4
S11305B08AE01995892B11F4C80102C08FEF9FEFCF
S11105C0DF91CF911F910F910895F894FFCF12
S11305CE67010000000000000000F84D4350323572
S11305DE3135206973206E6F7420696E20636F6EDF
S10D05EE666967206D6F64652100E3
S9030000FC
