S00F00006279676765726E2E7372656327
S11300000C94B4010C94D1010C94D1010C94D10141
S11300100C94D1010C94D1010C94D1010C94D10114
S11300200C94D1010C94D1010C94D1010C94D10104
S11300300C94D1010C94D1010C94D1010C94D101F4
S11300400C94D1010C94D1010C94D1010C94D101E4
S11300500C94D1010C94D1010C94D1010C94D101D4
S11300600C94D1010C94D1010C94D1010C94D101C4
S1130070000000000000000000065F5F06000000B2
S11300800007070007070000147F7F147F7F140018
S1130090242E6B6B3A120000466630180C66620020
S11300A0307A4F5D377A48000407030000000000EF
S11300B0001C3E63410000000041633E1C00000040
S11300C0082A3E1C1C3E2A0808083E3E0808000078
S11300D000A0E0600000000008080808080800000C
S11300E000006060000000006030180C060301008E
S11300F03E7F594D7F3E000042427F7F40400000DA
S1130100627359496F660000226349497F360000D3
S1130110181C16137F7F1000276745457D390000A2
S11301203C7E4B4979300000036371190F070000CE
S1130130367F49497F360000064F49693F1E00005B
S113014000006C6C0000000000A0EC6C00000000DB
S1130150081C366341000000141414141414000025
S1130160004163361C080000020351590F060000C9
S11301703E7F415D5D1F1E007C7E13137E7C00006C
S1130180417F7F49497F36001C3E63414163220021
S1130190417F7F41637F1C00417F7F495D41630054
S11301A0417F7F491D0103001C3E6341517372006E
S11301B07F7F08087F7F000000417F7F41000000AF
S11301C0307040417F3F0100417F7F081C7763000E
S11301D0417F7F41406070007F7F060C067F7F0077
S11301E07F7F060C187F7F001C3E6341633E1C002A
S11301F0417F7F49090F06001E3F21717F5E000089
S1130200417F7F19396F460026674D597B320000C4
S113021003417F7F410300007F7F40407F7F0000D8
S11302201F3F60603F1F00007F7F3018307F7F00DA
S113023063771C081C776300074F78784F0700002A
S11302406773594D47637100007F7F41410000008F
S11302500103060C183060000041417F7F0000005C
S1130260080C0603060C0800808080808080808053
S11302700000030704000000207454543C7840003C
S1130280413F7F44447C3800387C44446C2800005F
S1130290307848493F7F4000387C54545C18000053
S11302A0487E7F490302000098BCA4A4F87C0400A3
S11302B0417F7F08047C780000447D7D400000007D
S11302C040C484FD7D000000417F7F10386C4400F1
S11302D000417F7F400000007C7C0C180C7C78007F
S11302E07C7C04047C780000387C44447C38000026
S11302F084FCF8A4243C1800183C24A4F8FC8400D2
S1130300447C78441C180000485C54547424000055
S113031000043E7F442400003C7C40403C7C400080
S11303201C3C60603C1C00003C7C6030607C3C00F9
S1130330446C3810386C44009CBCA0A0FC7C0000C9
S11303404C64745C4C64000008083E774141000032
S113035000000077770000004141773E0808000064
S1130360020301030203010011241FBECFEFD4E0F6
S1130370DEBFCDBF11E0A0E0B1E0E2E1F3E102C0F5
S113038005900D92A839B107D9F721E0A8E9B1E0A9
S113039001C01D92AB3CB207E1F70E94DD010C9451
S11303A087090C9400008C5F8093001481E48A9583
S11303B0F1F700C08091001408958FE190E00E944D
S11303C0CD0485B7806885BF0E9430020E947E04F8
S11303D00E94B8040E946B03FFCFEF92FF920F9329
S11303E01F93CF93DF93CAE0D0E000E010E0E12C4C
S11303F0F12C81E090E00E94D301E80EF11C80E032
S113040090E00E94D301080F111D2197209789F7CE
S1130410EAE0F0E0C701BF010E94DA049B016093A7
S11304209901C801BF010E94DA04609398017727FB
S11304307F936F9333273F932F9380E691E09F93AD
S11304408F930E944D050F900F900F900F900F9077
S11304500F90DF91CF911F910F91FF90EF9008952E
S11304600E94ED010895CF93DF9381E090E00E9414
S1130470D30190E020919901821B910944E6489FA1
S11304809001499F300D1124332314F421583F4F18
S1130490E901CC0FCD2FCC1FDD0B80E090E00E9452
S11304A0D30190E020919801821B910944E6489F72
S11304B09001499F300D1124332314F421583F4FE8
S11304C0BE01C901880F892F881F990BDF91CF9135
S11304D008950E9433026734710564F46A3B4FEF58
S11304E0740754F0873491054CF48A3B9F4F44F4CD
S11304F083E0089581E0089580E0089582E00895FE
S113050084E0089580E991E00E9461050895EF92E6
S1130510FF920F931F93CF93DF937C010E94B80443
S113052060E080E00E94AB04C7010E946B0460E0BD
S11305308091BF010E94AB0484E991E00E946B04A6
S1130540F7018785908901960297C4F087010B5EB5
S11305501F4FC1E0D0E068E08C2F0E94AB04F8018B
S1130560819191918F010E946B042196F701278557
S113057030892F5F3F4FC217D3076CF3DF91CF91C0
S11305801F910F91FF90EF900895833041F5809172
S1130590BF019091C001AC014F5F5F4FE091BD017D
S11305A0F091BE012785308924173507B4F160E046
S11305B00E94AB0486E991E00E946B048091BF0124
S11305C09091C00101969093C0018093BF0160E0B7
S11305D00E94AB0484E991E00E946B040895809129
S11305E0BF019091C00182309105BCF060E00E948F
S11305F0AB0486E991E00E946B048091BF01909165
S1130600C00101979093C0018093BF0160E00E94F4
S1130610AB0484E991E00E946B0408956894EE248D
S1130620E2F80F2EF3EBCF2EF1E0DF2EF02DC1E038
S1130630D0E001C0E12E0E946902182F8E15D1F37B
S1130640813039F068F18230F1F1833009F43FC030
S1130650F1CF2091BF013091C0012130310559F40F
S1130660E091BD01F091BE010788F08DE02D018875
S1130670F289E02D09952091BF013091C00123300A
S11306803105C1F6F601808191819093BE0180937A
S1130690BD01D093C001C093BF010E948702CACF9D
S11306A0E091BD01F091BE0183899489009711F214
S11306B09093BE018093BD01D093C001C093BF014C
S11306C00E948702B7CF82E00E94C502B3CF83E0C5
S11306D00E94C502AFCFCF93DF93CDB7DEB7C25D23
S11306E0D1090FB6F894DEBF0FBECDBF0F2EF3E2D3
S11306F0CF2EF02DCE010196DC01EC2D1D92EA9552
S1130700E9F72AE0E6E0F1E0DC0101900D922A9598
S1130710E1F70F2EF5E0DF2EF02DFE013B96DF0111
S11307202D2D1D922A95E9F78E010C5D1F4FD801DE
S1130730EC2D1D92EA95E9F72AE0E5E1F1E0D80114
S113074001900D922A95E1F7FE01BE96DF012D2D51
S11307501D922A95E9F722E832E03EAB2DABAE01BB
S1130760495B5F4FDA01EC2D1D92EA95E9F72BE026
S1130770E4E2F1E0DA0101900D922A95E1F7DA0161
S11307801B961D921D921D921C921E979E01265926
S11307903F4FF9016C2D11926A95E9F769E0E3E3A3
S11307A0F1E0D90101900D926A95E1F7F9013996CA
S11307B066E0DF011D926A95E9F7EE24E394F12CDB
S11307C0F901F08AE786968B858BBE0163577F4FCC
S11307D0DB01EC2D1D92EA95E9F786E0E2E4F1E015
S11307E0DB0101900D928A95E1F7FB01369689E0D1
S11307F0DF011D928A95E9F7CE0180559F4FFC01D8
S11308001192CA94E9F70F2EFAE0CF2EF02DE1E50C
S1130810F1E0DC0101900D92CA94E1F7FC013A96F3
S1130820DF011D92DA94E9F7E4E0F0E0DC01509690
S1130830FC93EE931F9756961C930E9355975896D8
S11308405C934E9357975A963C932E9359975C9684
S11308507C936E935B9798AF8FABFA01948B838BE9
S1130860D90154969C938E9353973D8B2C8B23E202
S1130870FC01AAE9B1E001900D922A95E1F78AE919
S113088091E09093BE018093BD01F092C001E0928B
S1130890BF010E9487020E940E03CF93DF93EC01F5
S11308A020E030E0A0E0B2E1E881F0E0B097EE0FA4
S11308B0FF1FEE0FFF1FEE0FFF1FE20FF31FE059A4
S11308C0FF4FE491EC932F5F3F4F2830310561F7E0
S11308D0DF91CF910895CF93DF93FC0120812223F0
S11308E051F0EC0121960E944D04CE012196FC01A9
S11308F020812111F8CFDF91CF910895E0E0F0E15C
S11309008EEA808381EA80838AED808382E180831A
S113091088EC808388EA80838FE3808385ED8083FD
S113092080E8808381E8808380E5808389ED80830B
S113093081E2808380E2808310828BED808380E378
S113094080838DEA8083108284EA808386EA8083B0
S11309508FEA80830895E0E0F0E191E29083608380
S11309609FE7908392E29083808387E08083089559
S113097060E080E00E94AB0480E094E0E0E0F2E11B
S1130980108201970097E1F708955D9BFECF8CB923
S113099008955F9BFECF8CB1089590BD89B988E11D
S11309A08AB98EE880BD69EC74E085EC94E00E941D
S11309B00205089597FB072E16F4009407D077FDDF
S11309C009D00E94EE0407FC05D03EF49095819571
S11309D09F4F0895709561957F4F0895AA1BBB1B87
S11309E051E107C0AA1FBB1FA617B70710F0A61B2B
S11309F0B70B881F991F5A95A9F780959095BC014C
S1130A00CD0108950F931F93CF93DF93EC018B01D6
S1130A10009731F46115710519F480E090E038C055
S1130A206EE070E081E090E00E946007FC010097B6
S1130A30A1F380E883830115110571F01387028700
S1130A4081E883838091C1019091C201892B21F4B3
S1130A50F093C201E093C1012097C9F0D187C08708
S1130A608381826083838091C3019091C401892B27
S1130A7071F4F093C401E093C3018091C501909196
S1130A80C601892B21F4F093C601E093C501CF017F
S1130A90DF91CF911F910F910895A0E0B0E0E3E5BD
S1130AA0F5E00C946009FE01359661917191AF01F6
S1130AB08091C3019091C4010E948E05E2E00C94E0
S1130AC07C090F931F93CF93DF93E091C301F091BF
S1130AD0C401238121FF1BC0EC0100E010E08991D7
S1130AE06091C3017091C401DB011896ED91FC91F2
S1130AF01997882331F00995892B89F30FEF1FEF9C
S1130B00EECF8AE00995892B11F4C80102C08FEF5A
S1130B109FEFDF91CF911F910F910895ACE0B0E06A
S1130B20E4E9F5E00C9450097C016B018A01FC01B5
S1130B3017821682838181FFBDC1CE0101964C01CB
S1130B40F7019381F60193FD859193FF81916F01E4
S1130B50882309F4ABC1853239F493FD859193FF61
S1130B6081916F01853229F4B70190E00E94C00899
S1130B70E7CF512C312C20E02032A0F48B3269F0E5
S1130B8030F4803259F0833269F420612CC08D3204
S1130B9039F0803339F4216026C02260246023C0F8
S1130BA0286021C027FD27C030ED380F3A3078F493
S1130BB026FF06C0FAE05F9E300D1124532E13C0A9
S1130BC08AE0389E300D1124332E20620CC08E3200
S1130BD021F426FD6BC1206406C08C3611F4206814
S1130BE002C0883641F4F60193FD859193FF81910B
S1130BF06F018111C1CF982F9F7D9554933028F4B4
S1130C000C5F1F4FFFE3F9830DC0833631F0833748
S1130C1071F0833509F05BC022C0F80180818983BB
S1130C200E5F1F4F44244394512C540115C03801C6
S1130C30F2E06F0E711CF801A080B18026FF03C0A2
S1130C40652D70E002C06FEF7FEFC5012C870E9415
S1130C50B5082C0183012C852F77222E17C038016B
S1130C60F2E06F0E711CF801A080B18026FF03C072
S1130C70652D70E002C06FEF7FEFC5012C870E94E5
S1130C80A3082C012C852068222E830123FC1BC081
S1130C90832D90E048165906B0F4B70180E290E045
S1130CA00E94C0083A94F4CFF50127FC859127FEF1
S1130CB081915F01B70190E00E94C00831103A941D
S1130CC0F1E04F1A51084114510471F7E5C084361C
S1130CD011F0893639F5F80127FF07C06081718169
S1130CE0828193810C5F1F4F08C0608171818827C6
S1130CF077FD8095982F0E5F1F4F2F76B22E97FFAA
S1130D0009C090958095709561957F4F8F4F9F4F47
S1130D102068B22E2AE030E0A4010E94F208A82E36
S1130D20A81844C0853729F42F7EB22E2AE030E07B
S1130D3025C0F22FF97FBF2E8F36C1F018F4883505
S1130D4079F0B4C0803719F0883721F0AFC02F2F65
S1130D502061B22EB4FE0DC08B2D8460B82E09C064
S1130D6024FF0AC09F2F9660B92E06C028E030E009
S1130D7005C020E130E002C020E132E0F801B7FE16
S1130D8007C060817181828193810C5F1F4F06C00F
S1130D906081718180E090E00E5F1F4FA4010E948A
S1130DA0F208A82EA818FB2DFF77BF2EB6FE0BC0A5
S1130DB02B2D2E7FA51450F4B4FE0AC0B2FC08C03B
S1130DC02B2D2E7E05C07A2C2B2D03C07A2C01C02E
S1130DD0752C24FF0DC0FE01EA0DF11D80818033C6
S1130DE011F4297E09C022FF06C07394739404C0D1
S1130DF0822F867809F0739423FD13C020FF06C068
S1130E005A2C731418F4530C5718732C731468F475
S1130E10B70180E290E02C870E94C00873942C856F
S1130E20F5CF731410F4371801C0312C24FF12C00D
S1130E30B70180E390E02C870E94C0082C8522FF34
S1130E4017C021FF03C088E590E002C088E790E066
S1130E50B7010CC0822F867859F021FD02C080E2D0
S1130E6001C08BE227FD8DE2B70190E00E94C0082B
S1130E70A51438F4B70180E390E00E94C0085A94A6
S1130E80F7CFAA94F401EA0DF11D8081B70190E037
S1130E900E94C008A110F5CF332009F451CEB70148
S1130EA080E290E00E94C0083A94F6CFF701868170
S1130EB0978102C08FEF9FEF2C96E2E10C946C09AE
S1130EC00F931F93CF93DF93869F8001879F100D0D
S1130ED0969F100D1124C8010E947C07EC01009715
S1130EE029F0A80160E070E00E94AE08CE01DF9115
S1130EF0CF911F910F910895CF93DF938230910585
S1130F0010F482E090E0E091C901F091CA0120E080
S1130F1030E0A0E0B0E0309739F1408151814817CA
S1130F205907B8F04817590771F4828193811097D3
S1130F3029F013969C938E9312972CC09093CA0118
S1130F408093C90127C02115310531F04217530799
S1130F5018F0A901DB0101C0EF019A01BD01DF0115
S1130F600280F381E02DD7CF21153105F9F0281B3C
S1130F70390B2430310580F48A819B816115710518
S1130F8021F0FB019383828304C09093CA01809370
S1130F90C901FE01329644C0FE01E20FF31F8193A2
S1130FA0919322503109398328833AC02091C70193
S1130FB03091C801232B41F42091020130910301A7
S1130FC03093C8012093C7012091000130910101A1
S1130FD02115310541F42DB73EB7409104015091DC
S1130FE00501241B350BE091C701F091C801E217FC
S1130FF0F307A0F42E1B3F0B2817390778F0AC0138
S11310004E5F5F4F2417350748F04E0F5F1F509314
S1131010C8014093C7018193919302C0E0E0F0E0DE
S1131020CF01DF91CF910895CF93DF93009709F417
S113103087C0FC01329713821282C091C901D091FA
S1131040CA01209781F420813181280F391F8091B2
S1131050C7019091C8018217930779F5F093C801ED
S1131060E093C7016DC0DE0120E030E0AE17BF079A
S113107050F412964D915C9113979D0141155105C1
S113108009F1DA01F3CFB383A28340815181840F44
S1131090951F8A179B0771F48D919C911197840F6A
S11310A0951F02969183808312968D919C9113973C
S11310B0938382832115310529F4F093CA01E093C7
S11310C0C9013EC0D9011396FC93EE9312974D913A
S11310D05D91A40FB51FEA17FB0779F48081918114
S11310E0840F951F0296D90111969C938E93828149
S11310F0938113969C938E931297E0E0F0E08A819B
S11311009B81009719F0FE01EC01F9CFCE01029604
S113111028813981820F931F2091C7013091C80122
S11311202817390769F4309729F41092CA011092EC
S1131130C90102C013821282D093C801C093C701AF
S1131140DF91CF910895FC0105906150704001102A
S1131150D8F7809590958E0F9F1F0895DC0101C0EC
S11311606D9341505040E0F70895FC016150704088
S113117001900110D8F7809590958E0F9F1F0895C8
S11311800F931F93CF93DF93182F092FEB018B81BC
S113119081FD03C08FEF9FEF20C082FF10C04E81FE
S11311A05F812C813D81421753077CF4E881F981EA
S11311B09F012F5F3F4F39832883108306C0E88542
S11311C0F985812F0995892B29F72E813F812F5F7E
S11311D03F4F3F832E83812F902FDF91CF911F911B
S11311E00F910895FA01AA27283051F1203181F195
S11311F0E8946F936E7F6E5F7F4F8F4F9F4FAF4F1B
S1131200B1E03ED0B4E03CD0670F781F891F9A1F2D
S1131210A11D680F791F8A1F911DA11D6A0F711DE1
S1131220811D911DA11D20D009F468943F912AE0ED
S1131230269F11243019305D3193DEF6CF010895D5
S1131240462F4770405D4193B3E00FD0C9F7F6CF06
S1131250462F4F70405D4A3318F0495D31FD4052CE
S1131260419302D0A9F7EACFB4E0A6959795879564
S113127077956795BA95C9F7009761057105089543
S11312809B01AC010A2E06945795479537952795EF
S1131290BA95C9F7620F731F841F951FA01D089587
S11312A02F923F924F925F926F927F928F929F9272
S11312B0AF92BF92CF92DF92EF92FF920F931F9360
S11312C0CF93DF93CDB7DEB7CA1BDB0B0FB6F89411
S11312D0DEBF0FBECDBF09942A88398848885F8451
S11312E06E847D848C849B84AA84B984C884DF80C2
S11312F0EE80FD800C811B81AA81B981CE0FD11DA6
S11313000FB6F894DEBF0FBECDBFED010895F8947B
S1051310FFCF09
S11313120000CB01200043616C6962726174650054
S11313220000000000506C61792067616D65000067
S1131332000000004869676873636F726573000098
S113134200000053657474696E6773000000000046
S113135200004465627567000000000000000000A0
S1131362004D61696E204D656E750000000000003D
S113137243616C6962726174696F6E2066696E6939
S11313827368656420776974682076616C75657327
S11313923A0A583A256420202020593A25640A0042
S10B13A272756E002D0020009D
S9030000FC
